{
  "address": "0x0DCd1Bf9A1b36cE34237eEaFef220932846BCD82",
  "abi": [
    {
      "stateMutability": "payable",
      "type": "fallback"
    },
    {
      "inputs": [
        {
          "internalType": "address",
          "name": "_strategy",
          "type": "address"
        },
        {
          "internalType": "uint256",
          "name": "_wantAmt",
          "type": "uint256"
        }
      ],
      "name": "deposit",
      "outputs": [],
      "stateMutability": "nonpayable",
      "type": "function"
    },
    {
      "inputs": [
        {
          "internalType": "address",
          "name": "_strategy",
          "type": "address"
        },
        {
          "internalType": "uint256",
          "name": "_wantAmt",
          "type": "uint256"
        }
      ],
      "name": "withdraw",
      "outputs": [],
      "stateMutability": "nonpayable",
      "type": "function"
    },
    {
      "stateMutability": "payable",
      "type": "receive"
    }
  ],
  "transactionHash": "0xd59b89c0d199786c81ccfa2aa9cedd9ac57638828127f160087a9601a86ea4e5",
  "args": [],
  "solcInputHash": "0ba4c4105039ab960ca4f8b82189a6c3",
  "bytecode": "0x608060405234801561001057600080fd5b506104fc806100206000396000f3fe60806040526004361061002d5760003560e01c806347e7ef2414610036578063f3fef3a31461005f57610034565b3661003457005b005b34801561004257600080fd5b5061005d60048036038101906100589190610353565b610088565b005b34801561006b57600080fd5b5061008660048036038101906100819190610353565b61022b565b005b60008273ffffffffffffffffffffffffffffffffffffffff1663e7a036796040518163ffffffff1660e01b815260040160206040518083038186803b1580156100d057600080fd5b505afa1580156100e4573d6000803e3d6000fd5b505050506040513d601f19601f820116820180604052508101906101089190610326565b90508073ffffffffffffffffffffffffffffffffffffffff1663095ea7b384846040518363ffffffff1660e01b815260040161014592919061040b565b602060405180830381600087803b15801561015f57600080fd5b505af1158015610173573d6000803e3d6000fd5b505050506040513d601f19601f820116820180604052508101906101979190610393565b508273ffffffffffffffffffffffffffffffffffffffff166347e7ef2433846040518363ffffffff1660e01b81526004016101d392919061040b565b602060405180830381600087803b1580156101ed57600080fd5b505af1158015610201573d6000803e3d6000fd5b505050506040513d601f19601f8201168201806040525081019061022591906103c0565b50505050565b8173ffffffffffffffffffffffffffffffffffffffff1663f3fef3a333836040518363ffffffff1660e01b815260040161026692919061040b565b602060405180830381600087803b15801561028057600080fd5b505af1158015610294573d6000803e3d6000fd5b505050506040513d601f19601f820116820180604052508101906102b891906103c0565b505050565b6000813590506102cc81610481565b92915050565b6000815190506102e181610481565b92915050565b6000815190506102f681610498565b92915050565b60008135905061030b816104af565b92915050565b600081519050610320816104af565b92915050565b60006020828403121561033c5761033b61047c565b5b600061034a848285016102d2565b91505092915050565b6000806040838503121561036a5761036961047c565b5b6000610378858286016102bd565b9250506020610389858286016102fc565b9150509250929050565b6000602082840312156103a9576103a861047c565b5b60006103b7848285016102e7565b91505092915050565b6000602082840312156103d6576103d561047c565b5b60006103e484828501610311565b91505092915050565b6103f681610434565b82525050565b61040581610472565b82525050565b600060408201905061042060008301856103ed565b61042d60208301846103fc565b9392505050565b600061043f82610452565b9050919050565b60008115159050919050565b600073ffffffffffffffffffffffffffffffffffffffff82169050919050565b6000819050919050565b600080fd5b61048a81610434565b811461049557600080fd5b50565b6104a181610446565b81146104ac57600080fd5b50565b6104b881610472565b81146104c357600080fd5b5056fea2646970667358221220a570538a64aec81a54c9aa71e2fc834640e8a4b4744aac9ee6f3b41c4cd99aea64736f6c63430008070033",
  "devdoc": {
    "kind": "dev",
    "methods": {},
    "version": 1
  },
  "userdoc": {
    "kind": "user",
    "methods": {},
    "version": 1
  },
  "storageLayout": {
    "storage": [],
    "types": null
  }
}