{
  "address": "0x957902eE8496807a08FD04482dACd21E31ceFD19",
  "abi": [
    {
      "inputs": [
        {
          "internalType": "address",
          "name": "_wantAdd",
          "type": "address"
        },
        {
          "internalType": "uint256",
          "name": "_wantAmt",
          "type": "uint256"
        },
        {
          "internalType": "address",
          "name": "_rewardToken",
          "type": "address"
        },
        {
          "internalType": "uint256",
          "name": "_minBurnAmt",
          "type": "uint256"
        },
        {
          "internalType": "uint256",
          "name": "_deadline",
          "type": "uint256"
        }
      ],
      "name": "buyAndBurnToken",
      "outputs": [
        {
          "internalType": "uint256",
          "name": "",
          "type": "uint256"
        }
      ],
      "stateMutability": "nonpayable",
      "type": "function"
    }
  ],
  "transactionHash": "0xec1e6657a8e0b076a7d1e235d037aed94f98d43aea3360c940dfc87eb7903a24",
  "args": [],
  "solcInputHash": "d066cb7732b46a855abe1bca7c0304a6",
  "bytecode": "0x608060405234801561001057600080fd5b50610f95806100206000396000f3fe608060405234801561001057600080fd5b506004361061002b5760003560e01c8063637b623714610030575b600080fd5b61004a60048036038101906100459190610872565b610060565b6040516100579190610bca565b60405180910390f35b60008373ffffffffffffffffffffffffffffffffffffffff168673ffffffffffffffffffffffffffffffffffffffff16146103715760008473ffffffffffffffffffffffffffffffffffffffff166370a08231306040518263ffffffff1660e01b81526004016100d09190610adb565b60206040518083038186803b1580156100e857600080fd5b505afa1580156100fc573d6000803e3d6000fd5b505050506040513d601f19601f82011682018060405250810190610120919061091a565b9050610161739a9f2ccfde556a7e9ff0848998aa4a0cfd8863ae878973ffffffffffffffffffffffffffffffffffffffff166103e99092919063ffffffff16565b60405180604001604052808873ffffffffffffffffffffffffffffffffffffffff1673ffffffffffffffffffffffffffffffffffffffff1681526020018673ffffffffffffffffffffffffffffffffffffffff1673ffffffffffffffffffffffffffffffffffffffff1681525060009060026101de929190610777565b50739a9f2ccfde556a7e9ff0848998aa4a0cfd8863ae73ffffffffffffffffffffffffffffffffffffffff16635c11d7958786600030886040518663ffffffff1660e01b8152600401610235959493929190610be5565b600060405180830381600087803b15801561024f57600080fd5b505af1158015610263573d6000803e3d6000fd5b50505050808573ffffffffffffffffffffffffffffffffffffffff166370a08231306040518263ffffffff1660e01b81526004016102a19190610adb565b60206040518083038186803b1580156102b957600080fd5b505afa1580156102cd573d6000803e3d6000fd5b505050506040513d601f19601f820116820180604052508101906102f1919061091a565b6102fb9190610d05565b90508473ffffffffffffffffffffffffffffffffffffffff166342966c68826040518263ffffffff1660e01b81526004016103369190610bca565b600060405180830381600087803b15801561035057600080fd5b505af1158015610364573d6000803e3d6000fd5b50505050809150506103e0565b8373ffffffffffffffffffffffffffffffffffffffff166342966c68866040518263ffffffff1660e01b81526004016103aa9190610bca565b600060405180830381600087803b1580156103c457600080fd5b505af11580156103d8573d6000803e3d6000fd5b505050508490505b95945050505050565b6000818473ffffffffffffffffffffffffffffffffffffffff1663dd62ed3e30866040518363ffffffff1660e01b8152600401610427929190610af6565b60206040518083038186803b15801561043f57600080fd5b505afa158015610453573d6000803e3d6000fd5b505050506040513d601f19601f82011682018060405250810190610477919061091a565b6104819190610caf565b90506105048463095ea7b360e01b85846040516024016104a2929190610b1f565b604051602081830303815290604052907bffffffffffffffffffffffffffffffffffffffffffffffffffffffff19166020820180517bffffffffffffffffffffffffffffffffffffffffffffffffffffffff838183161783525050505061050a565b50505050565b600061056c826040518060400160405280602081526020017f5361666545524332303a206c6f772d6c6576656c2063616c6c206661696c65648152508573ffffffffffffffffffffffffffffffffffffffff166105d19092919063ffffffff16565b90506000815111156105cc578080602001905181019061058c91906108ed565b6105cb576040517f08c379a00000000000000000000000000000000000000000000000000000000081526004016105c290610baa565b60405180910390fd5b5b505050565b60606105e084846000856105e9565b90509392505050565b60608247101561062e576040517f08c379a000000000000000000000000000000000000000000000000000000000815260040161062590610b6a565b60405180910390fd5b610637856106fd565b610676576040517f08c379a000000000000000000000000000000000000000000000000000000000815260040161066d90610b8a565b60405180910390fd5b6000808673ffffffffffffffffffffffffffffffffffffffff16858760405161069f9190610ac4565b60006040518083038185875af1925050503d80600081146106dc576040519150601f19603f3d011682016040523d82523d6000602084013e6106e1565b606091505b50915091506106f1828286610710565b92505050949350505050565b600080823b905060008111915050919050565b6060831561072057829050610770565b6000835111156107335782518084602001fd5b816040517f08c379a00000000000000000000000000000000000000000000000000000000081526004016107679190610b48565b60405180910390fd5b9392505050565b8280548282559060005260206000209081019282156107f0579160200282015b828111156107ef5782518260006101000a81548173ffffffffffffffffffffffffffffffffffffffff021916908373ffffffffffffffffffffffffffffffffffffffff16021790555091602001919060010190610797565b5b5090506107fd9190610801565b5090565b5b8082111561081a576000816000905550600101610802565b5090565b60008135905061082d81610f1a565b92915050565b60008151905061084281610f31565b92915050565b60008135905061085781610f48565b92915050565b60008151905061086c81610f48565b92915050565b600080600080600060a0868803121561088e5761088d610e30565b5b600061089c8882890161081e565b95505060206108ad88828901610848565b94505060406108be8882890161081e565b93505060606108cf88828901610848565b92505060806108e088828901610848565b9150509295509295909350565b60006020828403121561090357610902610e30565b5b600061091184828501610833565b91505092915050565b6000602082840312156109305761092f610e30565b5b600061093e8482850161085d565b91505092915050565b6000610953838361095f565b60208301905092915050565b61096881610d59565b82525050565b61097781610d59565b82525050565b600061098882610c54565b6109928185610c82565b935061099d83610c3f565b8060005b838110156109d5576109b282610e1d565b6109bc8882610947565b97506109c783610c75565b9250506001810190506109a1565b5085935050505092915050565b60006109ed82610c5f565b6109f78185610c93565b9350610a07818560208601610da1565b80840191505092915050565b6000610a1e82610c6a565b610a288185610c9e565b9350610a38818560208601610da1565b610a4181610e35565b840191505092915050565b6000610a59602683610c9e565b9150610a6482610e53565b604082019050919050565b6000610a7c601d83610c9e565b9150610a8782610ea2565b602082019050919050565b6000610a9f602a83610c9e565b9150610aaa82610ecb565b604082019050919050565b610abe81610d97565b82525050565b6000610ad082846109e2565b915081905092915050565b6000602082019050610af0600083018461096e565b92915050565b6000604082019050610b0b600083018561096e565b610b18602083018461096e565b9392505050565b6000604082019050610b34600083018561096e565b610b416020830184610ab5565b9392505050565b60006020820190508181036000830152610b628184610a13565b905092915050565b60006020820190508181036000830152610b8381610a4c565b9050919050565b60006020820190508181036000830152610ba381610a6f565b9050919050565b60006020820190508181036000830152610bc381610a92565b9050919050565b6000602082019050610bdf6000830184610ab5565b92915050565b600060a082019050610bfa6000830188610ab5565b610c076020830187610ab5565b8181036040830152610c19818661097d565b9050610c28606083018561096e565b610c356080830184610ab5565b9695505050505050565b60008190508160005260206000209050919050565b600081549050919050565b600081519050919050565b600081519050919050565b6000600182019050919050565b600082825260208201905092915050565b600081905092915050565b600082825260208201905092915050565b6000610cba82610d97565b9150610cc583610d97565b9250827fffffffffffffffffffffffffffffffffffffffffffffffffffffffffffffffff03821115610cfa57610cf9610dee565b5b828201905092915050565b6000610d1082610d97565b9150610d1b83610d97565b925082821015610d2e57610d2d610dee565b5b828203905092915050565b600073ffffffffffffffffffffffffffffffffffffffff82169050919050565b6000610d6482610d77565b9050919050565b60008115159050919050565b600073ffffffffffffffffffffffffffffffffffffffff82169050919050565b6000819050919050565b60005b83811015610dbf578082015181840152602081019050610da4565b83811115610dce576000848401525b50505050565b6000610de7610de283610e46565b610d39565b9050919050565b7f4e487b7100000000000000000000000000000000000000000000000000000000600052601160045260246000fd5b6000610e298254610dd4565b9050919050565b600080fd5b6000601f19601f8301169050919050565b60008160001c9050919050565b7f416464726573733a20696e73756666696369656e742062616c616e636520666f60008201527f722063616c6c0000000000000000000000000000000000000000000000000000602082015250565b7f416464726573733a2063616c6c20746f206e6f6e2d636f6e7472616374000000600082015250565b7f5361666545524332303a204552433230206f7065726174696f6e20646964206e60008201527f6f74207375636365656400000000000000000000000000000000000000000000602082015250565b610f2381610d59565b8114610f2e57600080fd5b50565b610f3a81610d6b565b8114610f4557600080fd5b50565b610f5181610d97565b8114610f5c57600080fd5b5056fea2646970667358221220ff8d2d77c449b1c4954f2c73863e9914993b10adce91af41a279d3922746a1f864736f6c63430008070033",
  "devdoc": {
    "kind": "dev",
    "methods": {
      "buyAndBurnToken(address,uint256,address,uint256,uint256)": {
        "params": {
          "_rewardToken": ": Address of reward token",
          "_wantAdd": ": Want token address",
          "_wantAmt": ": Amount of want token for swap"
        }
      }
    },
    "version": 1
  },
  "userdoc": {
    "kind": "user",
    "methods": {
      "buyAndBurnToken(address,uint256,address,uint256,uint256)": {
        "notice": "Function to buy and burn Gym reward token"
      }
    },
    "notice": "BuyBack contract:   Swaps want token to reward token and burns them.",
    "version": 1
  },
  "storageLayout": {
    "storage": [
      {
        "astId": 1753,
        "contract": "cache/solpp-generated-contracts/BuyBack.sol:BuyBack",
        "label": "_path",
        "offset": 0,
        "slot": "0",
        "type": "t_array(t_address)dyn_storage"
      }
    ],
    "types": {
      "t_address": {
        "encoding": "inplace",
        "label": "address",
        "numberOfBytes": "20"
      },
      "t_array(t_address)dyn_storage": {
        "base": "t_address",
        "encoding": "dynamic_array",
        "label": "address[]",
        "numberOfBytes": "32"
      }
    }
  }
}