{
  "address": "0x0B306BF915C4d645ff596e518fAf3F9669b97016",
  "abi": [
    {
      "inputs": [
        {
          "internalType": "address",
          "name": "_WBNB",
          "type": "address"
        }
      ],
      "stateMutability": "nonpayable",
      "type": "constructor"
    },
    {
      "inputs": [],
      "name": "getWrappedNativeAddr",
      "outputs": [
        {
          "internalType": "address",
          "name": "",
          "type": "address"
        }
      ],
      "stateMutability": "view",
      "type": "function"
    }
  ],
  "transactionHash": "0xa32be6bbddc9066918676ee57f3bcb6331bd90dc8120b9558e9317289e76cc35",
  "args": [
    "0x9A676e781A523b5d0C0e43731313A708CB607508"
  ],
  "solcInputHash": "0ba4c4105039ab960ca4f8b82189a6c3",
  "bytecode": "0x608060405234801561001057600080fd5b506040516102123803806102128339818101604052810190610032919061008d565b806000806101000a81548173ffffffffffffffffffffffffffffffffffffffff021916908373ffffffffffffffffffffffffffffffffffffffff16021790555050610108565b600081519050610087816100f1565b92915050565b6000602082840312156100a3576100a26100ec565b5b60006100b184828501610078565b91505092915050565b60006100c5826100cc565b9050919050565b600073ffffffffffffffffffffffffffffffffffffffff82169050919050565b600080fd5b6100fa816100ba565b811461010557600080fd5b50565b60fc806101166000396000f3fe6080604052348015600f57600080fd5b506004361060285760003560e01c8063ef3bac5e14602d575b600080fd5b60336047565b604051603e9190607d565b60405180910390f35b60008060009054906101000a900473ffffffffffffffffffffffffffffffffffffffff16905090565b6077816096565b82525050565b6000602082019050609060008301846070565b92915050565b6000609f8260a6565b9050919050565b600073ffffffffffffffffffffffffffffffffffffffff8216905091905056fea26469706673582212202fe829523adf9ca819de3248df53d7a81250d336ea15d428c05523624664fe6a64736f6c63430008070033",
  "devdoc": {
    "kind": "dev",
    "methods": {
      "getWrappedNativeAddr()": {
        "details": "Add more token to the lending pool. Hope to get some good returns."
      }
    },
    "version": 1
  },
  "userdoc": {
    "kind": "user",
    "methods": {},
    "version": 1
  },
  "storageLayout": {
    "storage": [
      {
        "astId": 9117,
        "contract": "cache/solpp-generated-contracts/mocks/Config.sol:Config",
        "label": "WBNB",
        "offset": 0,
        "slot": "0",
        "type": "t_address"
      }
    ],
    "types": {
      "t_address": {
        "encoding": "inplace",
        "label": "address",
        "numberOfBytes": "20"
      }
    }
  }
}