{
  "address": "0x959922bE3CAee4b8Cd9a407cc3ac1C251C2007B1",
  "abi": [
    {
      "inputs": [
        {
          "internalType": "address",
          "name": "",
          "type": "address"
        },
        {
          "internalType": "uint256",
          "name": "",
          "type": "uint256"
        },
        {
          "internalType": "uint256",
          "name": "_amount",
          "type": "uint256"
        }
      ],
      "name": "deposit",
      "outputs": [],
      "stateMutability": "nonpayable",
      "type": "function"
    },
    {
      "inputs": [
        {
          "internalType": "uint256",
          "name": "",
          "type": "uint256"
        }
      ],
      "name": "harvest",
      "outputs": [],
      "stateMutability": "nonpayable",
      "type": "function"
    },
    {
      "inputs": [
        {
          "internalType": "address",
          "name": "_for",
          "type": "address"
        },
        {
          "internalType": "uint256",
          "name": "_pid",
          "type": "uint256"
        },
        {
          "internalType": "uint256",
          "name": "_amount",
          "type": "uint256"
        }
      ],
      "name": "withdraw",
      "outputs": [],
      "stateMutability": "nonpayable",
      "type": "function"
    }
  ],
  "transactionHash": "0xa9fcac686293075f2f018fb8ca64aea2aa889c79ef9d72677b759a4beaf5aeda",
  "args": [],
  "solcInputHash": "84ef5644c902bb1e12b4215444b580ea",
  "bytecode": "0x608060405234801561001057600080fd5b506109cf806100206000396000f3fe608060405234801561001057600080fd5b50600436106100415760003560e01c80630efe6a8b14610046578063b5c5f67214610062578063ddc632621461007e575b600080fd5b610060600480360381019061005b9190610533565b61009a565b005b61007c60048036038101906100779190610533565b6100e0565b005b610098600480360381019061009391906105b3565b6100f0565b005b6100db33308373959922be3caee4b8cd9a407cc3ac1c251c2007b173ffffffffffffffffffffffffffffffffffffffff16610134909392919063ffffffff16565b505050565b6100eb8383836101bd565b505050565b610131336101f4739fe46736679d2d9a65f0992f2272de9f3c7fa6e073ffffffffffffffffffffffffffffffffffffffff166102019092919063ffffffff16565b50565b6101b7846323b872dd60e01b858585604051602401610155939291906106e8565b604051602081830303815290604052907bffffffffffffffffffffffffffffffffffffffffffffffffffffffff19166020820180517bffffffffffffffffffffffffffffffffffffffffffffffffffffffff8381831617835250505050610287565b50505050565b6101fc338273959922be3caee4b8cd9a407cc3ac1c251c2007b173ffffffffffffffffffffffffffffffffffffffff166102019092919063ffffffff16565b505050565b6102828363a9059cbb60e01b848460405160240161022092919061071f565b604051602081830303815290604052907bffffffffffffffffffffffffffffffffffffffffffffffffffffffff19166020820180517bffffffffffffffffffffffffffffffffffffffffffffffffffffffff8381831617835250505050610287565b505050565b60006102e9826040518060400160405280602081526020017f5361666545524332303a206c6f772d6c6576656c2063616c6c206661696c65648152508573ffffffffffffffffffffffffffffffffffffffff1661034e9092919063ffffffff16565b905060008151111561034957808060200190518101906103099190610586565b610348576040517f08c379a000000000000000000000000000000000000000000000000000000000815260040161033f906107aa565b60405180910390fd5b5b505050565b606061035d8484600085610366565b90509392505050565b6060824710156103ab576040517f08c379a00000000000000000000000000000000000000000000000000000000081526004016103a29061076a565b60405180910390fd5b6103b48561047a565b6103f3576040517f08c379a00000000000000000000000000000000000000000000000000000000081526004016103ea9061078a565b60405180910390fd5b6000808673ffffffffffffffffffffffffffffffffffffffff16858760405161041c91906106d1565b60006040518083038185875af1925050503d8060008114610459576040519150601f19603f3d011682016040523d82523d6000602084013e61045e565b606091505b509150915061046e82828661048d565b92505050949350505050565b600080823b905060008111915050919050565b6060831561049d578290506104ed565b6000835111156104b05782518084602001fd5b816040517f08c379a00000000000000000000000000000000000000000000000000000000081526004016104e49190610748565b60405180910390fd5b9392505050565b60008135905061050381610954565b92915050565b6000815190506105188161096b565b92915050565b60008135905061052d81610982565b92915050565b60008060006060848603121561054c5761054b610877565b5b600061055a868287016104f4565b935050602061056b8682870161051e565b925050604061057c8682870161051e565b9150509250925092565b60006020828403121561059c5761059b610877565b5b60006105aa84828501610509565b91505092915050565b6000602082840312156105c9576105c8610877565b5b60006105d78482850161051e565b91505092915050565b6105e9816107fc565b82525050565b60006105fa826107ca565b61060481856107e0565b9350610614818560208601610844565b80840191505092915050565b600061062b826107d5565b61063581856107eb565b9350610645818560208601610844565b61064e8161087c565b840191505092915050565b60006106666026836107eb565b91506106718261088d565b604082019050919050565b6000610689601d836107eb565b9150610694826108dc565b602082019050919050565b60006106ac602a836107eb565b91506106b782610905565b604082019050919050565b6106cb8161083a565b82525050565b60006106dd82846105ef565b915081905092915050565b60006060820190506106fd60008301866105e0565b61070a60208301856105e0565b61071760408301846106c2565b949350505050565b600060408201905061073460008301856105e0565b61074160208301846106c2565b9392505050565b600060208201905081810360008301526107628184610620565b905092915050565b6000602082019050818103600083015261078381610659565b9050919050565b600060208201905081810360008301526107a38161067c565b9050919050565b600060208201905081810360008301526107c38161069f565b9050919050565b600081519050919050565b600081519050919050565b600081905092915050565b600082825260208201905092915050565b60006108078261081a565b9050919050565b60008115159050919050565b600073ffffffffffffffffffffffffffffffffffffffff82169050919050565b6000819050919050565b60005b83811015610862578082015181840152602081019050610847565b83811115610871576000848401525b50505050565b600080fd5b6000601f19601f8301169050919050565b7f416464726573733a20696e73756666696369656e742062616c616e636520666f60008201527f722063616c6c0000000000000000000000000000000000000000000000000000602082015250565b7f416464726573733a2063616c6c20746f206e6f6e2d636f6e7472616374000000600082015250565b7f5361666545524332303a204552433230206f7065726174696f6e20646964206e60008201527f6f74207375636365656400000000000000000000000000000000000000000000602082015250565b61095d816107fc565b811461096857600080fd5b50565b6109748161080e565b811461097f57600080fd5b50565b61098b8161083a565b811461099657600080fd5b5056fea26469706673582212201540a4b4b00ce1c36f76e2f83e9e048e74ea23e3d78aa5ed0b2c993951c5f7ee64736f6c63430008070033",
  "devdoc": {
    "kind": "dev",
    "methods": {},
    "version": 1
  },
  "userdoc": {
    "kind": "user",
    "methods": {},
    "version": 1
  },
  "storageLayout": {
    "storage": [],
    "types": null
  }
}