{
  "address": "0x76c3Be03D0b59878654693578D211A50B5396051",
  "abi": [
    {
      "inputs": [
        {
          "internalType": "address",
          "name": "_bankAddress",
          "type": "address"
        },
        {
          "internalType": "address",
          "name": "_rewardToken",
          "type": "address"
        },
        {
          "internalType": "uint256",
          "name": "_rewardPerBlock",
          "type": "uint256"
        },
        {
          "internalType": "uint256",
          "name": "_startBlock",
          "type": "uint256"
        }
      ],
      "stateMutability": "nonpayable",
      "type": "constructor"
    },
    {
      "anonymous": false,
      "inputs": [
        {
          "indexed": true,
          "internalType": "address",
          "name": "user",
          "type": "address"
        },
        {
          "indexed": true,
          "internalType": "uint256",
          "name": "pid",
          "type": "uint256"
        },
        {
          "indexed": false,
          "internalType": "uint256",
          "name": "amount",
          "type": "uint256"
        }
      ],
      "name": "Deposit",
      "type": "event"
    },
    {
      "anonymous": false,
      "inputs": [
        {
          "indexed": true,
          "internalType": "address",
          "name": "user",
          "type": "address"
        },
        {
          "indexed": true,
          "internalType": "uint256",
          "name": "pid",
          "type": "uint256"
        },
        {
          "indexed": false,
          "internalType": "uint256",
          "name": "amount",
          "type": "uint256"
        }
      ],
      "name": "Harvest",
      "type": "event"
    },
    {
      "anonymous": false,
      "inputs": [
        {
          "indexed": true,
          "internalType": "address",
          "name": "previousOwner",
          "type": "address"
        },
        {
          "indexed": true,
          "internalType": "address",
          "name": "newOwner",
          "type": "address"
        }
      ],
      "name": "OwnershipTransferred",
      "type": "event"
    },
    {
      "anonymous": false,
      "inputs": [
        {
          "indexed": false,
          "internalType": "address",
          "name": "oldProvider",
          "type": "address"
        },
        {
          "indexed": false,
          "internalType": "uint256",
          "name": "oldApi",
          "type": "uint256"
        },
        {
          "indexed": false,
          "internalType": "address",
          "name": "newProvider",
          "type": "address"
        },
        {
          "indexed": false,
          "internalType": "uint256",
          "name": "newApi",
          "type": "uint256"
        }
      ],
      "name": "Provider",
      "type": "event"
    },
    {
      "anonymous": false,
      "inputs": [
        {
          "indexed": true,
          "internalType": "address",
          "name": "user",
          "type": "address"
        },
        {
          "indexed": true,
          "internalType": "uint256",
          "name": "pid",
          "type": "uint256"
        },
        {
          "indexed": false,
          "internalType": "uint256",
          "name": "amount",
          "type": "uint256"
        }
      ],
      "name": "Withdraw",
      "type": "event"
    },
    {
      "stateMutability": "payable",
      "type": "fallback"
    },
    {
      "inputs": [],
      "name": "ROUTER_ADDRESS",
      "outputs": [
        {
          "internalType": "address",
          "name": "",
          "type": "address"
        }
      ],
      "stateMutability": "view",
      "type": "function"
    },
    {
      "inputs": [
        {
          "internalType": "uint256",
          "name": "_allocPoint",
          "type": "uint256"
        },
        {
          "internalType": "contract IERC20",
          "name": "_lpToken",
          "type": "address"
        },
        {
          "internalType": "bool",
          "name": "_withUpdate",
          "type": "bool"
        }
      ],
      "name": "add",
      "outputs": [],
      "stateMutability": "nonpayable",
      "type": "function"
    },
    {
      "inputs": [
        {
          "internalType": "uint256",
          "name": "_pid",
          "type": "uint256"
        },
        {
          "internalType": "uint256",
          "name": "_amount",
          "type": "uint256"
        },
        {
          "internalType": "uint256",
          "name": "_amountTokenMin",
          "type": "uint256"
        },
        {
          "internalType": "uint256",
          "name": "_amountETHMin",
          "type": "uint256"
        },
        {
          "internalType": "uint256",
          "name": "_minAmountOut",
          "type": "uint256"
        },
        {
          "internalType": "address",
          "name": "_from",
          "type": "address"
        },
        {
          "internalType": "uint256",
          "name": "_deadline",
          "type": "uint256"
        }
      ],
      "name": "autoDeposit",
      "outputs": [],
      "stateMutability": "payable",
      "type": "function"
    },
    {
      "inputs": [],
      "name": "bankAddress",
      "outputs": [
        {
          "internalType": "address",
          "name": "",
          "type": "address"
        }
      ],
      "stateMutability": "view",
      "type": "function"
    },
    {
      "inputs": [
        {
          "internalType": "uint256",
          "name": "_pid",
          "type": "uint256"
        },
        {
          "internalType": "uint256",
          "name": "_amountAMin",
          "type": "uint256"
        },
        {
          "internalType": "uint256",
          "name": "_amountBMin",
          "type": "uint256"
        },
        {
          "internalType": "uint256",
          "name": "_minAmountOutA",
          "type": "uint256"
        },
        {
          "internalType": "uint256",
          "name": "_deadline",
          "type": "uint256"
        }
      ],
      "name": "claimAndDeposit",
      "outputs": [],
      "stateMutability": "payable",
      "type": "function"
    },
    {
      "inputs": [
        {
          "internalType": "uint256",
          "name": "_pid",
          "type": "uint256"
        },
        {
          "internalType": "uint256",
          "name": "_amount",
          "type": "uint256"
        }
      ],
      "name": "deposit",
      "outputs": [],
      "stateMutability": "nonpayable",
      "type": "function"
    },
    {
      "inputs": [
        {
          "internalType": "uint256",
          "name": "_from",
          "type": "uint256"
        },
        {
          "internalType": "uint256",
          "name": "_to",
          "type": "uint256"
        }
      ],
      "name": "getMultiplier",
      "outputs": [
        {
          "internalType": "uint256",
          "name": "",
          "type": "uint256"
        }
      ],
      "stateMutability": "view",
      "type": "function"
    },
    {
      "inputs": [
        {
          "internalType": "uint256",
          "name": "_pid",
          "type": "uint256"
        }
      ],
      "name": "harvest",
      "outputs": [],
      "stateMutability": "nonpayable",
      "type": "function"
    },
    {
      "inputs": [],
      "name": "harvestAll",
      "outputs": [],
      "stateMutability": "nonpayable",
      "type": "function"
    },
    {
      "inputs": [
        {
          "internalType": "address",
          "name": "",
          "type": "address"
        }
      ],
      "name": "isPoolExist",
      "outputs": [
        {
          "internalType": "bool",
          "name": "",
          "type": "bool"
        }
      ],
      "stateMutability": "view",
      "type": "function"
    },
    {
      "inputs": [],
      "name": "liquidityProvider",
      "outputs": [
        {
          "internalType": "contract ILiquidityProvider",
          "name": "",
          "type": "address"
        }
      ],
      "stateMutability": "view",
      "type": "function"
    },
    {
      "inputs": [],
      "name": "liquidityProviderApiId",
      "outputs": [
        {
          "internalType": "uint256",
          "name": "",
          "type": "uint256"
        }
      ],
      "stateMutability": "view",
      "type": "function"
    },
    {
      "inputs": [],
      "name": "massUpdatePools",
      "outputs": [],
      "stateMutability": "nonpayable",
      "type": "function"
    },
    {
      "inputs": [],
      "name": "owner",
      "outputs": [
        {
          "internalType": "address",
          "name": "",
          "type": "address"
        }
      ],
      "stateMutability": "view",
      "type": "function"
    },
    {
      "inputs": [
        {
          "internalType": "uint256",
          "name": "_pid",
          "type": "uint256"
        },
        {
          "internalType": "address",
          "name": "_user",
          "type": "address"
        }
      ],
      "name": "pendingReward",
      "outputs": [
        {
          "internalType": "uint256",
          "name": "",
          "type": "uint256"
        }
      ],
      "stateMutability": "view",
      "type": "function"
    },
    {
      "inputs": [
        {
          "internalType": "address",
          "name": "_user",
          "type": "address"
        }
      ],
      "name": "pendingRewardTotal",
      "outputs": [
        {
          "internalType": "uint256",
          "name": "total",
          "type": "uint256"
        }
      ],
      "stateMutability": "view",
      "type": "function"
    },
    {
      "inputs": [
        {
          "internalType": "uint256",
          "name": "",
          "type": "uint256"
        }
      ],
      "name": "poolInfo",
      "outputs": [
        {
          "internalType": "contract IERC20",
          "name": "lpToken",
          "type": "address"
        },
        {
          "internalType": "uint256",
          "name": "allocPoint",
          "type": "uint256"
        },
        {
          "internalType": "uint256",
          "name": "lastRewardBlock",
          "type": "uint256"
        },
        {
          "internalType": "uint256",
          "name": "accRewardPerShare",
          "type": "uint256"
        }
      ],
      "stateMutability": "view",
      "type": "function"
    },
    {
      "inputs": [],
      "name": "poolLength",
      "outputs": [
        {
          "internalType": "uint256",
          "name": "",
          "type": "uint256"
        }
      ],
      "stateMutability": "view",
      "type": "function"
    },
    {
      "inputs": [],
      "name": "renounceOwnership",
      "outputs": [],
      "stateMutability": "nonpayable",
      "type": "function"
    },
    {
      "inputs": [],
      "name": "rewardPerBlock",
      "outputs": [
        {
          "internalType": "uint256",
          "name": "",
          "type": "uint256"
        }
      ],
      "stateMutability": "view",
      "type": "function"
    },
    {
      "inputs": [],
      "name": "rewardToken",
      "outputs": [
        {
          "internalType": "contract IERC20",
          "name": "",
          "type": "address"
        }
      ],
      "stateMutability": "view",
      "type": "function"
    },
    {
      "inputs": [
        {
          "internalType": "uint256",
          "name": "",
          "type": "uint256"
        }
      ],
      "name": "rewardTokenToWBNB",
      "outputs": [
        {
          "internalType": "address",
          "name": "",
          "type": "address"
        }
      ],
      "stateMutability": "view",
      "type": "function"
    },
    {
      "inputs": [
        {
          "internalType": "uint256",
          "name": "_pid",
          "type": "uint256"
        },
        {
          "internalType": "uint256",
          "name": "_allocPoint",
          "type": "uint256"
        },
        {
          "internalType": "bool",
          "name": "_withUpdate",
          "type": "bool"
        }
      ],
      "name": "set",
      "outputs": [],
      "stateMutability": "nonpayable",
      "type": "function"
    },
    {
      "inputs": [],
      "name": "setRewardPerBlock",
      "outputs": [],
      "stateMutability": "nonpayable",
      "type": "function"
    },
    {
      "inputs": [
        {
          "internalType": "contract IERC20",
          "name": "_rewardToken",
          "type": "address"
        }
      ],
      "name": "setRewardToken",
      "outputs": [],
      "stateMutability": "nonpayable",
      "type": "function"
    },
    {
      "inputs": [
        {
          "internalType": "uint256",
          "name": "_pid",
          "type": "uint256"
        },
        {
          "internalType": "uint256",
          "name": "_tokenAmount",
          "type": "uint256"
        },
        {
          "internalType": "uint256",
          "name": "_amountAMin",
          "type": "uint256"
        },
        {
          "internalType": "uint256",
          "name": "_amountBMin",
          "type": "uint256"
        },
        {
          "internalType": "uint256",
          "name": "_minAmountOutA",
          "type": "uint256"
        },
        {
          "internalType": "uint256",
          "name": "_deadline",
          "type": "uint256"
        }
      ],
      "name": "speedStake",
      "outputs": [],
      "stateMutability": "payable",
      "type": "function"
    },
    {
      "inputs": [],
      "name": "startBlock",
      "outputs": [
        {
          "internalType": "uint256",
          "name": "",
          "type": "uint256"
        }
      ],
      "stateMutability": "view",
      "type": "function"
    },
    {
      "inputs": [],
      "name": "totalAllocPoint",
      "outputs": [
        {
          "internalType": "uint256",
          "name": "",
          "type": "uint256"
        }
      ],
      "stateMutability": "view",
      "type": "function"
    },
    {
      "inputs": [
        {
          "internalType": "address",
          "name": "newOwner",
          "type": "address"
        }
      ],
      "name": "transferOwnership",
      "outputs": [],
      "stateMutability": "nonpayable",
      "type": "function"
    },
    {
      "inputs": [
        {
          "internalType": "uint256",
          "name": "_pid",
          "type": "uint256"
        }
      ],
      "name": "updatePool",
      "outputs": [],
      "stateMutability": "nonpayable",
      "type": "function"
    },
    {
      "inputs": [
        {
          "internalType": "uint256",
          "name": "",
          "type": "uint256"
        },
        {
          "internalType": "address",
          "name": "",
          "type": "address"
        }
      ],
      "name": "userInfo",
      "outputs": [
        {
          "internalType": "uint256",
          "name": "amount",
          "type": "uint256"
        },
        {
          "internalType": "uint256",
          "name": "rewardDebt",
          "type": "uint256"
        }
      ],
      "stateMutability": "view",
      "type": "function"
    },
    {
      "inputs": [],
      "name": "wbnbAddress",
      "outputs": [
        {
          "internalType": "address",
          "name": "",
          "type": "address"
        }
      ],
      "stateMutability": "view",
      "type": "function"
    },
    {
      "inputs": [
        {
          "internalType": "uint256",
          "name": "_pid",
          "type": "uint256"
        },
        {
          "internalType": "uint256",
          "name": "_amount",
          "type": "uint256"
        }
      ],
      "name": "withdraw",
      "outputs": [],
      "stateMutability": "nonpayable",
      "type": "function"
    },
    {
      "stateMutability": "payable",
      "type": "receive"
    }
  ],
  "transactionHash": "0x905f46c862eb851f435aca99ad3e4dd0f9d29996e2008cdbc407caf84f2489ef",
  "args": [
    "0xa4e2d8701aD26d4613E22cDF2BC709AFaC99A382",
    "0x83bCE25f327D397b104a7DE43Bd3191F89bf6955",
    "25728640000000000000",
    "11534948"
  ],
  "solcInputHash": "caebb102e5ab54931b511ccb27e650d0",
  "bytecode": "0x6080604052732b1c93ffff55e2620d6fb5dad7d69a6a468c9731600960006101000a81548173ffffffffffffffffffffffffffffffffffffffff021916908373ffffffffffffffffffffffffffffffffffffffff1602179055506001600a553480156200006b57600080fd5b5060405162004f5438038062004f54833981810160405281019062000091919062000574565b620000b1620000a56200028d60201b60201c565b6200029560201b60201c565b60018081905550600073ffffffffffffffffffffffffffffffffffffffff168373ffffffffffffffffffffffffffffffffffffffff1614156200012b576040517f08c379a000000000000000000000000000000000000000000000000000000000815260040162000122906200069f565b60405180910390fd5b83600b60006101000a81548173ffffffffffffffffffffffffffffffffffffffff021916908373ffffffffffffffffffffffffffffffffffffffff16021790555082600260006101000a81548173ffffffffffffffffffffffffffffffffffffffff021916908373ffffffffffffffffffffffffffffffffffffffff16021790555081600381905550806008819055506003600d8190555080600e8190555060405180604001604052808473ffffffffffffffffffffffffffffffffffffffff1673ffffffffffffffffffffffffffffffffffffffff16815260200173bb4cdb9cbd36b01bd1cbaebf2de08d9173bc095c73ffffffffffffffffffffffffffffffffffffffff1673ffffffffffffffffffffffffffffffffffffffff16815250600c9060026200025d92919062000498565b506200028373f39fd6e51aad88f6f4ce6ab8827279cfffb922666200035960201b60201c565b50505050620007ea565b600033905090565b60008060009054906101000a900473ffffffffffffffffffffffffffffffffffffffff169050816000806101000a81548173ffffffffffffffffffffffffffffffffffffffff021916908373ffffffffffffffffffffffffffffffffffffffff1602179055508173ffffffffffffffffffffffffffffffffffffffff168173ffffffffffffffffffffffffffffffffffffffff167f8be0079c531659141344cd1fd0a4f28419497f9722a3daafe3b4186f6b6457e060405160405180910390a35050565b620003696200028d60201b60201c565b73ffffffffffffffffffffffffffffffffffffffff166200038f6200046f60201b60201c565b73ffffffffffffffffffffffffffffffffffffffff1614620003e8576040517f08c379a0000000000000000000000000000000000000000000000000000000008152600401620003df906200067d565b60405180910390fd5b600073ffffffffffffffffffffffffffffffffffffffff168173ffffffffffffffffffffffffffffffffffffffff1614156200045b576040517f08c379a000000000000000000000000000000000000000000000000000000000815260040162000452906200065b565b60405180910390fd5b6200046c816200029560201b60201c565b50565b60008060009054906101000a900473ffffffffffffffffffffffffffffffffffffffff16905090565b82805482825590600052602060002090810192821562000514579160200282015b82811115620005135782518260006101000a81548173ffffffffffffffffffffffffffffffffffffffff021916908373ffffffffffffffffffffffffffffffffffffffff16021790555091602001919060010190620004b9565b5b50905062000523919062000527565b5090565b5b808211156200054257600081600090555060010162000528565b5090565b6000815190506200055781620007b6565b92915050565b6000815190506200056e81620007d0565b92915050565b6000806000806080858703121562000591576200059062000710565b5b6000620005a18782880162000546565b9450506020620005b48782880162000546565b9350506040620005c7878288016200055d565b9250506060620005da878288016200055d565b91505092959194509250565b6000620005f5602683620006c1565b9150620006028262000715565b604082019050919050565b60006200061c602083620006c1565b9150620006298262000764565b602082019050919050565b600062000643601c83620006c1565b915062000650826200078d565b602082019050919050565b600060208201905081810360008301526200067681620005e6565b9050919050565b6000602082019050818103600083015262000698816200060d565b9050919050565b60006020820190508181036000830152620006ba8162000634565b9050919050565b600082825260208201905092915050565b6000620006df82620006e6565b9050919050565b600073ffffffffffffffffffffffffffffffffffffffff82169050919050565b6000819050919050565b600080fd5b7f4f776e61626c653a206e6577206f776e657220697320746865207a65726f206160008201527f6464726573730000000000000000000000000000000000000000000000000000602082015250565b7f4f776e61626c653a2063616c6c6572206973206e6f7420746865206f776e6572600082015250565b7f47796d4661726d696e673a3a5345545f5a45524f5f4144445245535300000000600082015250565b620007c181620006d2565b8114620007cd57600080fd5b50565b620007db8162000706565b8114620007e757600080fd5b50565b61475a80620007fa6000396000f3fe6080604052600436106101f25760003560e01c80637822ed491161010d57806393f1a40b116100a0578063ddc632621161006f578063ddc63262146106aa578063e2bbb158146106d3578063e76f0cc1146106fc578063f2fde38b14610727578063f7c618c114610750576101f9565b806393f1a40b146105c757806398969e8214610605578063a68fb3b614610642578063b94a6dfe1461067f576101f9565b80638aee8127116100dc5780638aee81271461051f5780638da5cb5b146105485780638dbb1e3a146105735780638ed955b9146105b0576101f9565b80637822ed4914610491578063889dbba6146104bc5780638a9c8177146104d85780638ae39cac146104f4576101f9565b806348cd4cb111610185578063630b5ba111610154578063630b5ba11461040f57806363fe3e3a1461042657806364482f7914610451578063715018a61461047a576101f9565b806348cd4cb11461035357806351eb05a61461037e5780635319c877146103a75780635b8bec55146103e4576101f9565b8063387ad173116101c1578063387ad173146102ba578063419bb796146102f7578063441a3e7014610313578063442b0fe11461033c576101f9565b8063081e3eda146101fb5780631526fe271461022657806317caf6f1146102665780631eaaa04514610291576101f9565b366101f957005b005b34801561020757600080fd5b5061021061077b565b60405161021d9190613ebe565b60405180910390f35b34801561023257600080fd5b5061024d60048036038101906102489190613511565b610788565b60405161025d9493929190613c8d565b60405180910390f35b34801561027257600080fd5b5061027b6107e8565b6040516102889190613ebe565b60405180910390f35b34801561029d57600080fd5b506102b860048036038101906102b391906135ab565b6107ee565b005b3480156102c657600080fd5b506102e160048036038101906102dc9190613511565b610a5e565b6040516102ee9190613b6d565b60405180910390f35b610311600480360381019061030c919061370c565b610a9d565b005b34801561031f57600080fd5b5061033a600480360381019061033591906135fe565b610e96565b005b34801561034857600080fd5b5061035161112b565b005b34801561035f57600080fd5b50610368611220565b6040516103759190613ebe565b60405180910390f35b34801561038a57600080fd5b506103a560048036038101906103a09190613511565b611226565b005b3480156103b357600080fd5b506103ce60048036038101906103c99190613414565b6113a1565b6040516103db9190613c57565b60405180910390f35b3480156103f057600080fd5b506103f96113c1565b6040516104069190613cd2565b60405180910390f35b34801561041b57600080fd5b506104246113e7565b005b34801561043257600080fd5b5061043b61141a565b6040516104489190613b6d565b60405180910390f35b34801561045d57600080fd5b506104786004803603810190610473919061363e565b611432565b005b34801561048657600080fd5b5061048f611579565b005b34801561049d57600080fd5b506104a6611601565b6040516104b39190613b6d565b60405180910390f35b6104d660048036038101906104d19190613691565b611627565b005b6104f260048036038101906104ed91906137ae565b611a2d565b005b34801561050057600080fd5b50610509612329565b6040516105169190613ebe565b60405180910390f35b34801561052b57600080fd5b50610546600480360381019061054191906134e4565b61232f565b005b34801561055457600080fd5b5061055d6123ef565b60405161056a9190613b6d565b60405180910390f35b34801561057f57600080fd5b5061059a600480360381019061059591906135fe565b612418565b6040516105a79190613ebe565b60405180910390f35b3480156105bc57600080fd5b506105c561243b565b005b3480156105d357600080fd5b506105ee60048036038101906105e9919061356b565b61249f565b6040516105fc929190613f8d565b60405180910390f35b34801561061157600080fd5b5061062c6004803603810190610627919061356b565b6124d0565b6040516106399190613ebe565b60405180910390f35b34801561064e57600080fd5b5061066960048036038101906106649190613414565b612708565b6040516106769190613ebe565b60405180910390f35b34801561068b57600080fd5b5061069461274d565b6040516106a19190613b6d565b60405180910390f35b3480156106b657600080fd5b506106d160048036038101906106cc9190613511565b612765565b005b3480156106df57600080fd5b506106fa60048036038101906106f591906135fe565b6127bb565b005b34801561070857600080fd5b5061071161288e565b60405161071e9190613ebe565b60405180910390f35b34801561073357600080fd5b5061074e60048036038101906107499190613414565b612894565b005b34801561075c57600080fd5b5061076561298c565b6040516107729190613c72565b60405180910390f35b6000600480549050905090565b6004818154811061079857600080fd5b90600052602060002090600402016000915090508060000160009054906101000a900473ffffffffffffffffffffffffffffffffffffffff16908060010154908060020154908060030154905084565b60075481565b6107f66129b2565b73ffffffffffffffffffffffffffffffffffffffff166108146123ef565b73ffffffffffffffffffffffffffffffffffffffff161461086a576040517f08c379a000000000000000000000000000000000000000000000000000000000815260040161086190613e3e565b60405180910390fd5b600660008373ffffffffffffffffffffffffffffffffffffffff1673ffffffffffffffffffffffffffffffffffffffff16815260200190815260200160002060009054906101000a900460ff16156108f7576040517f08c379a00000000000000000000000000000000000000000000000000000000081526004016108ee90613d9e565b60405180910390fd5b8015610906576109056113e7565b5b600060085443116109195760085461091b565b435b9050836007600082825461092f91906140f9565b92505081905550600460405180608001604052808573ffffffffffffffffffffffffffffffffffffffff1681526020018681526020018381526020016000815250908060018154018082558091505060019003906000526020600020906004020160009091909190915060008201518160000160006101000a81548173ffffffffffffffffffffffffffffffffffffffff021916908373ffffffffffffffffffffffffffffffffffffffff16021790555060208201518160010155604082015181600201556060820151816003015550506001600660008573ffffffffffffffffffffffffffffffffffffffff1673ffffffffffffffffffffffffffffffffffffffff16815260200190815260200160002060006101000a81548160ff02191690831515021790555050505050565b600c8181548110610a6e57600080fd5b906000526020600020016000915054906101000a900473ffffffffffffffffffffffffffffffffffffffff1681565b866004805490508110610ae5576040517f08c379a0000000000000000000000000000000000000000000000000000000008152600401610adc90613e1e565b60405180910390fd5b600b60009054906101000a900473ffffffffffffffffffffffffffffffffffffffff1673ffffffffffffffffffffffffffffffffffffffff163373ffffffffffffffffffffffffffffffffffffffff1614610b75576040517f08c379a0000000000000000000000000000000000000000000000000000000008152600401610b6c90613d7e565b60405180910390fd5b610b7e88611226565b600260009054906101000a900473ffffffffffffffffffffffffffffffffffffffff1673ffffffffffffffffffffffffffffffffffffffff166323b872dd33308a6040518463ffffffff1660e01b8152600401610bdd93929190613b88565b602060405180830381600087803b158015610bf757600080fd5b505af1158015610c0b573d6000803e3d6000fd5b505050506040513d601f19601f82011682018060405250810190610c2f91906134b7565b5060003447610c3e91906141da565b9050600260009054906101000a900473ffffffffffffffffffffffffffffffffffffffff1673ffffffffffffffffffffffffffffffffffffffff1663095ea7b37310ed43c718714eb63d5aa57b78b54704e256024e8a6040518363ffffffff1660e01b8152600401610cb1929190613c2e565b602060405180830381600087803b158015610ccb57600080fd5b505af1158015610cdf573d6000803e3d6000fd5b505050506040513d601f19601f82011682018060405250810190610d0391906134b7565b507310ed43c718714eb63d5aa57b78b54704e256024e73ffffffffffffffffffffffffffffffffffffffff1663791ac9478988600c30886040518663ffffffff1660e01b8152600401610d5a959493929190613fb6565b600060405180830381600087803b158015610d7457600080fd5b505af1158015610d88573d6000803e3d6000fd5b5050505060008147610d9a91906141da565b90506000600960009054906101000a900473ffffffffffffffffffffffffffffffffffffffff1673ffffffffffffffffffffffffffffffffffffffff16631804d37583600260009054906101000a900473ffffffffffffffffffffffffffffffffffffffff16308d8d8d8c600a546040518963ffffffff1660e01b8152600401610e2a9796959493929190613bbf565b6020604051808303818588803b158015610e4357600080fd5b505af1158015610e57573d6000803e3d6000fd5b50505050506040513d601f19601f82011682018060405250810190610e7c919061353e565b9050610e898b82886129ba565b5050505050505050505050565b816004805490508110610ede576040517f08c379a0000000000000000000000000000000000000000000000000000000008152600401610ed590613e1e565b60405180910390fd5b600060048481548110610ef457610ef3614419565b5b9060005260206000209060040201905060006005600086815260200190815260200160002060003373ffffffffffffffffffffffffffffffffffffffff1673ffffffffffffffffffffffffffffffffffffffff16815260200190815260200160002090508381600001541015610f9f576040517f08c379a0000000000000000000000000000000000000000000000000000000008152600401610f9690613e7e565b60405180910390fd5b610fa885611226565b60008160010154670de0b6b3a764000084600301548460000154610fcc9190614180565b610fd6919061414f565b610fe091906141da565b9050610fec3382612ad8565b853373ffffffffffffffffffffffffffffffffffffffff167f71bab65ced2e5750775a0613be067df48ef06cf92a496ebf7663ae0660924954836040516110339190613ebe565b60405180910390a38482600001600082825461104f91906141da565b92505081905550670de0b6b3a7640000836003015483600001546110739190614180565b61107d919061414f565b82600101819055506110d433868560000160009054906101000a900473ffffffffffffffffffffffffffffffffffffffff1673ffffffffffffffffffffffffffffffffffffffff16612d049092919063ffffffff16565b853373ffffffffffffffffffffffffffffffffffffffff167ff279e6a1f5e320cca91135676d9cb6e44ca8a08c0b88342bcdb1144f6511b5688760405161111b9190613ebe565b60405180910390a3505050505050565b6111336129b2565b73ffffffffffffffffffffffffffffffffffffffff166111516123ef565b73ffffffffffffffffffffffffffffffffffffffff16146111a7576040517f08c379a000000000000000000000000000000000000000000000000000000000815260040161119e90613e3e565b60405180910390fd5b6111af6113e7565b6014600e54436111bf91906141da565b1180156111ce57506000600d54115b1561121e5764e8d4a5100064e25cf5cf786003546111ec9190614180565b6111f6919061414f565b6003819055506001600d600082825461120f91906141da565b9250508190555043600e819055505b565b60085481565b60006004828154811061123c5761123b614419565b5b906000526020600020906004020190508060020154431161125d575061139e565b60008160000160009054906101000a900473ffffffffffffffffffffffffffffffffffffffff1673ffffffffffffffffffffffffffffffffffffffff166370a08231306040518263ffffffff1660e01b81526004016112bc9190613b6d565b60206040518083038186803b1580156112d457600080fd5b505afa1580156112e8573d6000803e3d6000fd5b505050506040513d601f19601f8201168201806040525081019061130c919061353e565b9050600081141561132757438260020181905550505061139e565b6000611337836002015443612418565b9050600060075484600101548361134e9190614180565b611358919061414f565b905082670de0b6b3a76400008261136f9190614180565b611379919061414f565b846003015461138891906140f9565b8460030181905550438460020181905550505050505b50565b60066020528060005260406000206000915054906101000a900460ff1681565b600960009054906101000a900473ffffffffffffffffffffffffffffffffffffffff1681565b6000600480549050905060005b818110156114165761140581611226565b8061140f90614372565b90506113f4565b5050565b73bb4cdb9cbd36b01bd1cbaebf2de08d9173bc095c81565b61143a6129b2565b73ffffffffffffffffffffffffffffffffffffffff166114586123ef565b73ffffffffffffffffffffffffffffffffffffffff16146114ae576040517f08c379a00000000000000000000000000000000000000000000000000000000081526004016114a590613e3e565b60405180910390fd5b8260048054905081106114f6576040517f08c379a00000000000000000000000000000000000000000000000000000000081526004016114ed90613e1e565b60405180910390fd5b8115611505576115046113e7565b5b826004858154811061151a57611519614419565b5b90600052602060002090600402016001015460075461153991906141da565b61154391906140f9565b600781905550826004858154811061155e5761155d614419565b5b90600052602060002090600402016001018190555050505050565b6115816129b2565b73ffffffffffffffffffffffffffffffffffffffff1661159f6123ef565b73ffffffffffffffffffffffffffffffffffffffff16146115f5576040517f08c379a00000000000000000000000000000000000000000000000000000000081526004016115ec90613e3e565b60405180910390fd5b6115ff6000612d8a565b565b600b60009054906101000a900473ffffffffffffffffffffffffffffffffffffffff1681565b84600480549050811061166f576040517f08c379a000000000000000000000000000000000000000000000000000000000815260040161166690613e1e565b60405180910390fd5b60006005600088815260200190815260200160002060003373ffffffffffffffffffffffffffffffffffffffff1673ffffffffffffffffffffffffffffffffffffffff168152602001908152602001600020905060007310ed43c718714eb63d5aa57b78b54704e256024e90506000349050600083600001541115611911576116f789611226565b600060048a8154811061170d5761170c614419565b5b906000526020600020906004020160030154905060008460010154670de0b6b3a76400008387600001546117419190614180565b61174b919061414f565b61175591906141da565b9050670de0b6b3a76400008286600001546117709190614180565b61177a919061414f565b8560010181905550600260009054906101000a900473ffffffffffffffffffffffffffffffffffffffff1673ffffffffffffffffffffffffffffffffffffffff1663095ea7b37310ed43c718714eb63d5aa57b78b54704e256024e836040518363ffffffff1660e01b81526004016117f3929190613c2e565b602060405180830381600087803b15801561180d57600080fd5b505af1158015611821573d6000803e3d6000fd5b505050506040513d601f19601f8201168201806040525081019061184591906134b7565b5060008473ffffffffffffffffffffffffffffffffffffffff166318cbafe5836000600c308d6040518663ffffffff1660e01b815260040161188b959493929190613f33565b600060405180830381600087803b1580156118a557600080fd5b505af11580156118b9573d6000803e3d6000fd5b505050506040513d6000823e3d601f19601f820116820180604052508101906118e2919061346e565b9050806001815181106118f8576118f7614419565b5b60200260200101518461190b91906140f9565b93505050505b6000600960009054906101000a900473ffffffffffffffffffffffffffffffffffffffff1673ffffffffffffffffffffffffffffffffffffffff1663501b35b58360048d8154811061196657611965614419565b5b906000526020600020906004020160000160009054906101000a900473ffffffffffffffffffffffffffffffffffffffff16308d8d8d8d600a546040518963ffffffff1660e01b81526004016119c29796959493929190613ced565b6020604051808303818588803b1580156119db57600080fd5b505af11580156119ef573d6000803e3d6000fd5b50505050506040513d601f19601f82011682018060405250810190611a14919061353e565b9050611a218a82336129ba565b50505050505050505050565b856004805490508110611a75576040517f08c379a0000000000000000000000000000000000000000000000000000000008152600401611a6c90613e1e565b60405180910390fd5b60007310ed43c718714eb63d5aa57b78b54704e256024e9050611a9788611226565b600060048981548110611aad57611aac614419565b5b906000526020600020906004020160000160009054906101000a900473ffffffffffffffffffffffffffffffffffffffff1690508173ffffffffffffffffffffffffffffffffffffffff1663ad5c46486040518163ffffffff1660e01b815260040160206040518083038186803b158015611b2757600080fd5b505afa158015611b3b573d6000803e3d6000fd5b505050506040513d601f19601f82011682018060405250810190611b5f9190613441565b73ffffffffffffffffffffffffffffffffffffffff168173ffffffffffffffffffffffffffffffffffffffff16630dfe16816040518163ffffffff1660e01b815260040160206040518083038186803b158015611bbb57600080fd5b505afa158015611bcf573d6000803e3d6000fd5b505050506040513d601f19601f82011682018060405250810190611bf39190613441565b73ffffffffffffffffffffffffffffffffffffffff161480611d3a57508173ffffffffffffffffffffffffffffffffffffffff1663ad5c46486040518163ffffffff1660e01b815260040160206040518083038186803b158015611c5657600080fd5b505afa158015611c6a573d6000803e3d6000fd5b505050506040513d601f19601f82011682018060405250810190611c8e9190613441565b73ffffffffffffffffffffffffffffffffffffffff168173ffffffffffffffffffffffffffffffffffffffff1663d21220a76040518163ffffffff1660e01b815260040160206040518083038186803b158015611cea57600080fd5b505afa158015611cfe573d6000803e3d6000fd5b505050506040513d601f19601f82011682018060405250810190611d229190613441565b73ffffffffffffffffffffffffffffffffffffffff16145b611d79576040517f08c379a0000000000000000000000000000000000000000000000000000000008152600401611d7090613dfe565b60405180910390fd5b600034905060008911156122515760008273ffffffffffffffffffffffffffffffffffffffff16630dfe16816040518163ffffffff1660e01b815260040160206040518083038186803b158015611dcf57600080fd5b505afa158015611de3573d6000803e3d6000fd5b505050506040513d601f19601f82011682018060405250810190611e079190613441565b90508373ffffffffffffffffffffffffffffffffffffffff1663ad5c46486040518163ffffffff1660e01b815260040160206040518083038186803b158015611e4f57600080fd5b505afa158015611e63573d6000803e3d6000fd5b505050506040513d601f19601f82011682018060405250810190611e879190613441565b73ffffffffffffffffffffffffffffffffffffffff168373ffffffffffffffffffffffffffffffffffffffff16630dfe16816040518163ffffffff1660e01b815260040160206040518083038186803b158015611ee357600080fd5b505afa158015611ef7573d6000803e3d6000fd5b505050506040513d601f19601f82011682018060405250810190611f1b9190613441565b73ffffffffffffffffffffffffffffffffffffffff161415611fb8578273ffffffffffffffffffffffffffffffffffffffff1663d21220a76040518163ffffffff1660e01b815260040160206040518083038186803b158015611f7d57600080fd5b505afa158015611f91573d6000803e3d6000fd5b505050506040513d601f19601f82011682018060405250810190611fb59190613441565b90505b6000600267ffffffffffffffff811115611fd557611fd4614448565b5b6040519080825280602002602001820160405280156120035781602001602082028036833780820191505090505b509050818160008151811061201b5761201a614419565b5b602002602001019073ffffffffffffffffffffffffffffffffffffffff16908173ffffffffffffffffffffffffffffffffffffffff168152505073bb4cdb9cbd36b01bd1cbaebf2de08d9173bc095c8160018151811061207e5761207d614419565b5b602002602001019073ffffffffffffffffffffffffffffffffffffffff16908173ffffffffffffffffffffffffffffffffffffffff16815250506120e533308d8573ffffffffffffffffffffffffffffffffffffffff16612e4e909392919063ffffffff16565b8173ffffffffffffffffffffffffffffffffffffffff1663095ea7b37310ed43c718714eb63d5aa57b78b54704e256024e8d6040518363ffffffff1660e01b8152600401612134929190613c2e565b602060405180830381600087803b15801561214e57600080fd5b505af1158015612162573d6000803e3d6000fd5b505050506040513d601f19601f8201168201806040525081019061218691906134b7565b5060008573ffffffffffffffffffffffffffffffffffffffff166318cbafe58d600085308d6040518663ffffffff1660e01b81526004016121cb959493929190613ed9565b600060405180830381600087803b1580156121e557600080fd5b505af11580156121f9573d6000803e3d6000fd5b505050506040513d6000823e3d601f19601f82011682018060405250810190612222919061346e565b90508060018151811061223857612237614419565b5b60200260200101518461224b91906140f9565b93505050505b6000600960009054906101000a900473ffffffffffffffffffffffffffffffffffffffff1673ffffffffffffffffffffffffffffffffffffffff1663501b35b58385308d8d8d8d600a546040518963ffffffff1660e01b81526004016122bd9796959493929190613ced565b6020604051808303818588803b1580156122d657600080fd5b505af11580156122ea573d6000803e3d6000fd5b50505050506040513d601f19601f8201168201806040525081019061230f919061353e565b905061231c8b82336129ba565b5050505050505050505050565b60035481565b6123376129b2565b73ffffffffffffffffffffffffffffffffffffffff166123556123ef565b73ffffffffffffffffffffffffffffffffffffffff16146123ab576040517f08c379a00000000000000000000000000000000000000000000000000000000081526004016123a290613e3e565b60405180910390fd5b80600260006101000a81548173ffffffffffffffffffffffffffffffffffffffff021916908373ffffffffffffffffffffffffffffffffffffffff16021790555050565b60008060009054906101000a900473ffffffffffffffffffffffffffffffffffffffff16905090565b6000828261242691906141da565b6003546124339190614180565b905092915050565b6000600480549050905060005b8181101561249b5760006004828154811061246657612465614419565b5b90600052602060002090600402016001015411156124885761248781612765565b5b808061249390614372565b915050612448565b5050565b6005602052816000526040600020602052806000526040600020600091509150508060000154908060010154905082565b600082600480549050811061251a576040517f08c379a000000000000000000000000000000000000000000000000000000000815260040161251190613e1e565b60405180910390fd5b6000600485815481106125305761252f614419565b5b9060005260206000209060040201905060006005600087815260200190815260200160002060008673ffffffffffffffffffffffffffffffffffffffff1673ffffffffffffffffffffffffffffffffffffffff168152602001908152602001600020905060008260030154905060008360000160009054906101000a900473ffffffffffffffffffffffffffffffffffffffff1673ffffffffffffffffffffffffffffffffffffffff166370a08231306040518263ffffffff1660e01b81526004016125fc9190613b6d565b60206040518083038186803b15801561261457600080fd5b505afa158015612628573d6000803e3d6000fd5b505050506040513d601f19601f8201168201806040525081019061264c919061353e565b9050836002015443118015612662575060008114155b156126c9576000612677856002015443612418565b9050600060075486600101548361268e9190614180565b612698919061414f565b905082670de0b6b3a7640000826126af9190614180565b6126b9919061414f565b846126c491906140f9565b935050505b8260010154670de0b6b3a76400008385600001546126e79190614180565b6126f1919061414f565b6126fb91906141da565b9550505050505092915050565b600080600480549050905060005b818110156127465761272881856124d0565b8361273391906140f9565b92508061273f90614372565b9050612716565b5050919050565b7310ed43c718714eb63d5aa57b78b54704e256024e81565b8060048054905081106127ad576040517f08c379a00000000000000000000000000000000000000000000000000000000081526004016127a490613e1e565b60405180910390fd5b6127b78233612ed7565b5050565b816004805490508110612803576040517f08c379a00000000000000000000000000000000000000000000000000000000081526004016127fa90613e1e565b60405180910390fd5b61280c83611226565b61287e3330846004878154811061282657612825614419565b5b906000526020600020906004020160000160009054906101000a900473ffffffffffffffffffffffffffffffffffffffff1673ffffffffffffffffffffffffffffffffffffffff16612e4e909392919063ffffffff16565b6128898383336129ba565b505050565b600a5481565b61289c6129b2565b73ffffffffffffffffffffffffffffffffffffffff166128ba6123ef565b73ffffffffffffffffffffffffffffffffffffffff1614612910576040517f08c379a000000000000000000000000000000000000000000000000000000000815260040161290790613e3e565b60405180910390fd5b600073ffffffffffffffffffffffffffffffffffffffff168173ffffffffffffffffffffffffffffffffffffffff161415612980576040517f08c379a000000000000000000000000000000000000000000000000000000000815260040161297790613dbe565b60405180910390fd5b61298981612d8a565b50565b600260009054906101000a900473ffffffffffffffffffffffffffffffffffffffff1681565b600033905090565b60006005600085815260200190815260200160002060008373ffffffffffffffffffffffffffffffffffffffff1673ffffffffffffffffffffffffffffffffffffffff1681526020019081526020016000209050612a188483612ed7565b82816000016000828254612a2c91906140f9565b92505081905550670de0b6b3a764000060048581548110612a5057612a4f614419565b5b9060005260206000209060040201600301548260000154612a719190614180565b612a7b919061414f565b8160010181905550838273ffffffffffffffffffffffffffffffffffffffff167f90890809c654f11d6e72a28fa60149770a0d11ec6c92319d6ceb2bb0a4ea1a1585604051612aca9190613ebe565b60405180910390a350505050565b6000811115612d00576000600260009054906101000a900473ffffffffffffffffffffffffffffffffffffffff1673ffffffffffffffffffffffffffffffffffffffff166370a08231306040518263ffffffff1660e01b8152600401612b3e9190613b6d565b60206040518083038186803b158015612b5657600080fd5b505afa158015612b6a573d6000803e3d6000fd5b505050506040513d601f19601f82011682018060405250810190612b8e919061353e565b905080821115612c4d57600260009054906101000a900473ffffffffffffffffffffffffffffffffffffffff1673ffffffffffffffffffffffffffffffffffffffff1663a9059cbb84836040518363ffffffff1660e01b8152600401612bf5929190613c2e565b602060405180830381600087803b158015612c0f57600080fd5b505af1158015612c23573d6000803e3d6000fd5b505050506040513d601f19601f82011682018060405250810190612c4791906134b7565b50612cfe565b600260009054906101000a900473ffffffffffffffffffffffffffffffffffffffff1673ffffffffffffffffffffffffffffffffffffffff1663a9059cbb84846040518363ffffffff1660e01b8152600401612caa929190613c2e565b602060405180830381600087803b158015612cc457600080fd5b505af1158015612cd8573d6000803e3d6000fd5b505050506040513d601f19601f82011682018060405250810190612cfc91906134b7565b505b505b5050565b612d858363a9059cbb60e01b8484604051602401612d23929190613c2e565b604051602081830303815290604052907bffffffffffffffffffffffffffffffffffffffffffffffffffffffff19166020820180517bffffffffffffffffffffffffffffffffffffffffffffffffffffffff8381831617835250505050613076565b505050565b60008060009054906101000a900473ffffffffffffffffffffffffffffffffffffffff169050816000806101000a81548173ffffffffffffffffffffffffffffffffffffffff021916908373ffffffffffffffffffffffffffffffffffffffff1602179055508173ffffffffffffffffffffffffffffffffffffffff168173ffffffffffffffffffffffffffffffffffffffff167f8be0079c531659141344cd1fd0a4f28419497f9722a3daafe3b4186f6b6457e060405160405180910390a35050565b612ed1846323b872dd60e01b858585604051602401612e6f93929190613b88565b604051602081830303815290604052907bffffffffffffffffffffffffffffffffffffffffffffffffffffffff19166020820180517bffffffffffffffffffffffffffffffffffffffffffffffffffffffff8381831617835250505050613076565b50505050565b816004805490508110612f1f576040517f08c379a0000000000000000000000000000000000000000000000000000000008152600401612f1690613e1e565b60405180910390fd5b60006005600085815260200190815260200160002060008473ffffffffffffffffffffffffffffffffffffffff1673ffffffffffffffffffffffffffffffffffffffff168152602001908152602001600020905060008160000154111561307057612f8984611226565b600060048581548110612f9f57612f9e614419565b5b906000526020600020906004020160030154905060008260010154670de0b6b3a7640000838560000154612fd39190614180565b612fdd919061414f565b612fe791906141da565b9050612ff38582612ad8565b670de0b6b3a764000082846000015461300c9190614180565b613016919061414f565b8360010181905550858573ffffffffffffffffffffffffffffffffffffffff167f71bab65ced2e5750775a0613be067df48ef06cf92a496ebf7663ae0660924954836040516130659190613ebe565b60405180910390a350505b50505050565b60006130d8826040518060400160405280602081526020017f5361666545524332303a206c6f772d6c6576656c2063616c6c206661696c65648152508573ffffffffffffffffffffffffffffffffffffffff1661313d9092919063ffffffff16565b905060008151111561313857808060200190518101906130f891906134b7565b613137576040517f08c379a000000000000000000000000000000000000000000000000000000000815260040161312e90613e9e565b60405180910390fd5b5b505050565b606061314c8484600085613155565b90509392505050565b60608247101561319a576040517f08c379a000000000000000000000000000000000000000000000000000000000815260040161319190613dde565b60405180910390fd5b6131a385613269565b6131e2576040517f08c379a00000000000000000000000000000000000000000000000000000000081526004016131d990613e5e565b60405180910390fd5b6000808673ffffffffffffffffffffffffffffffffffffffff16858760405161320b9190613b56565b60006040518083038185875af1925050503d8060008114613248576040519150601f19603f3d011682016040523d82523d6000602084013e61324d565b606091505b509150915061325d82828661327c565b92505050949350505050565b600080823b905060008111915050919050565b6060831561328c578290506132dc565b60008351111561329f5782518084602001fd5b816040517f08c379a00000000000000000000000000000000000000000000000000000000081526004016132d39190613d5c565b60405180910390fd5b9392505050565b60006132f66132f184614035565b614010565b905080838252602082019050828560208602820111156133195761331861448f565b5b60005b85811015613349578161332f88826133ff565b84526020840193506020830192505060018101905061331c565b5050509392505050565b600081359050613362816146c8565b92915050565b600081519050613377816146c8565b92915050565b600082601f8301126133925761339161448a565b5b81516133a28482602086016132e3565b91505092915050565b6000813590506133ba816146df565b92915050565b6000815190506133cf816146df565b92915050565b6000813590506133e4816146f6565b92915050565b6000813590506133f98161470d565b92915050565b60008151905061340e8161470d565b92915050565b60006020828403121561342a57613429614499565b5b600061343884828501613353565b91505092915050565b60006020828403121561345757613456614499565b5b600061346584828501613368565b91505092915050565b60006020828403121561348457613483614499565b5b600082015167ffffffffffffffff8111156134a2576134a1614494565b5b6134ae8482850161337d565b91505092915050565b6000602082840312156134cd576134cc614499565b5b60006134db848285016133c0565b91505092915050565b6000602082840312156134fa576134f9614499565b5b6000613508848285016133d5565b91505092915050565b60006020828403121561352757613526614499565b5b6000613535848285016133ea565b91505092915050565b60006020828403121561355457613553614499565b5b6000613562848285016133ff565b91505092915050565b6000806040838503121561358257613581614499565b5b6000613590858286016133ea565b92505060206135a185828601613353565b9150509250929050565b6000806000606084860312156135c4576135c3614499565b5b60006135d2868287016133ea565b93505060206135e3868287016133d5565b92505060406135f4868287016133ab565b9150509250925092565b6000806040838503121561361557613614614499565b5b6000613623858286016133ea565b9250506020613634858286016133ea565b9150509250929050565b60008060006060848603121561365757613656614499565b5b6000613665868287016133ea565b9350506020613676868287016133ea565b9250506040613687868287016133ab565b9150509250925092565b600080600080600060a086880312156136ad576136ac614499565b5b60006136bb888289016133ea565b95505060206136cc888289016133ea565b94505060406136dd888289016133ea565b93505060606136ee888289016133ea565b92505060806136ff888289016133ea565b9150509295509295909350565b600080600080600080600060e0888a03121561372b5761372a614499565b5b60006137398a828b016133ea565b975050602061374a8a828b016133ea565b965050604061375b8a828b016133ea565b955050606061376c8a828b016133ea565b945050608061377d8a828b016133ea565b93505060a061378e8a828b01613353565b92505060c061379f8a828b016133ea565b91505092959891949750929550565b60008060008060008060c087890312156137cb576137ca614499565b5b60006137d989828a016133ea565b96505060206137ea89828a016133ea565b95505060406137fb89828a016133ea565b945050606061380c89828a016133ea565b935050608061381d89828a016133ea565b92505060a061382e89828a016133ea565b9150509295509295509295565b60006138478383613853565b60208301905092915050565b61385c8161422e565b82525050565b61386b8161422e565b82525050565b600061387c82614086565b61388681856140cc565b935061389183614061565b8060005b838110156138c25781516138a9888261383b565b97506138b4836140b2565b925050600181019050613895565b5085935050505092915050565b60006138da82614091565b6138e481856140cc565b93506138ef83614071565b8060005b838110156139275761390482614477565b61390e888261383b565b9750613919836140bf565b9250506001810190506138f3565b5085935050505092915050565b61393d81614240565b82525050565b600061394e8261409c565b61395881856140dd565b93506139688185602086016142f4565b80840191505092915050565b61397d81614288565b82525050565b61398c8161429a565b82525050565b61399b816142ac565b82525050565b6139aa816142be565b82525050565b60006139bb826140a7565b6139c581856140e8565b93506139d58185602086016142f4565b6139de8161449e565b840191505092915050565b60006139f66016836140e8565b9150613a01826144bc565b602082019050919050565b6000613a19601a836140e8565b9150613a24826144e5565b602082019050919050565b6000613a3c6026836140e8565b9150613a478261450e565b604082019050919050565b6000613a5f6026836140e8565b9150613a6a8261455d565b604082019050919050565b6000613a82600c836140e8565b9150613a8d826145ac565b602082019050919050565b6000613aa56018836140e8565b9150613ab0826145d5565b602082019050919050565b6000613ac86020836140e8565b9150613ad3826145fe565b602082019050919050565b6000613aeb601d836140e8565b9150613af682614627565b602082019050919050565b6000613b0e6012836140e8565b9150613b1982614650565b602082019050919050565b6000613b31602a836140e8565b9150613b3c82614679565b604082019050919050565b613b508161427e565b82525050565b6000613b628284613943565b915081905092915050565b6000602082019050613b826000830184613862565b92915050565b6000606082019050613b9d6000830186613862565b613baa6020830185613862565b613bb76040830184613b47565b949350505050565b600060e082019050613bd4600083018a613862565b613be16020830189613862565b613bee6040830188613b47565b613bfb6060830187613b47565b613c086080830186613b47565b613c1560a0830185613b47565b613c2260c0830184613b47565b98975050505050505050565b6000604082019050613c436000830185613862565b613c506020830184613b47565b9392505050565b6000602082019050613c6c6000830184613934565b92915050565b6000602082019050613c876000830184613974565b92915050565b6000608082019050613ca26000830187613974565b613caf6020830186613b47565b613cbc6040830185613b47565b613cc96060830184613b47565b95945050505050565b6000602082019050613ce76000830184613983565b92915050565b600060e082019050613d02600083018a613992565b613d0f6020830189613862565b613d1c6040830188613b47565b613d296060830187613b47565b613d366080830186613b47565b613d4360a0830185613b47565b613d5060c0830184613b47565b98975050505050505050565b60006020820190508181036000830152613d7681846139b0565b905092915050565b60006020820190508181036000830152613d97816139e9565b9050919050565b60006020820190508181036000830152613db781613a0c565b9050919050565b60006020820190508181036000830152613dd781613a2f565b9050919050565b60006020820190508181036000830152613df781613a52565b9050919050565b60006020820190508181036000830152613e1781613a75565b9050919050565b60006020820190508181036000830152613e3781613a98565b9050919050565b60006020820190508181036000830152613e5781613abb565b9050919050565b60006020820190508181036000830152613e7781613ade565b9050919050565b60006020820190508181036000830152613e9781613b01565b9050919050565b60006020820190508181036000830152613eb781613b24565b9050919050565b6000602082019050613ed36000830184613b47565b92915050565b600060a082019050613eee6000830188613b47565b613efb60208301876139a1565b8181036040830152613f0d8186613871565b9050613f1c6060830185613862565b613f296080830184613b47565b9695505050505050565b600060a082019050613f486000830188613b47565b613f5560208301876139a1565b8181036040830152613f6781866138cf565b9050613f766060830185613862565b613f836080830184613b47565b9695505050505050565b6000604082019050613fa26000830185613b47565b613faf6020830184613b47565b9392505050565b600060a082019050613fcb6000830188613b47565b613fd86020830187613b47565b8181036040830152613fea81866138cf565b9050613ff96060830185613862565b6140066080830184613b47565b9695505050505050565b600061401a61402b565b90506140268282614341565b919050565b6000604051905090565b600067ffffffffffffffff8211156140505761404f614448565b5b602082029050602081019050919050565b6000819050602082019050919050565b60008190508160005260206000209050919050565b600081519050919050565b600081549050919050565b600081519050919050565b600081519050919050565b6000602082019050919050565b6000600182019050919050565b600082825260208201905092915050565b600081905092915050565b600082825260208201905092915050565b60006141048261427e565b915061410f8361427e565b9250827fffffffffffffffffffffffffffffffffffffffffffffffffffffffffffffffff03821115614144576141436143bb565b5b828201905092915050565b600061415a8261427e565b91506141658361427e565b925082614175576141746143ea565b5b828204905092915050565b600061418b8261427e565b91506141968361427e565b9250817fffffffffffffffffffffffffffffffffffffffffffffffffffffffffffffffff04831182151516156141cf576141ce6143bb565b5b828202905092915050565b60006141e58261427e565b91506141f08361427e565b925082821015614203576142026143bb565b5b828203905092915050565b600073ffffffffffffffffffffffffffffffffffffffff82169050919050565b60006142398261425e565b9050919050565b60008115159050919050565b60006142578261422e565b9050919050565b600073ffffffffffffffffffffffffffffffffffffffff82169050919050565b6000819050919050565b6000614293826142d0565b9050919050565b60006142a5826142d0565b9050919050565b60006142b7826142d0565b9050919050565b60006142c98261427e565b9050919050565b60006142db826142e2565b9050919050565b60006142ed8261425e565b9050919050565b60005b838110156143125780820151818401526020810190506142f7565b83811115614321576000848401525b50505050565b600061433a614335836144af565b61420e565b9050919050565b61434a8261449e565b810181811067ffffffffffffffff8211171561436957614368614448565b5b80604052505050565b600061437d8261427e565b91507fffffffffffffffffffffffffffffffffffffffffffffffffffffffffffffffff8214156143b0576143af6143bb565b5b600182019050919050565b7f4e487b7100000000000000000000000000000000000000000000000000000000600052601160045260246000fd5b7f4e487b7100000000000000000000000000000000000000000000000000000000600052601260045260246000fd5b7f4e487b7100000000000000000000000000000000000000000000000000000000600052603260045260246000fd5b7f4e487b7100000000000000000000000000000000000000000000000000000000600052604160045260246000fd5b60006144838254614327565b9050919050565b600080fd5b600080fd5b600080fd5b600080fd5b6000601f19601f8301169050919050565b60008160001c9050919050565b7f47796d4661726d696e673a3a204f6e6c792062616e6b00000000000000000000600082015250565b7f47796d4661726d696e673a3a4455504c49434154455f504f4f4c000000000000600082015250565b7f4f776e61626c653a206e6577206f776e657220697320746865207a65726f206160008201527f6464726573730000000000000000000000000000000000000000000000000000602082015250565b7f416464726573733a20696e73756666696369656e742062616c616e636520666f60008201527f722063616c6c0000000000000000000000000000000000000000000000000000602082015250565b7f57726f6e6720706f6f6c49440000000000000000000000000000000000000000600082015250565b7f47796d4661726d696e673a3a554e4b4e4f574e5f504f4f4c0000000000000000600082015250565b7f4f776e61626c653a2063616c6c6572206973206e6f7420746865206f776e6572600082015250565b7f416464726573733a2063616c6c20746f206e6f6e2d636f6e7472616374000000600082015250565b7f77697468647261773a206e6f7420676f6f640000000000000000000000000000600082015250565b7f5361666545524332303a204552433230206f7065726174696f6e20646964206e60008201527f6f74207375636365656400000000000000000000000000000000000000000000602082015250565b6146d18161422e565b81146146dc57600080fd5b50565b6146e881614240565b81146146f357600080fd5b50565b6146ff8161424c565b811461470a57600080fd5b50565b6147168161427e565b811461472157600080fd5b5056fea2646970667358221220b4e83d646bd7c1923c6a00d7ac0b27e923e5adcec340fd8312e8d7c138af656064736f6c63430008070033",
  "devdoc": {
    "kind": "dev",
    "methods": {
      "add(uint256,address,bool)": {
        "params": {
          "_allocPoint": ": allocPoint for new pool",
          "_lpToken": ": address of lpToken for new pool",
          "_withUpdate": ": if true, update all pools"
        }
      },
      "autoDeposit(uint256,uint256,uint256,uint256,uint256,address,uint256)": {
        "params": {
          "_amount": ": the amount of reward tokens that should be converted to LP tokens and deposits to GymFarming contract",
          "_from": ": Address of user that called function from GymVaultsBank",
          "_pid": ": pool ID on which LP tokens should be deposited"
        }
      },
      "deposit(uint256,uint256)": {
        "params": {
          "_amount": ": the amount of LP tokens that should be deposited",
          "_pid": ": pool ID on which LP tokens should be deposited"
        }
      },
      "getMultiplier(uint256,uint256)": {
        "params": {
          "_from": ": block block from which the reward is calculated",
          "_to": ": block block before which the reward is calculated"
        },
        "returns": {
          "_0": "Return reward multiplier over the given _from to _to block"
        }
      },
      "harvest(uint256)": {
        "params": {
          "_pid": ": pool ID from which the accumulated reward tokens should be received"
        }
      },
      "owner()": {
        "details": "Returns the address of the current owner."
      },
      "pendingReward(uint256,address)": {
        "params": {
          "_pid": ": pool ID for which reward must be calculated",
          "_user": ": user address for which reward must be calculated"
        },
        "returns": {
          "_0": "Return reward for user"
        }
      },
      "pendingRewardTotal(address)": {
        "params": {
          "_user": ": user address for which reward must be calculated"
        },
        "returns": {
          "total": "Return reward for user"
        }
      },
      "poolLength()": {
        "returns": {
          "_0": "All pools amount"
        }
      },
      "renounceOwnership()": {
        "details": "Leaves the contract without owner. It will not be possible to call `onlyOwner` functions anymore. Can only be called by the current owner. NOTE: Renouncing ownership will leave the contract without an owner, thereby removing any functionality that is only available to the owner."
      },
      "setRewardToken(address)": {
        "params": {
          "_rewardToken": ": address of reward token"
        }
      },
      "speedStake(uint256,uint256,uint256,uint256,uint256,uint256)": {
        "params": {
          "_amountAMin": ": bounds the extent to which the B/A price can go up before the transaction reverts. Must be <= amountADesired.",
          "_amountBMin": ": bounds the extent to which the A/B price can go up before the transaction reverts. Must be <= amountBDesired",
          "_minAmountOutA": ": the minimum amount of output A tokens that must be received for the transaction not to revert",
          "_pid": ": pool ID where we want deposit",
          "_tokenAmount": ": amount of tokens for staking"
        }
      },
      "transferOwnership(address)": {
        "details": "Transfers ownership of the contract to a new account (`newOwner`). Can only be called by the current owner."
      },
      "updatePool(uint256)": {
        "params": {
          "_pid": ": pool ID for which the reward variables should be updated"
        }
      },
      "withdraw(uint256,uint256)": {
        "params": {
          "_amount": ": the amount of LP tokens that should be withdrawn",
          "_pid": ": pool ID from which the LP tokens should be withdrawn"
        }
      }
    },
    "version": 1
  },
  "userdoc": {
    "kind": "user",
    "methods": {
      "add(uint256,address,bool)": {
        "notice": "Add a new lp to the pool. Can only be called by the owner"
      },
      "autoDeposit(uint256,uint256,uint256,uint256,uint256,address,uint256)": {
        "notice": "Deposit LP tokens to GymFarming from GymVaultsBank"
      },
      "deposit(uint256,uint256)": {
        "notice": "Deposit LP tokens to GymFarming for reward allocation"
      },
      "harvest(uint256)": {
        "notice": "Function which send accumulated reward tokens to messege sender"
      },
      "harvestAll()": {
        "notice": "Function which send accumulated reward tokens to messege sender from all pools"
      },
      "liquidityProvider()": {
        "notice": "The Liquidity Provider"
      },
      "massUpdatePools()": {
        "notice": "Update reward vairables for all pools"
      },
      "pendingReward(uint256,address)": {
        "notice": "View function to see pending rewards on frontend"
      },
      "pendingRewardTotal(address)": {
        "notice": "View function to see total pending rewards on frontend"
      },
      "poolInfo(uint256)": {
        "notice": "Info of each pool."
      },
      "rewardToken()": {
        "notice": "The reward token"
      },
      "set(uint256,uint256,bool)": {
        "notice": "Update the given pool's reward allocation point. Can only be called by the owner"
      },
      "setRewardPerBlock()": {
        "notice": "Function to set amount of reward per block"
      },
      "setRewardToken(address)": {
        "notice": "Function to set reward token"
      },
      "speedStake(uint256,uint256,uint256,uint256,uint256,uint256)": {
        "notice": "Function which take ETH and tokens, add liquidity with provider and deposit given LP's"
      },
      "startBlock()": {
        "notice": "The block number when reward mining starts."
      },
      "totalAllocPoint()": {
        "notice": "Total allocation poitns. Must be the sum of all allocation points in all pools."
      },
      "updatePool(uint256)": {
        "notice": "Update reward variables of the given pool to be up-to-date"
      },
      "userInfo(uint256,address)": {
        "notice": "Info of each user that stakes LP tokens."
      },
      "withdraw(uint256,uint256)": {
        "notice": "Function which withdraw LP tokens to messege sender with the given amount"
      }
    },
    "version": 1
  },
  "storageLayout": {
    "storage": [
      {
        "astId": 7,
        "contract": "cache/solpp-generated-contracts/GymFarming.sol:GymFarming",
        "label": "_owner",
        "offset": 0,
        "slot": "0",
        "type": "t_address"
      },
      {
        "astId": 206,
        "contract": "cache/solpp-generated-contracts/GymFarming.sol:GymFarming",
        "label": "_status",
        "offset": 0,
        "slot": "1",
        "type": "t_uint256"
      },
      {
        "astId": 1313,
        "contract": "cache/solpp-generated-contracts/GymFarming.sol:GymFarming",
        "label": "rewardToken",
        "offset": 0,
        "slot": "2",
        "type": "t_contract(IERC20)313"
      },
      {
        "astId": 1315,
        "contract": "cache/solpp-generated-contracts/GymFarming.sol:GymFarming",
        "label": "rewardPerBlock",
        "offset": 0,
        "slot": "3",
        "type": "t_uint256"
      },
      {
        "astId": 1320,
        "contract": "cache/solpp-generated-contracts/GymFarming.sol:GymFarming",
        "label": "poolInfo",
        "offset": 0,
        "slot": "4",
        "type": "t_array(t_struct(PoolInfo)1309_storage)dyn_storage"
      },
      {
        "astId": 1328,
        "contract": "cache/solpp-generated-contracts/GymFarming.sol:GymFarming",
        "label": "userInfo",
        "offset": 0,
        "slot": "5",
        "type": "t_mapping(t_uint256,t_mapping(t_address,t_struct(UserInfo)1299_storage))"
      },
      {
        "astId": 1332,
        "contract": "cache/solpp-generated-contracts/GymFarming.sol:GymFarming",
        "label": "isPoolExist",
        "offset": 0,
        "slot": "6",
        "type": "t_mapping(t_address,t_bool)"
      },
      {
        "astId": 1335,
        "contract": "cache/solpp-generated-contracts/GymFarming.sol:GymFarming",
        "label": "totalAllocPoint",
        "offset": 0,
        "slot": "7",
        "type": "t_uint256"
      },
      {
        "astId": 1338,
        "contract": "cache/solpp-generated-contracts/GymFarming.sol:GymFarming",
        "label": "startBlock",
        "offset": 0,
        "slot": "8",
        "type": "t_uint256"
      },
      {
        "astId": 1345,
        "contract": "cache/solpp-generated-contracts/GymFarming.sol:GymFarming",
        "label": "liquidityProvider",
        "offset": 0,
        "slot": "9",
        "type": "t_contract(ILiquidityProvider)6541"
      },
      {
        "astId": 1348,
        "contract": "cache/solpp-generated-contracts/GymFarming.sol:GymFarming",
        "label": "liquidityProviderApiId",
        "offset": 0,
        "slot": "10",
        "type": "t_uint256"
      },
      {
        "astId": 1350,
        "contract": "cache/solpp-generated-contracts/GymFarming.sol:GymFarming",
        "label": "bankAddress",
        "offset": 0,
        "slot": "11",
        "type": "t_address"
      },
      {
        "astId": 1362,
        "contract": "cache/solpp-generated-contracts/GymFarming.sol:GymFarming",
        "label": "rewardTokenToWBNB",
        "offset": 0,
        "slot": "12",
        "type": "t_array(t_address)dyn_storage"
      },
      {
        "astId": 1364,
        "contract": "cache/solpp-generated-contracts/GymFarming.sol:GymFarming",
        "label": "rewardPerBlockChangesCount",
        "offset": 0,
        "slot": "13",
        "type": "t_uint256"
      },
      {
        "astId": 1366,
        "contract": "cache/solpp-generated-contracts/GymFarming.sol:GymFarming",
        "label": "lastChangeBlock",
        "offset": 0,
        "slot": "14",
        "type": "t_uint256"
      }
    ],
    "types": {
      "t_address": {
        "encoding": "inplace",
        "label": "address",
        "numberOfBytes": "20"
      },
      "t_array(t_address)dyn_storage": {
        "base": "t_address",
        "encoding": "dynamic_array",
        "label": "address[]",
        "numberOfBytes": "32"
      },
      "t_array(t_struct(PoolInfo)1309_storage)dyn_storage": {
        "base": "t_struct(PoolInfo)1309_storage",
        "encoding": "dynamic_array",
        "label": "struct GymFarming.PoolInfo[]",
        "numberOfBytes": "32"
      },
      "t_bool": {
        "encoding": "inplace",
        "label": "bool",
        "numberOfBytes": "1"
      },
      "t_contract(IERC20)313": {
        "encoding": "inplace",
        "label": "contract IERC20",
        "numberOfBytes": "20"
      },
      "t_contract(ILiquidityProvider)6541": {
        "encoding": "inplace",
        "label": "contract ILiquidityProvider",
        "numberOfBytes": "20"
      },
      "t_mapping(t_address,t_bool)": {
        "encoding": "mapping",
        "key": "t_address",
        "label": "mapping(address => bool)",
        "numberOfBytes": "32",
        "value": "t_bool"
      },
      "t_mapping(t_address,t_struct(UserInfo)1299_storage)": {
        "encoding": "mapping",
        "key": "t_address",
        "label": "mapping(address => struct GymFarming.UserInfo)",
        "numberOfBytes": "32",
        "value": "t_struct(UserInfo)1299_storage"
      },
      "t_mapping(t_uint256,t_mapping(t_address,t_struct(UserInfo)1299_storage))": {
        "encoding": "mapping",
        "key": "t_uint256",
        "label": "mapping(uint256 => mapping(address => struct GymFarming.UserInfo))",
        "numberOfBytes": "32",
        "value": "t_mapping(t_address,t_struct(UserInfo)1299_storage)"
      },
      "t_struct(PoolInfo)1309_storage": {
        "encoding": "inplace",
        "label": "struct GymFarming.PoolInfo",
        "members": [
          {
            "astId": 1302,
            "contract": "cache/solpp-generated-contracts/GymFarming.sol:GymFarming",
            "label": "lpToken",
            "offset": 0,
            "slot": "0",
            "type": "t_contract(IERC20)313"
          },
          {
            "astId": 1304,
            "contract": "cache/solpp-generated-contracts/GymFarming.sol:GymFarming",
            "label": "allocPoint",
            "offset": 0,
            "slot": "1",
            "type": "t_uint256"
          },
          {
            "astId": 1306,
            "contract": "cache/solpp-generated-contracts/GymFarming.sol:GymFarming",
            "label": "lastRewardBlock",
            "offset": 0,
            "slot": "2",
            "type": "t_uint256"
          },
          {
            "astId": 1308,
            "contract": "cache/solpp-generated-contracts/GymFarming.sol:GymFarming",
            "label": "accRewardPerShare",
            "offset": 0,
            "slot": "3",
            "type": "t_uint256"
          }
        ],
        "numberOfBytes": "128"
      },
      "t_struct(UserInfo)1299_storage": {
        "encoding": "inplace",
        "label": "struct GymFarming.UserInfo",
        "members": [
          {
            "astId": 1296,
            "contract": "cache/solpp-generated-contracts/GymFarming.sol:GymFarming",
            "label": "amount",
            "offset": 0,
            "slot": "0",
            "type": "t_uint256"
          },
          {
            "astId": 1298,
            "contract": "cache/solpp-generated-contracts/GymFarming.sol:GymFarming",
            "label": "rewardDebt",
            "offset": 0,
            "slot": "1",
            "type": "t_uint256"
          }
        ],
        "numberOfBytes": "64"
      },
      "t_uint256": {
        "encoding": "inplace",
        "label": "uint256",
        "numberOfBytes": "32"
      }
    }
  }
}