{
  "address": "0x5772Ae803B430cB5D1260Cc33Aa2c8F89aD1d488",
  "abi": [
    {
      "inputs": [],
      "stateMutability": "nonpayable",
      "type": "constructor"
    },
    {
      "anonymous": false,
      "inputs": [
        {
          "indexed": true,
          "internalType": "address",
          "name": "user",
          "type": "address"
        },
        {
          "indexed": true,
          "internalType": "address",
          "name": "referral",
          "type": "address"
        }
      ],
      "name": "NewReferral",
      "type": "event"
    },
    {
      "anonymous": false,
      "inputs": [
        {
          "indexed": true,
          "internalType": "address",
          "name": "previousOwner",
          "type": "address"
        },
        {
          "indexed": true,
          "internalType": "address",
          "name": "newOwner",
          "type": "address"
        }
      ],
      "name": "OwnershipTransferred",
      "type": "event"
    },
    {
      "anonymous": false,
      "inputs": [
        {
          "indexed": true,
          "internalType": "address",
          "name": "user",
          "type": "address"
        },
        {
          "indexed": true,
          "internalType": "address",
          "name": "referral",
          "type": "address"
        },
        {
          "indexed": false,
          "internalType": "uint256",
          "name": "amount",
          "type": "uint256"
        }
      ],
      "name": "ReferralRewardReceved",
      "type": "event"
    },
    {
      "stateMutability": "payable",
      "type": "fallback"
    },
    {
      "inputs": [
        {
          "internalType": "address",
          "name": "_user",
          "type": "address"
        },
        {
          "internalType": "uint256",
          "name": "_referrerId",
          "type": "uint256"
        }
      ],
      "name": "addGymMLM",
      "outputs": [],
      "stateMutability": "nonpayable",
      "type": "function"
    },
    {
      "inputs": [
        {
          "internalType": "address",
          "name": "",
          "type": "address"
        }
      ],
      "name": "addressToId",
      "outputs": [
        {
          "internalType": "uint256",
          "name": "",
          "type": "uint256"
        }
      ],
      "stateMutability": "view",
      "type": "function"
    },
    {
      "inputs": [],
      "name": "bankAddress",
      "outputs": [
        {
          "internalType": "address",
          "name": "",
          "type": "address"
        }
      ],
      "stateMutability": "view",
      "type": "function"
    },
    {
      "inputs": [],
      "name": "currentId",
      "outputs": [
        {
          "internalType": "uint256",
          "name": "",
          "type": "uint256"
        }
      ],
      "stateMutability": "view",
      "type": "function"
    },
    {
      "inputs": [
        {
          "internalType": "uint256",
          "name": "",
          "type": "uint256"
        }
      ],
      "name": "directReferralBonuses",
      "outputs": [
        {
          "internalType": "uint8",
          "name": "",
          "type": "uint8"
        }
      ],
      "stateMutability": "view",
      "type": "function"
    },
    {
      "inputs": [
        {
          "internalType": "uint256",
          "name": "_wantAmt",
          "type": "uint256"
        },
        {
          "internalType": "address",
          "name": "_wantAddr",
          "type": "address"
        },
        {
          "internalType": "address",
          "name": "_user",
          "type": "address"
        }
      ],
      "name": "distributeRewards",
      "outputs": [],
      "stateMutability": "nonpayable",
      "type": "function"
    },
    {
      "inputs": [
        {
          "internalType": "uint256",
          "name": "",
          "type": "uint256"
        }
      ],
      "name": "idToAddress",
      "outputs": [
        {
          "internalType": "address",
          "name": "",
          "type": "address"
        }
      ],
      "stateMutability": "view",
      "type": "function"
    },
    {
      "inputs": [],
      "name": "owner",
      "outputs": [
        {
          "internalType": "address",
          "name": "",
          "type": "address"
        }
      ],
      "stateMutability": "view",
      "type": "function"
    },
    {
      "inputs": [],
      "name": "renounceOwnership",
      "outputs": [],
      "stateMutability": "nonpayable",
      "type": "function"
    },
    {
      "inputs": [
        {
          "internalType": "address",
          "name": "_bank",
          "type": "address"
        }
      ],
      "name": "setBankAddress",
      "outputs": [],
      "stateMutability": "nonpayable",
      "type": "function"
    },
    {
      "inputs": [
        {
          "internalType": "address",
          "name": "newOwner",
          "type": "address"
        }
      ],
      "name": "transferOwnership",
      "outputs": [],
      "stateMutability": "nonpayable",
      "type": "function"
    },
    {
      "inputs": [
        {
          "internalType": "address",
          "name": "",
          "type": "address"
        }
      ],
      "name": "userToReferrer",
      "outputs": [
        {
          "internalType": "address",
          "name": "",
          "type": "address"
        }
      ],
      "stateMutability": "view",
      "type": "function"
    },
    {
      "stateMutability": "payable",
      "type": "receive"
    }
  ],
  "transactionHash": "0x0d70d801644aa3d4e4c5f2af47907b178444f14803f50dc276f8310d92bf02ea",
  "args": [],
  "solcInputHash": "84ef5644c902bb1e12b4215444b580ea",
  "bytecode": "0x60806040523480156200001157600080fd5b5062000032620000266200027e60201b60201c565b6200028660201b60201c565b604051806101e00160405280600a60ff168152602001600760ff168152602001600560ff168152602001600460ff168152602001600460ff168152602001600360ff168152602001600260ff168152602001600260ff168152602001600260ff168152602001600160ff168152602001600160ff168152602001600160ff168152602001600160ff168152602001600160ff168152602001600160ff16815250600390600f620000e492919062000489565b5060016004600073f39fd6e51aad88f6f4ce6ab8827279cfffb9226673ffffffffffffffffffffffffffffffffffffffff1673ffffffffffffffffffffffffffffffffffffffff1681526020019081526020016000208190555073f39fd6e51aad88f6f4ce6ab8827279cfffb92266600560006001815260200190815260200160002060006101000a81548173ffffffffffffffffffffffffffffffffffffffff021916908373ffffffffffffffffffffffffffffffffffffffff16021790555073f39fd6e51aad88f6f4ce6ab8827279cfffb922666006600073f39fd6e51aad88f6f4ce6ab8827279cfffb9226673ffffffffffffffffffffffffffffffffffffffff1673ffffffffffffffffffffffffffffffffffffffff16815260200190815260200160002060006101000a81548173ffffffffffffffffffffffffffffffffffffffff021916908373ffffffffffffffffffffffffffffffffffffffff16021790555060026001819055506200027873f39fd6e51aad88f6f4ce6ab8827279cfffb922666200034a60201b60201c565b62000664565b600033905090565b60008060009054906101000a900473ffffffffffffffffffffffffffffffffffffffff169050816000806101000a81548173ffffffffffffffffffffffffffffffffffffffff021916908373ffffffffffffffffffffffffffffffffffffffff1602179055508173ffffffffffffffffffffffffffffffffffffffff168173ffffffffffffffffffffffffffffffffffffffff167f8be0079c531659141344cd1fd0a4f28419497f9722a3daafe3b4186f6b6457e060405160405180910390a35050565b6200035a6200027e60201b60201c565b73ffffffffffffffffffffffffffffffffffffffff16620003806200046060201b60201c565b73ffffffffffffffffffffffffffffffffffffffff1614620003d9576040517f08c379a0000000000000000000000000000000000000000000000000000000008152600401620003d090620005b9565b60405180910390fd5b600073ffffffffffffffffffffffffffffffffffffffff168173ffffffffffffffffffffffffffffffffffffffff1614156200044c576040517f08c379a0000000000000000000000000000000000000000000000000000000008152600401620004439062000597565b60405180910390fd5b6200045d816200028660201b60201c565b50565b60008060009054906101000a900473ffffffffffffffffffffffffffffffffffffffff16905090565b82600f601f01602090048101928215620005175791602002820160005b83821115620004e657835183826101000a81548160ff021916908360ff1602179055509260200192600101602081600001049283019260010302620004a6565b8015620005155782816101000a81549060ff0219169055600101602081600001049283019260010302620004e6565b505b5090506200052691906200052a565b5090565b5b80821115620005455760008160009055506001016200052b565b5090565b600062000558602683620005db565b91506200056582620005ec565b604082019050919050565b60006200057f602083620005db565b91506200058c826200063b565b602082019050919050565b60006020820190508181036000830152620005b28162000549565b9050919050565b60006020820190508181036000830152620005d48162000570565b9050919050565b600082825260208201905092915050565b7f4f776e61626c653a206e6577206f776e657220697320746865207a65726f206160008201527f6464726573730000000000000000000000000000000000000000000000000000602082015250565b7f4f776e61626c653a2063616c6c6572206973206e6f7420746865206f776e6572600082015250565b611c8180620006746000396000f3fe6080604052600436106100ab5760003560e01c80638da5cb5b116100645780638da5cb5b146101d6578063cb0e0d7d14610201578063e00dd1611461023e578063f2fde38b14610269578063fc3c0eee14610292578063ff3f7544146102bb576100b2565b80632a2d0c47146100b4578063362b935f146100f1578063480de5b51461012e578063715018a61461016b57806372dd73fb146101825780637822ed49146101ab576100b2565b366100b257005b005b3480156100c057600080fd5b506100db60048036038101906100d691906116a4565b6102e4565b6040516100e8919061182d565b60405180910390f35b3480156100fd57600080fd5b506101186004803603810190610113919061160a565b610317565b604051610125919061182d565b60405180910390f35b34801561013a57600080fd5b50610155600480360381019061015091906116a4565b61034a565b604051610162919061192c565b60405180910390f35b34801561017757600080fd5b50610180610374565b005b34801561018e57600080fd5b506101a960048036038101906101a491906116fe565b6103fc565b005b3480156101b757600080fd5b506101c0610d3c565b6040516101cd919061182d565b60405180910390f35b3480156101e257600080fd5b506101eb610d62565b6040516101f8919061182d565b60405180910390f35b34801561020d57600080fd5b506102286004803603810190610223919061160a565b610d8b565b6040516102359190611911565b60405180910390f35b34801561024a57600080fd5b50610253610da3565b6040516102609190611911565b60405180910390f35b34801561027557600080fd5b50610290600480360381019061028b919061160a565b610da9565b005b34801561029e57600080fd5b506102b960048036038101906102b4919061160a565b610ea1565b005b3480156102c757600080fd5b506102e260048036038101906102dd9190611637565b610f61565b005b60056020528060005260406000206000915054906101000a900473ffffffffffffffffffffffffffffffffffffffff1681565b60066020528060005260406000206000915054906101000a900473ffffffffffffffffffffffffffffffffffffffff1681565b600381600f811061035a57600080fd5b60209182820401919006915054906101000a900460ff1681565b61037c61135c565b73ffffffffffffffffffffffffffffffffffffffff1661039a610d62565b73ffffffffffffffffffffffffffffffffffffffff16146103f0576040517f08c379a00000000000000000000000000000000000000000000000000000000081526004016103e7906118f1565b60405180910390fd5b6103fa6000611364565b565b600260009054906101000a900473ffffffffffffffffffffffffffffffffffffffff1673ffffffffffffffffffffffffffffffffffffffff163373ffffffffffffffffffffffffffffffffffffffff161461048c576040517f08c379a0000000000000000000000000000000000000000000000000000000008152600401610483906118b1565b60405180910390fd5b600080600f90506000849050730b306bf915c4d645ff596e518faf3f9669b9701673ffffffffffffffffffffffffffffffffffffffff168573ffffffffffffffffffffffffffffffffffffffff16146108f1575b818310801561058e5750600160046000600660008873ffffffffffffffffffffffffffffffffffffffff1673ffffffffffffffffffffffffffffffffffffffff16815260200190815260200160002060009054906101000a900473ffffffffffffffffffffffffffffffffffffffff1673ffffffffffffffffffffffffffffffffffffffff1673ffffffffffffffffffffffffffffffffffffffff1681526020019081526020016000205414155b156107a9576000600660008673ffffffffffffffffffffffffffffffffffffffff1673ffffffffffffffffffffffffffffffffffffffff16815260200190815260200160002060009054906101000a900473ffffffffffffffffffffffffffffffffffffffff16905060006064600386600f811061060f5761060e611adf565b5b602091828204019190069054906101000a900460ff1660ff16896106339190611989565b61063d9190611958565b90508273ffffffffffffffffffffffffffffffffffffffff1663a9059cbb83836040518363ffffffff1660e01b815260040161067a929190611848565b602060405180830381600087803b15801561069457600080fd5b505af11580156106a8573d6000803e3d6000fd5b505050506040513d601f19601f820116820180604052508101906106cc9190611677565b508573ffffffffffffffffffffffffffffffffffffffff168273ffffffffffffffffffffffffffffffffffffffff167f12abb099d457123d07f36177ed89bf1cdc2870fbcf73615957dbf13e9f5be2718360405161072a9190611911565b60405180910390a3600660008773ffffffffffffffffffffffffffffffffffffffff1673ffffffffffffffffffffffffffffffffffffffff16815260200190815260200160002060009054906101000a900473ffffffffffffffffffffffffffffffffffffffff169550848061079f90611a38565b95505050506104e0565b8183146108e9578073ffffffffffffffffffffffffffffffffffffffff1663a9059cbb600260009054906101000a900473ffffffffffffffffffffffffffffffffffffffff168373ffffffffffffffffffffffffffffffffffffffff166370a08231306040518263ffffffff1660e01b8152600401610828919061182d565b60206040518083038186803b15801561084057600080fd5b505afa158015610854573d6000803e3d6000fd5b505050506040513d601f19601f8201168201806040525081019061087891906116d1565b6040518363ffffffff1660e01b8152600401610895929190611848565b602060405180830381600087803b1580156108af57600080fd5b505af11580156108c3573d6000803e3d6000fd5b505050506040513d601f19601f820116820180604052508101906108e79190611677565b505b505050610d37565b5b81831080156109a05750600160046000600660008873ffffffffffffffffffffffffffffffffffffffff1673ffffffffffffffffffffffffffffffffffffffff16815260200190815260200160002060009054906101000a900473ffffffffffffffffffffffffffffffffffffffff1673ffffffffffffffffffffffffffffffffffffffff1673ffffffffffffffffffffffffffffffffffffffff1681526020019081526020016000205414155b15610bf3576000600660008673ffffffffffffffffffffffffffffffffffffffff1673ffffffffffffffffffffffffffffffffffffffff16815260200190815260200160002060009054906101000a900473ffffffffffffffffffffffffffffffffffffffff16905060006064600386600f8110610a2157610a20611adf565b5b602091828204019190069054906101000a900460ff1660ff1689610a459190611989565b610a4f9190611958565b9050730b306bf915c4d645ff596e518faf3f9669b9701673ffffffffffffffffffffffffffffffffffffffff16632e1a7d4d826040518263ffffffff1660e01b8152600401610a9e9190611911565b600060405180830381600087803b158015610ab857600080fd5b505af1158015610acc573d6000803e3d6000fd5b505050508173ffffffffffffffffffffffffffffffffffffffff166108fc829081150290604051600060405180830381858888f19350505050158015610b16573d6000803e3d6000fd5b508573ffffffffffffffffffffffffffffffffffffffff168273ffffffffffffffffffffffffffffffffffffffff167f12abb099d457123d07f36177ed89bf1cdc2870fbcf73615957dbf13e9f5be27183604051610b749190611911565b60405180910390a3600660008773ffffffffffffffffffffffffffffffffffffffff1673ffffffffffffffffffffffffffffffffffffffff16815260200190815260200160002060009054906101000a900473ffffffffffffffffffffffffffffffffffffffff1695508480610be990611a38565b95505050506108f2565b818314610d33578073ffffffffffffffffffffffffffffffffffffffff1663a9059cbb600260009054906101000a900473ffffffffffffffffffffffffffffffffffffffff168373ffffffffffffffffffffffffffffffffffffffff166370a08231306040518263ffffffff1660e01b8152600401610c72919061182d565b60206040518083038186803b158015610c8a57600080fd5b505afa158015610c9e573d6000803e3d6000fd5b505050506040513d601f19601f82011682018060405250810190610cc291906116d1565b6040518363ffffffff1660e01b8152600401610cdf929190611848565b602060405180830381600087803b158015610cf957600080fd5b505af1158015610d0d573d6000803e3d6000fd5b505050506040513d601f19601f82011682018060405250810190610d319190611677565b505b5050505b505050565b600260009054906101000a900473ffffffffffffffffffffffffffffffffffffffff1681565b60008060009054906101000a900473ffffffffffffffffffffffffffffffffffffffff16905090565b60046020528060005260406000206000915090505481565b60015481565b610db161135c565b73ffffffffffffffffffffffffffffffffffffffff16610dcf610d62565b73ffffffffffffffffffffffffffffffffffffffff1614610e25576040517f08c379a0000000000000000000000000000000000000000000000000000000008152600401610e1c906118f1565b60405180910390fd5b600073ffffffffffffffffffffffffffffffffffffffff168173ffffffffffffffffffffffffffffffffffffffff161415610e95576040517f08c379a0000000000000000000000000000000000000000000000000000000008152600401610e8c90611871565b60405180910390fd5b610e9e81611364565b50565b610ea961135c565b73ffffffffffffffffffffffffffffffffffffffff16610ec7610d62565b73ffffffffffffffffffffffffffffffffffffffff1614610f1d576040517f08c379a0000000000000000000000000000000000000000000000000000000008152600401610f14906118f1565b60405180910390fd5b80600260006101000a81548173ffffffffffffffffffffffffffffffffffffffff021916908373ffffffffffffffffffffffffffffffffffffffff16021790555050565b600260009054906101000a900473ffffffffffffffffffffffffffffffffffffffff1673ffffffffffffffffffffffffffffffffffffffff163373ffffffffffffffffffffffffffffffffffffffff1614610ff1576040517f08c379a0000000000000000000000000000000000000000000000000000000008152600401610fe8906118b1565b60405180910390fd5b6000600660008473ffffffffffffffffffffffffffffffffffffffff1673ffffffffffffffffffffffffffffffffffffffff16815260200190815260200160002060009054906101000a900473ffffffffffffffffffffffffffffffffffffffff169050600073ffffffffffffffffffffffffffffffffffffffff168173ffffffffffffffffffffffffffffffffffffffff1614156110c1576005600083815260200190815260200160002060009054906101000a900473ffffffffffffffffffffffffffffffffffffffff1690505b600073ffffffffffffffffffffffffffffffffffffffff168373ffffffffffffffffffffffffffffffffffffffff161415611131576040517f08c379a000000000000000000000000000000000000000000000000000000000815260040161112890611891565b60405180910390fd5b600073ffffffffffffffffffffffffffffffffffffffff168173ffffffffffffffffffffffffffffffffffffffff1614156111a1576040517f08c379a0000000000000000000000000000000000000000000000000000000008152600401611198906118d1565b60405180910390fd5b600073ffffffffffffffffffffffffffffffffffffffff16600660008573ffffffffffffffffffffffffffffffffffffffff1673ffffffffffffffffffffffffffffffffffffffff16815260200190815260200160002060009054906101000a900473ffffffffffffffffffffffffffffffffffffffff1673ffffffffffffffffffffffffffffffffffffffff1614806112c557508073ffffffffffffffffffffffffffffffffffffffff16600660008573ffffffffffffffffffffffffffffffffffffffff1673ffffffffffffffffffffffffffffffffffffffff16815260200190815260200160002060009054906101000a900473ffffffffffffffffffffffffffffffffffffffff1673ffffffffffffffffffffffffffffffffffffffff16145b611304576040517f08c379a00000000000000000000000000000000000000000000000000000000081526004016112fb906118d1565b60405180910390fd5b6000600460008573ffffffffffffffffffffffffffffffffffffffff1673ffffffffffffffffffffffffffffffffffffffff168152602001908152602001600020541415611357576113568382611428565b5b505050565b600033905090565b60008060009054906101000a900473ffffffffffffffffffffffffffffffffffffffff169050816000806101000a81548173ffffffffffffffffffffffffffffffffffffffff021916908373ffffffffffffffffffffffffffffffffffffffff1602179055508173ffffffffffffffffffffffffffffffffffffffff168173ffffffffffffffffffffffffffffffffffffffff167f8be0079c531659141344cd1fd0a4f28419497f9722a3daafe3b4186f6b6457e060405160405180910390a35050565b600154600460008473ffffffffffffffffffffffffffffffffffffffff1673ffffffffffffffffffffffffffffffffffffffff168152602001908152602001600020819055508160056000600154815260200190815260200160002060006101000a81548173ffffffffffffffffffffffffffffffffffffffff021916908373ffffffffffffffffffffffffffffffffffffffff16021790555080600660008473ffffffffffffffffffffffffffffffffffffffff1673ffffffffffffffffffffffffffffffffffffffff16815260200190815260200160002060006101000a81548173ffffffffffffffffffffffffffffffffffffffff021916908373ffffffffffffffffffffffffffffffffffffffff1602179055506001600081548092919061155390611a38565b91905055508173ffffffffffffffffffffffffffffffffffffffff168173ffffffffffffffffffffffffffffffffffffffff167f965e581fd2224ce85185c5f48cfbcc00e17fa216f970b274fc724888f6b8994a60405160405180910390a35050565b6000813590506115c581611c06565b92915050565b6000815190506115da81611c1d565b92915050565b6000813590506115ef81611c34565b92915050565b60008151905061160481611c34565b92915050565b6000602082840312156116205761161f611b0e565b5b600061162e848285016115b6565b91505092915050565b6000806040838503121561164e5761164d611b0e565b5b600061165c858286016115b6565b925050602061166d858286016115e0565b9150509250929050565b60006020828403121561168d5761168c611b0e565b5b600061169b848285016115cb565b91505092915050565b6000602082840312156116ba576116b9611b0e565b5b60006116c8848285016115e0565b91505092915050565b6000602082840312156116e7576116e6611b0e565b5b60006116f5848285016115f5565b91505092915050565b60008060006060848603121561171757611716611b0e565b5b6000611725868287016115e0565b9350506020611736868287016115b6565b9250506040611747868287016115b6565b9150509250925092565b61175a816119e3565b82525050565b600061176d602683611947565b915061177882611b13565b604082019050919050565b6000611790601c83611947565b915061179b82611b62565b602082019050919050565b60006117b3601283611947565b91506117be82611b8b565b602082019050919050565b60006117d6602083611947565b91506117e182611bb4565b602082019050919050565b60006117f9602083611947565b915061180482611bdd565b602082019050919050565b61181881611a21565b82525050565b61182781611a2b565b82525050565b60006020820190506118426000830184611751565b92915050565b600060408201905061185d6000830185611751565b61186a602083018461180f565b9392505050565b6000602082019050818103600083015261188a81611760565b9050919050565b600060208201905081810360008301526118aa81611783565b9050919050565b600060208201905081810360008301526118ca816117a6565b9050919050565b600060208201905081810360008301526118ea816117c9565b9050919050565b6000602082019050818103600083015261190a816117ec565b9050919050565b6000602082019050611926600083018461180f565b92915050565b6000602082019050611941600083018461181e565b92915050565b600082825260208201905092915050565b600061196382611a21565b915061196e83611a21565b92508261197e5761197d611ab0565b5b828204905092915050565b600061199482611a21565b915061199f83611a21565b9250817fffffffffffffffffffffffffffffffffffffffffffffffffffffffffffffffff04831182151516156119d8576119d7611a81565b5b828202905092915050565b60006119ee82611a01565b9050919050565b60008115159050919050565b600073ffffffffffffffffffffffffffffffffffffffff82169050919050565b6000819050919050565b600060ff82169050919050565b6000611a4382611a21565b91507fffffffffffffffffffffffffffffffffffffffffffffffffffffffffffffffff821415611a7657611a75611a81565b5b600182019050919050565b7f4e487b7100000000000000000000000000000000000000000000000000000000600052601160045260246000fd5b7f4e487b7100000000000000000000000000000000000000000000000000000000600052601260045260246000fd5b7f4e487b7100000000000000000000000000000000000000000000000000000000600052603260045260246000fd5b600080fd5b7f4f776e61626c653a206e6577206f776e657220697320746865207a65726f206160008201527f6464726573730000000000000000000000000000000000000000000000000000602082015250565b7f47796d4d4c4d3a3a75736572206973207a65726f206164647265737300000000600082015250565b7f47796d4d4c4d3a3a204f6e6c792062616e6b0000000000000000000000000000600082015250565b7f47796d4d4c4d3a3a7265666572726572206973207a65726f2061646472657373600082015250565b7f4f776e61626c653a2063616c6c6572206973206e6f7420746865206f776e6572600082015250565b611c0f816119e3565b8114611c1a57600080fd5b50565b611c26816119f5565b8114611c3157600080fd5b50565b611c3d81611a21565b8114611c4857600080fd5b5056fea2646970667358221220573e20430a25cffc3c9ef4013843048c2cbac9e988467823407dc2fe44a2fcbc64736f6c63430008070033",
  "devdoc": {
    "kind": "dev",
    "methods": {
      "addGymMLM(address,uint256)": {
        "params": {
          "_referrerId": "Address of referrer",
          "_user": "Address of user"
        }
      },
      "distributeRewards(uint256,address,address)": {
        "params": {
          "_user": "Address of user",
          "_wantAddr": "Address of want token contract",
          "_wantAmt": "Amount of assets that will be distributed"
        }
      },
      "owner()": {
        "details": "Returns the address of the current owner."
      },
      "renounceOwnership()": {
        "details": "Leaves the contract without owner. It will not be possible to call `onlyOwner` functions anymore. Can only be called by the current owner. NOTE: Renouncing ownership will leave the contract without an owner, thereby removing any functionality that is only available to the owner."
      },
      "transferOwnership(address)": {
        "details": "Transfers ownership of the contract to a new account (`newOwner`). Can only be called by the current owner."
      }
    },
    "version": 1
  },
  "userdoc": {
    "kind": "user",
    "methods": {
      "addGymMLM(address,uint256)": {
        "notice": "Function to add GymMLM"
      },
      "distributeRewards(uint256,address,address)": {
        "notice": "Function to distribute rewards to referrers"
      }
    },
    "version": 1
  },
  "storageLayout": {
    "storage": [
      {
        "astId": 7,
        "contract": "cache/solpp-generated-contracts/GymMLM.sol:GymMLM",
        "label": "_owner",
        "offset": 0,
        "slot": "0",
        "type": "t_address"
      },
      {
        "astId": 3322,
        "contract": "cache/solpp-generated-contracts/GymMLM.sol:GymMLM",
        "label": "currentId",
        "offset": 0,
        "slot": "1",
        "type": "t_uint256"
      },
      {
        "astId": 3324,
        "contract": "cache/solpp-generated-contracts/GymMLM.sol:GymMLM",
        "label": "bankAddress",
        "offset": 0,
        "slot": "2",
        "type": "t_address"
      },
      {
        "astId": 3328,
        "contract": "cache/solpp-generated-contracts/GymMLM.sol:GymMLM",
        "label": "directReferralBonuses",
        "offset": 0,
        "slot": "3",
        "type": "t_array(t_uint8)15_storage"
      },
      {
        "astId": 3332,
        "contract": "cache/solpp-generated-contracts/GymMLM.sol:GymMLM",
        "label": "addressToId",
        "offset": 0,
        "slot": "4",
        "type": "t_mapping(t_address,t_uint256)"
      },
      {
        "astId": 3336,
        "contract": "cache/solpp-generated-contracts/GymMLM.sol:GymMLM",
        "label": "idToAddress",
        "offset": 0,
        "slot": "5",
        "type": "t_mapping(t_uint256,t_address)"
      },
      {
        "astId": 3340,
        "contract": "cache/solpp-generated-contracts/GymMLM.sol:GymMLM",
        "label": "userToReferrer",
        "offset": 0,
        "slot": "6",
        "type": "t_mapping(t_address,t_address)"
      }
    ],
    "types": {
      "t_address": {
        "encoding": "inplace",
        "label": "address",
        "numberOfBytes": "20"
      },
      "t_array(t_uint8)15_storage": {
        "base": "t_uint8",
        "encoding": "inplace",
        "label": "uint8[15]",
        "numberOfBytes": "32"
      },
      "t_mapping(t_address,t_address)": {
        "encoding": "mapping",
        "key": "t_address",
        "label": "mapping(address => address)",
        "numberOfBytes": "32",
        "value": "t_address"
      },
      "t_mapping(t_address,t_uint256)": {
        "encoding": "mapping",
        "key": "t_address",
        "label": "mapping(address => uint256)",
        "numberOfBytes": "32",
        "value": "t_uint256"
      },
      "t_mapping(t_uint256,t_address)": {
        "encoding": "mapping",
        "key": "t_uint256",
        "label": "mapping(uint256 => address)",
        "numberOfBytes": "32",
        "value": "t_address"
      },
      "t_uint256": {
        "encoding": "inplace",
        "label": "uint256",
        "numberOfBytes": "32"
      },
      "t_uint8": {
        "encoding": "inplace",
        "label": "uint8",
        "numberOfBytes": "1"
      }
    }
  }
}