{
  "address": "0x83bCE25f327D397b104a7DE43Bd3191F89bf6955",
  "abi": [
    {
      "inputs": [
        {
          "internalType": "address",
          "name": "account",
          "type": "address"
        }
      ],
      "stateMutability": "nonpayable",
      "type": "constructor"
    },
    {
      "anonymous": false,
      "inputs": [
        {
          "indexed": true,
          "internalType": "address",
          "name": "owner",
          "type": "address"
        },
        {
          "indexed": true,
          "internalType": "address",
          "name": "spender",
          "type": "address"
        },
        {
          "indexed": false,
          "internalType": "uint256",
          "name": "amount",
          "type": "uint256"
        }
      ],
      "name": "Approval",
      "type": "event"
    },
    {
      "anonymous": false,
      "inputs": [
        {
          "indexed": true,
          "internalType": "address",
          "name": "delegator",
          "type": "address"
        },
        {
          "indexed": true,
          "internalType": "address",
          "name": "fromDelegate",
          "type": "address"
        },
        {
          "indexed": true,
          "internalType": "address",
          "name": "toDelegate",
          "type": "address"
        }
      ],
      "name": "DelegateChanged",
      "type": "event"
    },
    {
      "anonymous": false,
      "inputs": [
        {
          "indexed": true,
          "internalType": "address",
          "name": "delegate",
          "type": "address"
        },
        {
          "indexed": false,
          "internalType": "uint256",
          "name": "previousBalance",
          "type": "uint256"
        },
        {
          "indexed": false,
          "internalType": "uint256",
          "name": "newBalance",
          "type": "uint256"
        }
      ],
      "name": "DelegateVotesChanged",
      "type": "event"
    },
    {
      "anonymous": false,
      "inputs": [
        {
          "indexed": true,
          "internalType": "address",
          "name": "from",
          "type": "address"
        },
        {
          "indexed": true,
          "internalType": "address",
          "name": "to",
          "type": "address"
        },
        {
          "indexed": false,
          "internalType": "uint256",
          "name": "amount",
          "type": "uint256"
        }
      ],
      "name": "Transfer",
      "type": "event"
    },
    {
      "inputs": [],
      "name": "DELEGATION_TYPEHASH",
      "outputs": [
        {
          "internalType": "bytes32",
          "name": "",
          "type": "bytes32"
        }
      ],
      "stateMutability": "view",
      "type": "function"
    },
    {
      "inputs": [],
      "name": "DOMAIN_TYPEHASH",
      "outputs": [
        {
          "internalType": "bytes32",
          "name": "",
          "type": "bytes32"
        }
      ],
      "stateMutability": "view",
      "type": "function"
    },
    {
      "inputs": [
        {
          "internalType": "address",
          "name": "account",
          "type": "address"
        },
        {
          "internalType": "address",
          "name": "spender",
          "type": "address"
        }
      ],
      "name": "allowance",
      "outputs": [
        {
          "internalType": "uint256",
          "name": "",
          "type": "uint256"
        }
      ],
      "stateMutability": "view",
      "type": "function"
    },
    {
      "inputs": [
        {
          "internalType": "address",
          "name": "spender",
          "type": "address"
        },
        {
          "internalType": "uint256",
          "name": "rawAmount",
          "type": "uint256"
        }
      ],
      "name": "approve",
      "outputs": [
        {
          "internalType": "bool",
          "name": "",
          "type": "bool"
        }
      ],
      "stateMutability": "nonpayable",
      "type": "function"
    },
    {
      "inputs": [
        {
          "internalType": "address",
          "name": "account",
          "type": "address"
        }
      ],
      "name": "balanceOf",
      "outputs": [
        {
          "internalType": "uint256",
          "name": "",
          "type": "uint256"
        }
      ],
      "stateMutability": "view",
      "type": "function"
    },
    {
      "inputs": [
        {
          "internalType": "uint256",
          "name": "rawAmount",
          "type": "uint256"
        }
      ],
      "name": "burn",
      "outputs": [],
      "stateMutability": "nonpayable",
      "type": "function"
    },
    {
      "inputs": [
        {
          "internalType": "address",
          "name": "account",
          "type": "address"
        },
        {
          "internalType": "uint256",
          "name": "rawAmount",
          "type": "uint256"
        }
      ],
      "name": "burnFrom",
      "outputs": [],
      "stateMutability": "nonpayable",
      "type": "function"
    },
    {
      "inputs": [
        {
          "internalType": "address",
          "name": "",
          "type": "address"
        },
        {
          "internalType": "uint32",
          "name": "",
          "type": "uint32"
        }
      ],
      "name": "checkpoints",
      "outputs": [
        {
          "internalType": "uint32",
          "name": "fromBlock",
          "type": "uint32"
        },
        {
          "internalType": "uint96",
          "name": "votes",
          "type": "uint96"
        }
      ],
      "stateMutability": "view",
      "type": "function"
    },
    {
      "inputs": [],
      "name": "decimals",
      "outputs": [
        {
          "internalType": "uint8",
          "name": "",
          "type": "uint8"
        }
      ],
      "stateMutability": "view",
      "type": "function"
    },
    {
      "inputs": [
        {
          "internalType": "address",
          "name": "delegatee",
          "type": "address"
        }
      ],
      "name": "delegate",
      "outputs": [],
      "stateMutability": "nonpayable",
      "type": "function"
    },
    {
      "inputs": [
        {
          "internalType": "address",
          "name": "delegatee",
          "type": "address"
        },
        {
          "internalType": "uint256",
          "name": "nonce",
          "type": "uint256"
        },
        {
          "internalType": "uint256",
          "name": "expiry",
          "type": "uint256"
        },
        {
          "internalType": "uint8",
          "name": "v",
          "type": "uint8"
        },
        {
          "internalType": "bytes32",
          "name": "r",
          "type": "bytes32"
        },
        {
          "internalType": "bytes32",
          "name": "s",
          "type": "bytes32"
        }
      ],
      "name": "delegateBySig",
      "outputs": [],
      "stateMutability": "nonpayable",
      "type": "function"
    },
    {
      "inputs": [
        {
          "internalType": "address",
          "name": "",
          "type": "address"
        }
      ],
      "name": "delegates",
      "outputs": [
        {
          "internalType": "address",
          "name": "",
          "type": "address"
        }
      ],
      "stateMutability": "view",
      "type": "function"
    },
    {
      "inputs": [
        {
          "internalType": "address",
          "name": "account",
          "type": "address"
        }
      ],
      "name": "getCurrentVotes",
      "outputs": [
        {
          "internalType": "uint96",
          "name": "",
          "type": "uint96"
        }
      ],
      "stateMutability": "view",
      "type": "function"
    },
    {
      "inputs": [
        {
          "internalType": "address",
          "name": "account",
          "type": "address"
        },
        {
          "internalType": "uint256",
          "name": "blockNumber",
          "type": "uint256"
        }
      ],
      "name": "getPriorVotes",
      "outputs": [
        {
          "internalType": "uint96",
          "name": "",
          "type": "uint96"
        }
      ],
      "stateMutability": "view",
      "type": "function"
    },
    {
      "inputs": [],
      "name": "name",
      "outputs": [
        {
          "internalType": "string",
          "name": "",
          "type": "string"
        }
      ],
      "stateMutability": "view",
      "type": "function"
    },
    {
      "inputs": [
        {
          "internalType": "address",
          "name": "",
          "type": "address"
        }
      ],
      "name": "nonces",
      "outputs": [
        {
          "internalType": "uint256",
          "name": "",
          "type": "uint256"
        }
      ],
      "stateMutability": "view",
      "type": "function"
    },
    {
      "inputs": [
        {
          "internalType": "address",
          "name": "",
          "type": "address"
        }
      ],
      "name": "numCheckpoints",
      "outputs": [
        {
          "internalType": "uint32",
          "name": "",
          "type": "uint32"
        }
      ],
      "stateMutability": "view",
      "type": "function"
    },
    {
      "inputs": [],
      "name": "symbol",
      "outputs": [
        {
          "internalType": "string",
          "name": "",
          "type": "string"
        }
      ],
      "stateMutability": "view",
      "type": "function"
    },
    {
      "inputs": [],
      "name": "totalSupply",
      "outputs": [
        {
          "internalType": "uint256",
          "name": "",
          "type": "uint256"
        }
      ],
      "stateMutability": "view",
      "type": "function"
    },
    {
      "inputs": [
        {
          "internalType": "address",
          "name": "dst",
          "type": "address"
        },
        {
          "internalType": "uint256",
          "name": "rawAmount",
          "type": "uint256"
        }
      ],
      "name": "transfer",
      "outputs": [
        {
          "internalType": "bool",
          "name": "",
          "type": "bool"
        }
      ],
      "stateMutability": "nonpayable",
      "type": "function"
    },
    {
      "inputs": [
        {
          "internalType": "address",
          "name": "src",
          "type": "address"
        },
        {
          "internalType": "address",
          "name": "dst",
          "type": "address"
        },
        {
          "internalType": "uint256",
          "name": "rawAmount",
          "type": "uint256"
        }
      ],
      "name": "transferFrom",
      "outputs": [
        {
          "internalType": "bool",
          "name": "",
          "type": "bool"
        }
      ],
      "stateMutability": "nonpayable",
      "type": "function"
    }
  ],
  "transactionHash": "0x6be92818822c5e613c666377bd3da0dac9b5747f62d8d2fac53134abba7dc073",
  "args": [
    "0x90F79bf6EB2c4f870365E785982E1f101E93b906"
  ],
  "solcInputHash": "5a118c8f1ea254717230c933c5d5a7d2",
  "bytecode": "0x60806040526b01f04ef12cb04cf1580000006000553480156200002157600080fd5b506040516200360f3803806200360f83398181016040528101906200004791906200013f565b600054600260008373ffffffffffffffffffffffffffffffffffffffff1673ffffffffffffffffffffffffffffffffffffffff16815260200190815260200160002060006101000a8154816bffffffffffffffffffffffff02191690836bffffffffffffffffffffffff1602179055508073ffffffffffffffffffffffffffffffffffffffff16600073ffffffffffffffffffffffffffffffffffffffff167fddf252ad1be2c89b69c2b068fc378daa952ba7f163c4a11628f55a4df523b3ef60005460405162000119919062000182565b60405180910390a350620001fc565b6000815190506200013981620001e2565b92915050565b600060208284031215620001585762000157620001dd565b5b6000620001688482850162000128565b91505092915050565b6200017c81620001d3565b82525050565b600060208201905062000199600083018462000171565b92915050565b6000620001ac82620001b3565b9050919050565b600073ffffffffffffffffffffffffffffffffffffffff82169050919050565b6000819050919050565b600080fd5b620001ed816200019f565b8114620001f957600080fd5b50565b613403806200020c6000396000f3fe608060405234801561001057600080fd5b50600436106101375760003560e01c806370a08231116100b8578063a9059cbb1161007c578063a9059cbb14610376578063b4b5ea57146103a6578063c3cda520146103d6578063dd62ed3e146103f2578063e7a324dc14610422578063f1127ed81461044057610137565b806370a08231146102ac578063782d6fe1146102dc57806379cc67901461030c5780637ecebe001461032857806395d89b411461035857610137565b8063313ce567116100ff578063313ce567146101f657806342966c6814610214578063587cde1e146102305780635c19a95c146102605780636fcfff451461027c57610137565b806306fdde031461013c578063095ea7b31461015a57806318160ddd1461018a57806320606b70146101a857806323b872dd146101c6575b600080fd5b610144610471565b6040516101519190612a2a565b60405180910390f35b610174600480360381019061016f9190612596565b6104aa565b6040516101819190612925565b60405180910390f35b610192610629565b60405161019f9190612b4c565b60405180910390f35b6101b061062f565b6040516101bd9190612940565b60405180910390f35b6101e060048036038101906101db9190612543565b610653565b6040516101ed9190612925565b60405180910390f35b6101fe6108c7565b60405161020b9190612bab565b60405180910390f35b61022e600480360381019061022991906126a3565b6108cc565b005b61024a600480360381019061024591906124d6565b610900565b604051610257919061290a565b60405180910390f35b61027a600480360381019061027591906124d6565b610933565b005b610296600480360381019061029191906124d6565b610940565b6040516102a39190612b67565b60405180910390f35b6102c660048036038101906102c191906124d6565b610963565b6040516102d39190612b4c565b60405180910390f35b6102f660048036038101906102f19190612596565b6109d2565b6040516103039190612be1565b60405180910390f35b61032660048036038101906103219190612596565b610e0d565b005b610342600480360381019061033d91906124d6565b610ff1565b60405161034f9190612b4c565b60405180910390f35b610360611009565b60405161036d9190612a2a565b60405180910390f35b610390600480360381019061038b9190612596565b611042565b60405161039d9190612925565b60405180910390f35b6103c060048036038101906103bb91906124d6565b61107f565b6040516103cd9190612be1565b60405180910390f35b6103f060048036038101906103eb91906125d6565b611176565b005b61040c60048036038101906104079190612503565b611439565b6040516104199190612b4c565b60405180910390f35b61042a6114e6565b6040516104379190612940565b60405180910390f35b61045a60048036038101906104559190612663565b61150a565b604051610468929190612b82565b60405180910390f35b6040518060400160405280600981526020017f47594d20544f4b454e000000000000000000000000000000000000000000000081525081565b6000807fffffffffffffffffffffffffffffffffffffffffffffffffffffffffffffffff8314156104e9576bffffffffffffffffffffffff905061050e565b61050b8360405180606001604052806029815260200161331760299139611563565b90505b80600160003373ffffffffffffffffffffffffffffffffffffffff1673ffffffffffffffffffffffffffffffffffffffff16815260200190815260200160002060008673ffffffffffffffffffffffffffffffffffffffff1673ffffffffffffffffffffffffffffffffffffffff16815260200190815260200160002060006101000a8154816bffffffffffffffffffffffff02191690836bffffffffffffffffffffffff1602179055508373ffffffffffffffffffffffffffffffffffffffff163373ffffffffffffffffffffffffffffffffffffffff167f8c5be1e5ebec7d5bd14f71427d1e84f3dd0314c0f7b2291e5b200ac8c7c3b925836040516106169190612bc6565b60405180910390a3600191505092915050565b60005481565b7f8cad95687ba82c2ce50e74f7b754645e5117c3a5bec8151c0726d5857980a86681565b6000803390506000600160008773ffffffffffffffffffffffffffffffffffffffff1673ffffffffffffffffffffffffffffffffffffffff16815260200190815260200160002060008373ffffffffffffffffffffffffffffffffffffffff1673ffffffffffffffffffffffffffffffffffffffff16815260200190815260200160002060009054906101000a90046bffffffffffffffffffffffff16905060006107168560405180606001604052806029815260200161331760299139611563565b90508673ffffffffffffffffffffffffffffffffffffffff168373ffffffffffffffffffffffffffffffffffffffff161415801561077057506bffffffffffffffffffffffff8016826bffffffffffffffffffffffff1614155b156108ae57600061079a83836040518060800160405280604181526020016132ab604191396115c1565b905080600160008a73ffffffffffffffffffffffffffffffffffffffff1673ffffffffffffffffffffffffffffffffffffffff16815260200190815260200160002060008673ffffffffffffffffffffffffffffffffffffffff1673ffffffffffffffffffffffffffffffffffffffff16815260200190815260200160002060006101000a8154816bffffffffffffffffffffffff02191690836bffffffffffffffffffffffff1602179055508373ffffffffffffffffffffffffffffffffffffffff168873ffffffffffffffffffffffffffffffffffffffff167f8c5be1e5ebec7d5bd14f71427d1e84f3dd0314c0f7b2291e5b200ac8c7c3b925836040516108a49190612bc6565b60405180910390a3505b6108b987878361163b565b600193505050509392505050565b601281565b60006108f08260405180606001604052806029815260200161331760299139611563565b90506108fc3382611a1c565b5050565b60036020528060005260406000206000915054906101000a900473ffffffffffffffffffffffffffffffffffffffff1681565b61093d3382611bb0565b50565b60056020528060005260406000206000915054906101000a900463ffffffff1681565b6000600260008373ffffffffffffffffffffffffffffffffffffffff1673ffffffffffffffffffffffffffffffffffffffff16815260200190815260200160002060009054906101000a90046bffffffffffffffffffffffff166bffffffffffffffffffffffff169050919050565b6000438210610a16576040517f08c379a0000000000000000000000000000000000000000000000000000000008152600401610a0d90612aac565b60405180910390fd5b6000600560008573ffffffffffffffffffffffffffffffffffffffff1673ffffffffffffffffffffffffffffffffffffffff16815260200190815260200160002060009054906101000a900463ffffffff16905060008163ffffffff161415610a83576000915050610e07565b82600460008673ffffffffffffffffffffffffffffffffffffffff1673ffffffffffffffffffffffffffffffffffffffff1681526020019081526020016000206000600184610ad29190612d2d565b63ffffffff1663ffffffff16815260200190815260200160002060000160009054906101000a900463ffffffff1663ffffffff1611610b9757600460008573ffffffffffffffffffffffffffffffffffffffff1673ffffffffffffffffffffffffffffffffffffffff1681526020019081526020016000206000600183610b599190612d2d565b63ffffffff1663ffffffff16815260200190815260200160002060000160049054906101000a90046bffffffffffffffffffffffff16915050610e07565b82600460008673ffffffffffffffffffffffffffffffffffffffff1673ffffffffffffffffffffffffffffffffffffffff16815260200190815260200160002060008063ffffffff16815260200190815260200160002060000160009054906101000a900463ffffffff1663ffffffff161115610c18576000915050610e07565b600080600183610c289190612d2d565b90505b8163ffffffff168163ffffffff161115610d8957600060028383610c4f9190612d2d565b610c599190612cc8565b82610c649190612d2d565b90506000600460008973ffffffffffffffffffffffffffffffffffffffff1673ffffffffffffffffffffffffffffffffffffffff16815260200190815260200160002060008363ffffffff1663ffffffff1681526020019081526020016000206040518060400160405290816000820160009054906101000a900463ffffffff1663ffffffff1663ffffffff1681526020016000820160049054906101000a90046bffffffffffffffffffffffff166bffffffffffffffffffffffff166bffffffffffffffffffffffff1681525050905086816000015163ffffffff161415610d5857806020015195505050505050610e07565b86816000015163ffffffff161015610d7257819350610d82565b600182610d7f9190612d2d565b92505b5050610c2b565b600460008773ffffffffffffffffffffffffffffffffffffffff1673ffffffffffffffffffffffffffffffffffffffff16815260200190815260200160002060008363ffffffff1663ffffffff16815260200190815260200160002060000160049054906101000a90046bffffffffffffffffffffffff1693505050505b92915050565b6000610e318260405180606001604052806029815260200161331760299139611563565b90506000600160008573ffffffffffffffffffffffffffffffffffffffff1673ffffffffffffffffffffffffffffffffffffffff16815260200190815260200160002060003373ffffffffffffffffffffffffffffffffffffffff1673ffffffffffffffffffffffffffffffffffffffff16815260200190815260200160002060009054906101000a90046bffffffffffffffffffffffff169050816bffffffffffffffffffffffff16816bffffffffffffffffffffffff161015610f2b576040517f08c379a0000000000000000000000000000000000000000000000000000000008152600401610f2290612a6c565b60405180910390fd5b8181610f379190612d61565b600160008673ffffffffffffffffffffffffffffffffffffffff1673ffffffffffffffffffffffffffffffffffffffff16815260200190815260200160002060003373ffffffffffffffffffffffffffffffffffffffff1673ffffffffffffffffffffffffffffffffffffffff16815260200190815260200160002060006101000a8154816bffffffffffffffffffffffff02191690836bffffffffffffffffffffffff160217905550610feb8483611a1c565b50505050565b60066020528060005260406000206000915090505481565b6040518060400160405280600381526020017f47594d000000000000000000000000000000000000000000000000000000000081525081565b600080611067836040518060600160405280602a815260200161336c602a9139611563565b905061107433858361163b565b600191505092915050565b600080600560008473ffffffffffffffffffffffffffffffffffffffff1673ffffffffffffffffffffffffffffffffffffffff16815260200190815260200160002060009054906101000a900463ffffffff16905060008163ffffffff16116110e957600061116e565b600460008473ffffffffffffffffffffffffffffffffffffffff1673ffffffffffffffffffffffffffffffffffffffff16815260200190815260200160002060006001836111379190612d2d565b63ffffffff1663ffffffff16815260200190815260200160002060000160049054906101000a90046bffffffffffffffffffffffff165b915050919050565b60007f8cad95687ba82c2ce50e74f7b754645e5117c3a5bec8151c0726d5857980a8666040518060400160405280600981526020017f47594d20544f4b454e0000000000000000000000000000000000000000000000815250805190602001206111de611d70565b306040516020016111f294939291906129a0565b60405160208183030381529060405280519060200120905060007fe48329057bfd03d55e49b547132e39cffd9c1820ad7b9d4c5307691425d15adf888888604051602001611243949392919061295b565b604051602081830303815290604052805190602001209050600082826040516020016112709291906128d3565b6040516020818303038152906040528051906020012090506000600182888888604051600081526020016040526040516112ad94939291906129e5565b6020604051602081039080840390855afa1580156112cf573d6000803e3d6000fd5b505050602060405103519050600073ffffffffffffffffffffffffffffffffffffffff168173ffffffffffffffffffffffffffffffffffffffff16141561134b576040517f08c379a000000000000000000000000000000000000000000000000000000000815260040161134290612a8c565b60405180910390fd5b600660008273ffffffffffffffffffffffffffffffffffffffff1673ffffffffffffffffffffffffffffffffffffffff168152602001908152602001600020600081548092919061139b90612e61565b9190505589146113e0576040517f08c379a00000000000000000000000000000000000000000000000000000000081526004016113d790612b0c565b60405180910390fd5b87421115611423576040517f08c379a000000000000000000000000000000000000000000000000000000000815260040161141a90612acc565b60405180910390fd5b61142d818b611bb0565b50505050505050505050565b6000600160008473ffffffffffffffffffffffffffffffffffffffff1673ffffffffffffffffffffffffffffffffffffffff16815260200190815260200160002060008373ffffffffffffffffffffffffffffffffffffffff1673ffffffffffffffffffffffffffffffffffffffff16815260200190815260200160002060009054906101000a90046bffffffffffffffffffffffff166bffffffffffffffffffffffff16905092915050565b7fe48329057bfd03d55e49b547132e39cffd9c1820ad7b9d4c5307691425d15adf81565b6004602052816000526040600020602052806000526040600020600091509150508060000160009054906101000a900463ffffffff16908060000160049054906101000a90046bffffffffffffffffffffffff16905082565b60006c01000000000000000000000000831082906115b7576040517f08c379a00000000000000000000000000000000000000000000000000000000081526004016115ae9190612a2a565b60405180910390fd5b5082905092915050565b6000836bffffffffffffffffffffffff16836bffffffffffffffffffffffff1611158290611625576040517f08c379a000000000000000000000000000000000000000000000000000000000815260040161161c9190612a2a565b60405180910390fd5b5082846116329190612d61565b90509392505050565b600073ffffffffffffffffffffffffffffffffffffffff168373ffffffffffffffffffffffffffffffffffffffff1614156116ab576040517f08c379a00000000000000000000000000000000000000000000000000000000081526004016116a290612b2c565b60405180910390fd5b600073ffffffffffffffffffffffffffffffffffffffff168273ffffffffffffffffffffffffffffffffffffffff16141561171b576040517f08c379a000000000000000000000000000000000000000000000000000000000815260040161171290612a4c565b60405180910390fd5b611795600260008573ffffffffffffffffffffffffffffffffffffffff1673ffffffffffffffffffffffffffffffffffffffff16815260200190815260200160002060009054906101000a90046bffffffffffffffffffffffff16826040518060600160405280603a8152602001613271603a91396115c1565b600260008573ffffffffffffffffffffffffffffffffffffffff1673ffffffffffffffffffffffffffffffffffffffff16815260200190815260200160002060006101000a8154816bffffffffffffffffffffffff02191690836bffffffffffffffffffffffff16021790555061187c600260008473ffffffffffffffffffffffffffffffffffffffff1673ffffffffffffffffffffffffffffffffffffffff16815260200190815260200160002060009054906101000a90046bffffffffffffffffffffffff168260405180606001604052806034815260200161323d60349139611d7d565b600260008473ffffffffffffffffffffffffffffffffffffffff1673ffffffffffffffffffffffffffffffffffffffff16815260200190815260200160002060006101000a8154816bffffffffffffffffffffffff02191690836bffffffffffffffffffffffff1602179055508173ffffffffffffffffffffffffffffffffffffffff168373ffffffffffffffffffffffffffffffffffffffff167fddf252ad1be2c89b69c2b068fc378daa952ba7f163c4a11628f55a4df523b3ef836040516119469190612bc6565b60405180910390a3611a17600360008573ffffffffffffffffffffffffffffffffffffffff1673ffffffffffffffffffffffffffffffffffffffff16815260200190815260200160002060009054906101000a900473ffffffffffffffffffffffffffffffffffffffff16600360008573ffffffffffffffffffffffffffffffffffffffff1673ffffffffffffffffffffffffffffffffffffffff16815260200190815260200160002060009054906101000a900473ffffffffffffffffffffffffffffffffffffffff1683611dfc565b505050565b600073ffffffffffffffffffffffffffffffffffffffff168273ffffffffffffffffffffffffffffffffffffffff161415611a8c576040517f08c379a0000000000000000000000000000000000000000000000000000000008152600401611a8390612aec565b60405180910390fd5b80600260008473ffffffffffffffffffffffffffffffffffffffff1673ffffffffffffffffffffffffffffffffffffffff16815260200190815260200160002060008282829054906101000a90046bffffffffffffffffffffffff16611af29190612d61565b92506101000a8154816bffffffffffffffffffffffff02191690836bffffffffffffffffffffffff160217905550806bffffffffffffffffffffffff16600080828254611b3f9190612cf9565b92505081905550600073ffffffffffffffffffffffffffffffffffffffff168273ffffffffffffffffffffffffffffffffffffffff167fddf252ad1be2c89b69c2b068fc378daa952ba7f163c4a11628f55a4df523b3ef83604051611ba49190612bc6565b60405180910390a35050565b6000600360008473ffffffffffffffffffffffffffffffffffffffff1673ffffffffffffffffffffffffffffffffffffffff16815260200190815260200160002060009054906101000a900473ffffffffffffffffffffffffffffffffffffffff1690506000600260008573ffffffffffffffffffffffffffffffffffffffff1673ffffffffffffffffffffffffffffffffffffffff16815260200190815260200160002060009054906101000a90046bffffffffffffffffffffffff16905082600360008673ffffffffffffffffffffffffffffffffffffffff1673ffffffffffffffffffffffffffffffffffffffff16815260200190815260200160002060006101000a81548173ffffffffffffffffffffffffffffffffffffffff021916908373ffffffffffffffffffffffffffffffffffffffff1602179055508273ffffffffffffffffffffffffffffffffffffffff168273ffffffffffffffffffffffffffffffffffffffff168573ffffffffffffffffffffffffffffffffffffffff167f3134e8a2e6d97e929a7e54011ea5485d7d196dd5f0ba4d4ef95803e8e3fc257f60405160405180910390a4611d6a828483611dfc565b50505050565b6000804690508091505090565b6000808385611d8c9190612c86565b9050846bffffffffffffffffffffffff16816bffffffffffffffffffffffff1610158390611df0576040517f08c379a0000000000000000000000000000000000000000000000000000000008152600401611de79190612a2a565b60405180910390fd5b50809150509392505050565b8173ffffffffffffffffffffffffffffffffffffffff168373ffffffffffffffffffffffffffffffffffffffff1614158015611e4657506000816bffffffffffffffffffffffff16115b1561210457600073ffffffffffffffffffffffffffffffffffffffff168373ffffffffffffffffffffffffffffffffffffffff1614611fa7576000600560008573ffffffffffffffffffffffffffffffffffffffff1673ffffffffffffffffffffffffffffffffffffffff16815260200190815260200160002060009054906101000a900463ffffffff1690506000808263ffffffff1611611ee9576000611f6e565b600460008673ffffffffffffffffffffffffffffffffffffffff1673ffffffffffffffffffffffffffffffffffffffff1681526020019081526020016000206000600184611f379190612d2d565b63ffffffff1663ffffffff16815260200190815260200160002060000160049054906101000a90046bffffffffffffffffffffffff165b90506000611f9582856040518060600160405280602c8152602001613340602c91396115c1565b9050611fa386848484612109565b5050505b600073ffffffffffffffffffffffffffffffffffffffff168273ffffffffffffffffffffffffffffffffffffffff1614612103576000600560008473ffffffffffffffffffffffffffffffffffffffff1673ffffffffffffffffffffffffffffffffffffffff16815260200190815260200160002060009054906101000a900463ffffffff1690506000808263ffffffff16116120455760006120ca565b600460008573ffffffffffffffffffffffffffffffffffffffff1673ffffffffffffffffffffffffffffffffffffffff16815260200190815260200160002060006001846120939190612d2d565b63ffffffff1663ffffffff16815260200190815260200160002060000160049054906101000a90046bffffffffffffffffffffffff165b905060006120f182856040518060600160405280602b81526020016132ec602b9139611d7d565b90506120ff85848484612109565b5050505b5b505050565b600061212d4360405180606001604052806038815260200161339660389139612417565b905060008463ffffffff161180156121cb57508063ffffffff16600460008773ffffffffffffffffffffffffffffffffffffffff1673ffffffffffffffffffffffffffffffffffffffff16815260200190815260200160002060006001876121959190612d2d565b63ffffffff1663ffffffff16815260200190815260200160002060000160009054906101000a900463ffffffff1663ffffffff16145b1561226f5781600460008773ffffffffffffffffffffffffffffffffffffffff1673ffffffffffffffffffffffffffffffffffffffff168152602001908152602001600020600060018761221f9190612d2d565b63ffffffff1663ffffffff16815260200190815260200160002060000160046101000a8154816bffffffffffffffffffffffff02191690836bffffffffffffffffffffffff1602179055506123c0565b60405180604001604052808263ffffffff168152602001836bffffffffffffffffffffffff16815250600460008773ffffffffffffffffffffffffffffffffffffffff1673ffffffffffffffffffffffffffffffffffffffff16815260200190815260200160002060008663ffffffff1663ffffffff16815260200190815260200160002060008201518160000160006101000a81548163ffffffff021916908363ffffffff16021790555060208201518160000160046101000a8154816bffffffffffffffffffffffff02191690836bffffffffffffffffffffffff1602179055509050506001846123629190612c4c565b600560008773ffffffffffffffffffffffffffffffffffffffff1673ffffffffffffffffffffffffffffffffffffffff16815260200190815260200160002060006101000a81548163ffffffff021916908363ffffffff1602179055505b8473ffffffffffffffffffffffffffffffffffffffff167fdec2bacdd2f05b59de34da9b523dff8be42e5e38e818c82fdb0bae774387a7248484604051612408929190612bfc565b60405180910390a25050505050565b600064010000000083108290612463576040517f08c379a000000000000000000000000000000000000000000000000000000000815260040161245a9190612a2a565b60405180910390fd5b5082905092915050565b60008135905061247c816131c9565b92915050565b600081359050612491816131e0565b92915050565b6000813590506124a6816131f7565b92915050565b6000813590506124bb8161320e565b92915050565b6000813590506124d081613225565b92915050565b6000602082840312156124ec576124eb612f12565b5b60006124fa8482850161246d565b91505092915050565b6000806040838503121561251a57612519612f12565b5b60006125288582860161246d565b92505060206125398582860161246d565b9150509250929050565b60008060006060848603121561255c5761255b612f12565b5b600061256a8682870161246d565b935050602061257b8682870161246d565b925050604061258c86828701612497565b9150509250925092565b600080604083850312156125ad576125ac612f12565b5b60006125bb8582860161246d565b92505060206125cc85828601612497565b9150509250929050565b60008060008060008060c087890312156125f3576125f2612f12565b5b600061260189828a0161246d565b965050602061261289828a01612497565b955050604061262389828a01612497565b945050606061263489828a016124c1565b935050608061264589828a01612482565b92505060a061265689828a01612482565b9150509295509295509295565b6000806040838503121561267a57612679612f12565b5b60006126888582860161246d565b9250506020612699858286016124ac565b9150509250929050565b6000602082840312156126b9576126b8612f12565b5b60006126c784828501612497565b91505092915050565b6126d981612d95565b82525050565b6126e881612da7565b82525050565b6126f781612db3565b82525050565b61270e61270982612db3565b612eaa565b82525050565b600061271f82612c25565b6127298185612c30565b9350612739818560208601612e2e565b61274281612f17565b840191505092915050565b600061275a603e83612c30565b915061276582612f28565b604082019050919050565b600061277d602783612c30565b915061278882612f77565b604082019050919050565b60006127a0600283612c41565b91506127ab82612fc6565b600282019050919050565b60006127c3602a83612c30565b91506127ce82612fef565b604082019050919050565b60006127e6602b83612c30565b91506127f18261303e565b604082019050919050565b6000612809602a83612c30565b91506128148261308d565b604082019050919050565b600061282c602483612c30565b9150612837826130dc565b604082019050919050565b600061284f602683612c30565b915061285a8261312b565b604082019050919050565b6000612872604083612c30565b915061287d8261317a565b604082019050919050565b61289181612ddd565b82525050565b6128a081612de7565b82525050565b6128af81612df7565b82525050565b6128be81612e1c565b82525050565b6128cd81612e04565b82525050565b60006128de82612793565b91506128ea82856126fd565b6020820191506128fa82846126fd565b6020820191508190509392505050565b600060208201905061291f60008301846126d0565b92915050565b600060208201905061293a60008301846126df565b92915050565b600060208201905061295560008301846126ee565b92915050565b600060808201905061297060008301876126ee565b61297d60208301866126d0565b61298a6040830185612888565b6129976060830184612888565b95945050505050565b60006080820190506129b560008301876126ee565b6129c260208301866126ee565b6129cf6040830185612888565b6129dc60608301846126d0565b95945050505050565b60006080820190506129fa60008301876126ee565b612a0760208301866128a6565b612a1460408301856126ee565b612a2160608301846126ee565b95945050505050565b60006020820190508181036000830152612a448184612714565b905092915050565b60006020820190508181036000830152612a658161274d565b9050919050565b60006020820190508181036000830152612a8581612770565b9050919050565b60006020820190508181036000830152612aa5816127b6565b9050919050565b60006020820190508181036000830152612ac5816127d9565b9050919050565b60006020820190508181036000830152612ae5816127fc565b9050919050565b60006020820190508181036000830152612b058161281f565b9050919050565b60006020820190508181036000830152612b2581612842565b9050919050565b60006020820190508181036000830152612b4581612865565b9050919050565b6000602082019050612b616000830184612888565b92915050565b6000602082019050612b7c6000830184612897565b92915050565b6000604082019050612b976000830185612897565b612ba460208301846128c4565b9392505050565b6000602082019050612bc060008301846128a6565b92915050565b6000602082019050612bdb60008301846128b5565b92915050565b6000602082019050612bf660008301846128c4565b92915050565b6000604082019050612c1160008301856128b5565b612c1e60208301846128b5565b9392505050565b600081519050919050565b600082825260208201905092915050565b600081905092915050565b6000612c5782612de7565b9150612c6283612de7565b92508263ffffffff03821115612c7b57612c7a612eb4565b5b828201905092915050565b6000612c9182612e04565b9150612c9c83612e04565b9250826bffffffffffffffffffffffff03821115612cbd57612cbc612eb4565b5b828201905092915050565b6000612cd382612de7565b9150612cde83612de7565b925082612cee57612ced612ee3565b5b828204905092915050565b6000612d0482612ddd565b9150612d0f83612ddd565b925082821015612d2257612d21612eb4565b5b828203905092915050565b6000612d3882612de7565b9150612d4383612de7565b925082821015612d5657612d55612eb4565b5b828203905092915050565b6000612d6c82612e04565b9150612d7783612e04565b925082821015612d8a57612d89612eb4565b5b828203905092915050565b6000612da082612dbd565b9050919050565b60008115159050919050565b6000819050919050565b600073ffffffffffffffffffffffffffffffffffffffff82169050919050565b6000819050919050565b600063ffffffff82169050919050565b600060ff82169050919050565b60006bffffffffffffffffffffffff82169050919050565b6000612e2782612e04565b9050919050565b60005b83811015612e4c578082015181840152602081019050612e31565b83811115612e5b576000848401525b50505050565b6000612e6c82612ddd565b91507fffffffffffffffffffffffffffffffffffffffffffffffffffffffffffffffff821415612e9f57612e9e612eb4565b5b600182019050919050565b6000819050919050565b7f4e487b7100000000000000000000000000000000000000000000000000000000600052601160045260246000fd5b7f4e487b7100000000000000000000000000000000000000000000000000000000600052601260045260246000fd5b600080fd5b6000601f19601f8301169050919050565b7f47796d546f6b656e3a3a5f7472616e73666572546f6b656e733a2063616e6e6f60008201527f74207472616e7366657220746f20746865207a65726f20616464726573730000602082015250565b7f47796d546f6b656e3a206275726e20616d6f756e74206578636565647320616c60008201527f6c6f77616e636500000000000000000000000000000000000000000000000000602082015250565b7f1901000000000000000000000000000000000000000000000000000000000000600082015250565b7f47796d546f6b656e3a3a64656c656761746542795369673a20696e76616c696460008201527f207369676e617475726500000000000000000000000000000000000000000000602082015250565b7f47796d546f6b656e3a3a6765745072696f72566f7465733a206e6f742079657460008201527f2064657465726d696e6564000000000000000000000000000000000000000000602082015250565b7f47796d546f6b656e3a3a64656c656761746542795369673a207369676e61747560008201527f7265206578706972656400000000000000000000000000000000000000000000602082015250565b7f47796d546f6b656e3a206275726e2066726f6d20746865207a65726f2061646460008201527f7265737300000000000000000000000000000000000000000000000000000000602082015250565b7f47796d546f6b656e3a3a64656c656761746542795369673a20696e76616c696460008201527f206e6f6e63650000000000000000000000000000000000000000000000000000602082015250565b7f47796d546f6b656e3a3a5f7472616e73666572546f6b656e733a2063616e6e6f60008201527f74207472616e736665722066726f6d20746865207a65726f2061646472657373602082015250565b6131d281612d95565b81146131dd57600080fd5b50565b6131e981612db3565b81146131f457600080fd5b50565b61320081612ddd565b811461320b57600080fd5b50565b61321781612de7565b811461322257600080fd5b50565b61322e81612df7565b811461323957600080fd5b5056fe47796d546f6b656e3a3a5f7472616e73666572546f6b656e733a207472616e7366657220616d6f756e74206f766572666c6f777347796d546f6b656e3a3a5f7472616e73666572546f6b656e733a207472616e7366657220616d6f756e7420657863656564732062616c616e636547796d546f6b656e3a3a7472616e7366657246726f6d3a207472616e7366657220616d6f756e742065786365656473207370656e64657220616c6c6f77616e636547796d546f6b656e3a3a5f6d6f7665566f7465733a20766f746520616d6f756e74206f766572666c6f777347796d546f6b656e3a3a617070726f76653a20616d6f756e742065786365656473203936206269747347796d546f6b656e3a3a5f6d6f7665566f7465733a20766f746520616d6f756e7420756e646572666c6f777347796d546f6b656e3a3a7472616e736665723a20616d6f756e742065786365656473203936206269747347796d546f6b656e3a3a5f7772697465436865636b706f696e743a20626c6f636b206e756d62657220657863656564732033322062697473a26469706673582212201642ebdc59edb6fd222b2e1214ca99d98879a23bc9464d4173952b941def052364736f6c63430008070033",
  "devdoc": {
    "kind": "dev",
    "methods": {
      "allowance(address,address)": {
        "params": {
          "account": "The address of the account holding the funds",
          "spender": "The address of the account spending the funds"
        },
        "returns": {
          "_0": "The number of tokens approved"
        }
      },
      "approve(address,uint256)": {
        "details": "This will overwrite the approval amount for `spender`  and is subject to issues noted [here](https://eips.ethereum.org/EIPS/eip-20#approve)",
        "params": {
          "rawAmount": "The number of tokens that are approved (2^256-1 means infinite)",
          "spender": "The address of the account which may transfer tokens"
        },
        "returns": {
          "_0": "Whether or not the approval succeeded"
        }
      },
      "balanceOf(address)": {
        "params": {
          "account": "The address of the account to get the balance of"
        },
        "returns": {
          "_0": "The number of tokens held"
        }
      },
      "burn(uint256)": {
        "details": "Destroys `amount` tokens from `account`, reducing the total supply."
      },
      "burnFrom(address,uint256)": {
        "details": "Destroys `amount` tokens from `account`, deducting from the caller's allowance."
      },
      "constructor": {
        "params": {
          "account": "The initial account to grant all the tokens"
        }
      },
      "delegate(address)": {
        "params": {
          "delegatee": "The address to delegate votes to"
        }
      },
      "delegateBySig(address,uint256,uint256,uint8,bytes32,bytes32)": {
        "params": {
          "delegatee": "The address to delegate votes to",
          "expiry": "The time at which to expire the signature",
          "nonce": "The contract state required to match the signature",
          "r": "Half of the ECDSA signature pair",
          "s": "Half of the ECDSA signature pair",
          "v": "The recovery byte of the signature"
        }
      },
      "getCurrentVotes(address)": {
        "params": {
          "account": "The address to get votes balance"
        },
        "returns": {
          "_0": "The number of current votes for `account`"
        }
      },
      "getPriorVotes(address,uint256)": {
        "details": "Block number must be a finalized block or else this function will revert to prevent misinformation.",
        "params": {
          "account": "The address of the account to check",
          "blockNumber": "The block number to get the vote balance at"
        },
        "returns": {
          "_0": "The number of votes the account had as of the given block"
        }
      },
      "transfer(address,uint256)": {
        "params": {
          "dst": "The address of the destination account",
          "rawAmount": "The number of tokens to transfer"
        },
        "returns": {
          "_0": "Whether or not the transfer succeeded"
        }
      },
      "transferFrom(address,address,uint256)": {
        "params": {
          "dst": "The address of the destination account",
          "rawAmount": "The number of tokens to transfer",
          "src": "The address of the source account"
        },
        "returns": {
          "_0": "Whether or not the transfer succeeded"
        }
      }
    },
    "stateVariables": {
      "allowances": {
        "details": "Allowance amounts on behalf of others"
      },
      "balances": {
        "details": "Official record of token balances for each account"
      }
    },
    "version": 1
  },
  "userdoc": {
    "events": {
      "Approval(address,address,uint256)": {
        "notice": "The standard EIP-20 approval event"
      },
      "DelegateChanged(address,address,address)": {
        "notice": "An event thats emitted when an account changes its delegate"
      },
      "DelegateVotesChanged(address,uint256,uint256)": {
        "notice": "An event thats emitted when a delegate account's vote balance changes"
      },
      "Transfer(address,address,uint256)": {
        "notice": "The standard EIP-20 transfer event"
      }
    },
    "kind": "user",
    "methods": {
      "DELEGATION_TYPEHASH()": {
        "notice": "The EIP-712 typehash for the delegation struct used by the contract"
      },
      "DOMAIN_TYPEHASH()": {
        "notice": "The EIP-712 typehash for the contract's domain"
      },
      "allowance(address,address)": {
        "notice": "Get the number of tokens `spender` is approved to spend on behalf of `account`"
      },
      "approve(address,uint256)": {
        "notice": "Approve `spender` to transfer up to `amount` from `src`"
      },
      "balanceOf(address)": {
        "notice": "Get the number of tokens held by the `account`"
      },
      "checkpoints(address,uint32)": {
        "notice": "A record of votes checkpoints for each account, by index"
      },
      "constructor": {
        "notice": "Construct a new Gym token"
      },
      "decimals()": {
        "notice": "EIP-20 token decimals for this token"
      },
      "delegate(address)": {
        "notice": "Delegate votes from `msg.sender` to `delegatee`"
      },
      "delegateBySig(address,uint256,uint256,uint8,bytes32,bytes32)": {
        "notice": "Delegates votes from signatory to `delegatee`"
      },
      "delegates(address)": {
        "notice": "A record of each accounts delegate"
      },
      "getCurrentVotes(address)": {
        "notice": "Gets the current votes balance for `account`"
      },
      "getPriorVotes(address,uint256)": {
        "notice": "Determine the prior number of votes for an account as of a block number"
      },
      "name()": {
        "notice": "EIP-20 token name for this token"
      },
      "nonces(address)": {
        "notice": "A record of states for signing / validating signatures"
      },
      "numCheckpoints(address)": {
        "notice": "The number of checkpoints for each account"
      },
      "symbol()": {
        "notice": "EIP-20 token symbol for this token"
      },
      "totalSupply()": {
        "notice": "Total number of tokens in circulation"
      },
      "transfer(address,uint256)": {
        "notice": "Transfer `amount` tokens from `msg.sender` to `dst`"
      },
      "transferFrom(address,address,uint256)": {
        "notice": "Transfer `amount` tokens from `src` to `dst`"
      }
    },
    "version": 1
  },
  "storageLayout": {
    "storage": [
      {
        "astId": 3752,
        "contract": "cache/solpp-generated-contracts/GymToken.sol:GymToken",
        "label": "totalSupply",
        "offset": 0,
        "slot": "0",
        "type": "t_uint256"
      },
      {
        "astId": 3759,
        "contract": "cache/solpp-generated-contracts/GymToken.sol:GymToken",
        "label": "allowances",
        "offset": 0,
        "slot": "1",
        "type": "t_mapping(t_address,t_mapping(t_address,t_uint96))"
      },
      {
        "astId": 3764,
        "contract": "cache/solpp-generated-contracts/GymToken.sol:GymToken",
        "label": "balances",
        "offset": 0,
        "slot": "2",
        "type": "t_mapping(t_address,t_uint96)"
      },
      {
        "astId": 3769,
        "contract": "cache/solpp-generated-contracts/GymToken.sol:GymToken",
        "label": "delegates",
        "offset": 0,
        "slot": "3",
        "type": "t_mapping(t_address,t_address)"
      },
      {
        "astId": 3782,
        "contract": "cache/solpp-generated-contracts/GymToken.sol:GymToken",
        "label": "checkpoints",
        "offset": 0,
        "slot": "4",
        "type": "t_mapping(t_address,t_mapping(t_uint32,t_struct(Checkpoint)3774_storage))"
      },
      {
        "astId": 3787,
        "contract": "cache/solpp-generated-contracts/GymToken.sol:GymToken",
        "label": "numCheckpoints",
        "offset": 0,
        "slot": "5",
        "type": "t_mapping(t_address,t_uint32)"
      },
      {
        "astId": 3804,
        "contract": "cache/solpp-generated-contracts/GymToken.sol:GymToken",
        "label": "nonces",
        "offset": 0,
        "slot": "6",
        "type": "t_mapping(t_address,t_uint256)"
      }
    ],
    "types": {
      "t_address": {
        "encoding": "inplace",
        "label": "address",
        "numberOfBytes": "20"
      },
      "t_mapping(t_address,t_address)": {
        "encoding": "mapping",
        "key": "t_address",
        "label": "mapping(address => address)",
        "numberOfBytes": "32",
        "value": "t_address"
      },
      "t_mapping(t_address,t_mapping(t_address,t_uint96))": {
        "encoding": "mapping",
        "key": "t_address",
        "label": "mapping(address => mapping(address => uint96))",
        "numberOfBytes": "32",
        "value": "t_mapping(t_address,t_uint96)"
      },
      "t_mapping(t_address,t_mapping(t_uint32,t_struct(Checkpoint)3774_storage))": {
        "encoding": "mapping",
        "key": "t_address",
        "label": "mapping(address => mapping(uint32 => struct GymToken.Checkpoint))",
        "numberOfBytes": "32",
        "value": "t_mapping(t_uint32,t_struct(Checkpoint)3774_storage)"
      },
      "t_mapping(t_address,t_uint256)": {
        "encoding": "mapping",
        "key": "t_address",
        "label": "mapping(address => uint256)",
        "numberOfBytes": "32",
        "value": "t_uint256"
      },
      "t_mapping(t_address,t_uint32)": {
        "encoding": "mapping",
        "key": "t_address",
        "label": "mapping(address => uint32)",
        "numberOfBytes": "32",
        "value": "t_uint32"
      },
      "t_mapping(t_address,t_uint96)": {
        "encoding": "mapping",
        "key": "t_address",
        "label": "mapping(address => uint96)",
        "numberOfBytes": "32",
        "value": "t_uint96"
      },
      "t_mapping(t_uint32,t_struct(Checkpoint)3774_storage)": {
        "encoding": "mapping",
        "key": "t_uint32",
        "label": "mapping(uint32 => struct GymToken.Checkpoint)",
        "numberOfBytes": "32",
        "value": "t_struct(Checkpoint)3774_storage"
      },
      "t_struct(Checkpoint)3774_storage": {
        "encoding": "inplace",
        "label": "struct GymToken.Checkpoint",
        "members": [
          {
            "astId": 3771,
            "contract": "cache/solpp-generated-contracts/GymToken.sol:GymToken",
            "label": "fromBlock",
            "offset": 0,
            "slot": "0",
            "type": "t_uint32"
          },
          {
            "astId": 3773,
            "contract": "cache/solpp-generated-contracts/GymToken.sol:GymToken",
            "label": "votes",
            "offset": 4,
            "slot": "0",
            "type": "t_uint96"
          }
        ],
        "numberOfBytes": "32"
      },
      "t_uint256": {
        "encoding": "inplace",
        "label": "uint256",
        "numberOfBytes": "32"
      },
      "t_uint32": {
        "encoding": "inplace",
        "label": "uint32",
        "numberOfBytes": "4"
      },
      "t_uint96": {
        "encoding": "inplace",
        "label": "uint96",
        "numberOfBytes": "12"
      }
    }
  }
}