{
  "address": "0xC2d0819D425715CC2846819b588879F47A8b60ff",
  "abi": [
    {
      "inputs": [
        {
          "internalType": "uint256",
          "name": "_startBlock",
          "type": "uint256"
        },
        {
          "internalType": "address",
          "name": "_gym",
          "type": "address"
        },
        {
          "internalType": "uint256",
          "name": "_gymRewardRate",
          "type": "uint256"
        }
      ],
      "stateMutability": "nonpayable",
      "type": "constructor"
    },
    {
      "anonymous": false,
      "inputs": [
        {
          "indexed": true,
          "internalType": "address",
          "name": "user",
          "type": "address"
        },
        {
          "indexed": true,
          "internalType": "uint256",
          "name": "pid",
          "type": "uint256"
        },
        {
          "indexed": false,
          "internalType": "uint256",
          "name": "amount",
          "type": "uint256"
        }
      ],
      "name": "Deposit",
      "type": "event"
    },
    {
      "anonymous": false,
      "inputs": [
        {
          "indexed": true,
          "internalType": "address",
          "name": "executor",
          "type": "address"
        },
        {
          "indexed": false,
          "internalType": "uint256",
          "name": "at",
          "type": "uint256"
        }
      ],
      "name": "Initialized",
      "type": "event"
    },
    {
      "anonymous": false,
      "inputs": [
        {
          "indexed": true,
          "internalType": "address",
          "name": "previousOwner",
          "type": "address"
        },
        {
          "indexed": true,
          "internalType": "address",
          "name": "newOwner",
          "type": "address"
        }
      ],
      "name": "OwnershipTransferred",
      "type": "event"
    },
    {
      "anonymous": false,
      "inputs": [
        {
          "indexed": true,
          "internalType": "address",
          "name": "token",
          "type": "address"
        },
        {
          "indexed": true,
          "internalType": "address",
          "name": "user",
          "type": "address"
        },
        {
          "indexed": false,
          "internalType": "uint256",
          "name": "amount",
          "type": "uint256"
        }
      ],
      "name": "RewardPaid",
      "type": "event"
    },
    {
      "anonymous": false,
      "inputs": [
        {
          "indexed": true,
          "internalType": "address",
          "name": "user",
          "type": "address"
        },
        {
          "indexed": true,
          "internalType": "uint256",
          "name": "pid",
          "type": "uint256"
        },
        {
          "indexed": false,
          "internalType": "uint256",
          "name": "amount",
          "type": "uint256"
        }
      ],
      "name": "Withdraw",
      "type": "event"
    },
    {
      "stateMutability": "payable",
      "type": "fallback"
    },
    {
      "inputs": [],
      "name": "BUY_AND_BURN_GYM",
      "outputs": [
        {
          "internalType": "uint256",
          "name": "",
          "type": "uint256"
        }
      ],
      "stateMutability": "view",
      "type": "function"
    },
    {
      "inputs": [],
      "name": "RELATIONSHIP_REWARD",
      "outputs": [
        {
          "internalType": "uint256",
          "name": "",
          "type": "uint256"
        }
      ],
      "stateMutability": "view",
      "type": "function"
    },
    {
      "inputs": [],
      "name": "VAULTS_SAVING",
      "outputs": [
        {
          "internalType": "uint256",
          "name": "",
          "type": "uint256"
        }
      ],
      "stateMutability": "view",
      "type": "function"
    },
    {
      "inputs": [
        {
          "internalType": "contract IERC20",
          "name": "_want",
          "type": "address"
        },
        {
          "internalType": "uint256",
          "name": "_allocPoint",
          "type": "uint256"
        },
        {
          "internalType": "bool",
          "name": "_withUpdate",
          "type": "bool"
        },
        {
          "internalType": "address",
          "name": "_strategy",
          "type": "address"
        }
      ],
      "name": "add",
      "outputs": [],
      "stateMutability": "nonpayable",
      "type": "function"
    },
    {
      "inputs": [],
      "name": "buyBack",
      "outputs": [
        {
          "internalType": "address",
          "name": "",
          "type": "address"
        }
      ],
      "stateMutability": "view",
      "type": "function"
    },
    {
      "inputs": [
        {
          "internalType": "uint256",
          "name": "_pid",
          "type": "uint256"
        }
      ],
      "name": "claim",
      "outputs": [],
      "stateMutability": "nonpayable",
      "type": "function"
    },
    {
      "inputs": [],
      "name": "claimAll",
      "outputs": [],
      "stateMutability": "nonpayable",
      "type": "function"
    },
    {
      "inputs": [
        {
          "internalType": "uint256",
          "name": "_pid",
          "type": "uint256"
        },
        {
          "internalType": "uint256",
          "name": "_amountTokenMin",
          "type": "uint256"
        },
        {
          "internalType": "uint256",
          "name": "_amountETHMin",
          "type": "uint256"
        },
        {
          "internalType": "uint256",
          "name": "_minAmountOut",
          "type": "uint256"
        },
        {
          "internalType": "uint256",
          "name": "_deadline",
          "type": "uint256"
        }
      ],
      "name": "claimAndDeposit",
      "outputs": [],
      "stateMutability": "payable",
      "type": "function"
    },
    {
      "inputs": [
        {
          "internalType": "uint256",
          "name": "_pid",
          "type": "uint256"
        },
        {
          "internalType": "uint256",
          "name": "_wantAmt",
          "type": "uint256"
        },
        {
          "internalType": "uint256",
          "name": "_referrerId",
          "type": "uint256"
        },
        {
          "internalType": "uint256",
          "name": "_minBurnAmt",
          "type": "uint256"
        },
        {
          "internalType": "uint256",
          "name": "_deadline",
          "type": "uint256"
        }
      ],
      "name": "deposit",
      "outputs": [],
      "stateMutability": "payable",
      "type": "function"
    },
    {
      "inputs": [],
      "name": "farming",
      "outputs": [
        {
          "internalType": "address",
          "name": "",
          "type": "address"
        }
      ],
      "stateMutability": "view",
      "type": "function"
    },
    {
      "inputs": [],
      "name": "massUpdatePools",
      "outputs": [],
      "stateMutability": "nonpayable",
      "type": "function"
    },
    {
      "inputs": [
        {
          "internalType": "uint256",
          "name": "_pid",
          "type": "uint256"
        },
        {
          "internalType": "address",
          "name": "_newStrategy",
          "type": "address"
        }
      ],
      "name": "migrateStrategy",
      "outputs": [],
      "stateMutability": "nonpayable",
      "type": "function"
    },
    {
      "inputs": [],
      "name": "owner",
      "outputs": [
        {
          "internalType": "address",
          "name": "",
          "type": "address"
        }
      ],
      "stateMutability": "view",
      "type": "function"
    },
    {
      "inputs": [
        {
          "internalType": "uint256",
          "name": "_pid",
          "type": "uint256"
        },
        {
          "internalType": "address",
          "name": "_user",
          "type": "address"
        }
      ],
      "name": "pendingReward",
      "outputs": [
        {
          "internalType": "uint256",
          "name": "",
          "type": "uint256"
        }
      ],
      "stateMutability": "view",
      "type": "function"
    },
    {
      "inputs": [
        {
          "internalType": "uint256",
          "name": "",
          "type": "uint256"
        }
      ],
      "name": "poolInfo",
      "outputs": [
        {
          "internalType": "contract IERC20",
          "name": "want",
          "type": "address"
        },
        {
          "internalType": "uint256",
          "name": "allocPoint",
          "type": "uint256"
        },
        {
          "internalType": "uint256",
          "name": "lastRewardBlock",
          "type": "uint256"
        },
        {
          "internalType": "uint256",
          "name": "accRewardPerShare",
          "type": "uint256"
        },
        {
          "internalType": "address",
          "name": "strategy",
          "type": "address"
        }
      ],
      "stateMutability": "view",
      "type": "function"
    },
    {
      "inputs": [],
      "name": "poolLength",
      "outputs": [
        {
          "internalType": "uint256",
          "name": "",
          "type": "uint256"
        }
      ],
      "stateMutability": "view",
      "type": "function"
    },
    {
      "inputs": [],
      "name": "relationship",
      "outputs": [
        {
          "internalType": "address",
          "name": "",
          "type": "address"
        }
      ],
      "stateMutability": "view",
      "type": "function"
    },
    {
      "inputs": [],
      "name": "renounceOwnership",
      "outputs": [],
      "stateMutability": "nonpayable",
      "type": "function"
    },
    {
      "inputs": [
        {
          "internalType": "uint256",
          "name": "_pid",
          "type": "uint256"
        },
        {
          "internalType": "address",
          "name": "_strategy",
          "type": "address"
        }
      ],
      "name": "resetStrategy",
      "outputs": [],
      "stateMutability": "nonpayable",
      "type": "function"
    },
    {
      "inputs": [],
      "name": "rewardPoolInfo",
      "outputs": [
        {
          "internalType": "address",
          "name": "rewardToken",
          "type": "address"
        },
        {
          "internalType": "uint256",
          "name": "rewardPerBlock",
          "type": "uint256"
        }
      ],
      "stateMutability": "view",
      "type": "function"
    },
    {
      "inputs": [
        {
          "internalType": "uint256",
          "name": "_pid",
          "type": "uint256"
        },
        {
          "internalType": "uint256",
          "name": "_allocPoint",
          "type": "uint256"
        }
      ],
      "name": "set",
      "outputs": [],
      "stateMutability": "nonpayable",
      "type": "function"
    },
    {
      "inputs": [
        {
          "internalType": "address",
          "name": "_farmingAddress",
          "type": "address"
        }
      ],
      "name": "setFarmingAddress",
      "outputs": [],
      "stateMutability": "nonpayable",
      "type": "function"
    },
    {
      "inputs": [
        {
          "internalType": "address",
          "name": "_treasuryAddress",
          "type": "address"
        }
      ],
      "name": "setTreasuryAddress",
      "outputs": [],
      "stateMutability": "nonpayable",
      "type": "function"
    },
    {
      "inputs": [
        {
          "internalType": "uint256",
          "name": "_fee",
          "type": "uint256"
        }
      ],
      "name": "setWithdrawFee",
      "outputs": [],
      "stateMutability": "nonpayable",
      "type": "function"
    },
    {
      "inputs": [
        {
          "internalType": "uint256",
          "name": "_pid",
          "type": "uint256"
        },
        {
          "internalType": "address",
          "name": "_user",
          "type": "address"
        }
      ],
      "name": "stakedWantTokens",
      "outputs": [
        {
          "internalType": "uint256",
          "name": "",
          "type": "uint256"
        }
      ],
      "stateMutability": "view",
      "type": "function"
    },
    {
      "inputs": [],
      "name": "startBlock",
      "outputs": [
        {
          "internalType": "uint256",
          "name": "",
          "type": "uint256"
        }
      ],
      "stateMutability": "view",
      "type": "function"
    },
    {
      "inputs": [],
      "name": "totalAllocPoint",
      "outputs": [
        {
          "internalType": "uint256",
          "name": "",
          "type": "uint256"
        }
      ],
      "stateMutability": "view",
      "type": "function"
    },
    {
      "inputs": [
        {
          "internalType": "address",
          "name": "newOwner",
          "type": "address"
        }
      ],
      "name": "transferOwnership",
      "outputs": [],
      "stateMutability": "nonpayable",
      "type": "function"
    },
    {
      "inputs": [],
      "name": "treasuryAddress",
      "outputs": [
        {
          "internalType": "address",
          "name": "",
          "type": "address"
        }
      ],
      "stateMutability": "view",
      "type": "function"
    },
    {
      "inputs": [
        {
          "internalType": "uint256",
          "name": "_pid",
          "type": "uint256"
        }
      ],
      "name": "updatePool",
      "outputs": [],
      "stateMutability": "nonpayable",
      "type": "function"
    },
    {
      "inputs": [],
      "name": "updateRewardPerBlock",
      "outputs": [],
      "stateMutability": "nonpayable",
      "type": "function"
    },
    {
      "inputs": [
        {
          "internalType": "uint256",
          "name": "",
          "type": "uint256"
        },
        {
          "internalType": "address",
          "name": "",
          "type": "address"
        }
      ],
      "name": "userInfo",
      "outputs": [
        {
          "internalType": "uint256",
          "name": "shares",
          "type": "uint256"
        },
        {
          "internalType": "uint256",
          "name": "rewardDebt",
          "type": "uint256"
        }
      ],
      "stateMutability": "view",
      "type": "function"
    },
    {
      "inputs": [
        {
          "internalType": "uint256",
          "name": "_pid",
          "type": "uint256"
        },
        {
          "internalType": "uint256",
          "name": "_wantAmt",
          "type": "uint256"
        }
      ],
      "name": "withdraw",
      "outputs": [],
      "stateMutability": "nonpayable",
      "type": "function"
    },
    {
      "inputs": [],
      "name": "withdrawFee",
      "outputs": [
        {
          "internalType": "uint256",
          "name": "",
          "type": "uint256"
        }
      ],
      "stateMutability": "view",
      "type": "function"
    },
    {
      "stateMutability": "payable",
      "type": "receive"
    }
  ],
  "transactionHash": "0xcf8935f5df5c6428a17f9fac80f7c1753bb80fa3cff5accec61b80cf679c5d42",
  "args": [
    "200",
    "0x83bCE25f327D397b104a7DE43Bd3191F89bf6955",
    "25728640000000000000"
  ],
  "solcInputHash": "a54ee544f440904c9f37be7b52a66529",
  "bytecode": "0x60806040523480156200001157600080fd5b50604051620052533803806200525383398181016040528101906200003791906200054b565b60016000819055506200005f620000536200026160201b60201c565b6200026960201b60201c565b824310620000a4576040517f08c379a00000000000000000000000000000000000000000000000000000000081526004016200009b906200064f565b60405180910390fd5b8260038190555060405180604001604052808373ffffffffffffffffffffffffffffffffffffffff16815260200182815250600960008201518160000160006101000a81548173ffffffffffffffffffffffffffffffffffffffff021916908373ffffffffffffffffffffffffffffffffffffffff160217905550602082015181600101559050506040518060400160405280738a791620dd6260079bf849dc5567adc3f2fdc31873ffffffffffffffffffffffffffffffffffffffff1673ffffffffffffffffffffffffffffffffffffffff168152602001739a676e781a523b5d0c0e43731313a708cb60750873ffffffffffffffffffffffffffffffffffffffff1673ffffffffffffffffffffffffffffffffffffffff16815250600b906002620001d39291906200046f565b5082600c819055506003600d819055506200020873f39fd6e51aad88f6f4ce6ab8827279cfffb922666200032f60201b60201c565b3373ffffffffffffffffffffffffffffffffffffffff167f25ff68dd81b34665b5ba7e553ee5511bf6812e12adb4a7e2c0d9e26b3099ce794360405162000250919062000693565b60405180910390a2505050620007ff565b600033905090565b6000600160009054906101000a900473ffffffffffffffffffffffffffffffffffffffff16905081600160006101000a81548173ffffffffffffffffffffffffffffffffffffffff021916908373ffffffffffffffffffffffffffffffffffffffff1602179055508173ffffffffffffffffffffffffffffffffffffffff168173ffffffffffffffffffffffffffffffffffffffff167f8be0079c531659141344cd1fd0a4f28419497f9722a3daafe3b4186f6b6457e060405160405180910390a35050565b6200033f6200026160201b60201c565b73ffffffffffffffffffffffffffffffffffffffff16620003656200044560201b60201c565b73ffffffffffffffffffffffffffffffffffffffff1614620003be576040517f08c379a0000000000000000000000000000000000000000000000000000000008152600401620003b59062000671565b60405180910390fd5b600073ffffffffffffffffffffffffffffffffffffffff168173ffffffffffffffffffffffffffffffffffffffff16141562000431576040517f08c379a000000000000000000000000000000000000000000000000000000000815260040162000428906200062d565b60405180910390fd5b62000442816200026960201b60201c565b50565b6000600160009054906101000a900473ffffffffffffffffffffffffffffffffffffffff16905090565b828054828255906000526020600020908101928215620004eb579160200282015b82811115620004ea5782518260006101000a81548173ffffffffffffffffffffffffffffffffffffffff021916908373ffffffffffffffffffffffffffffffffffffffff1602179055509160200191906001019062000490565b5b509050620004fa9190620004fe565b5090565b5b8082111562000519576000816000905550600101620004ff565b5090565b6000815190506200052e81620007cb565b92915050565b6000815190506200054581620007e5565b92915050565b600080600060608486031215620005675762000566620006ff565b5b6000620005778682870162000534565b93505060206200058a868287016200051d565b92505060406200059d8682870162000534565b9150509250925092565b6000620005b6602683620006b0565b9150620005c38262000704565b604082019050919050565b6000620005dd603383620006b0565b9150620005ea8262000753565b604082019050919050565b600062000604602083620006b0565b91506200061182620007a2565b602082019050919050565b6200062781620006f5565b82525050565b600060208201905081810360008301526200064881620005a7565b9050919050565b600060208201905081810360008301526200066a81620005ce565b9050919050565b600060208201905081810360008301526200068c81620005f5565b9050919050565b6000602082019050620006aa60008301846200061c565b92915050565b600082825260208201905092915050565b6000620006ce82620006d5565b9050919050565b600073ffffffffffffffffffffffffffffffffffffffff82169050919050565b6000819050919050565b600080fd5b7f4f776e61626c653a206e6577206f776e657220697320746865207a65726f206160008201527f6464726573730000000000000000000000000000000000000000000000000000602082015250565b7f47796d5661756c747342616e6b3a20537461727420626c6f636b206d7573742060008201527f686176652061206269676765722076616c756500000000000000000000000000602082015250565b7f4f776e61626c653a2063616c6c6572206973206e6f7420746865206f776e6572600082015250565b620007d681620006c1565b8114620007e257600080fd5b50565b620007f081620006f5565b8114620007fc57600080fd5b50565b614a44806200080f6000396000f3fe6080604052600436106101fd5760003560e01c8063889dbba61161010d578063bf02b5ea116100a0578063d47039691161006f578063d4703969146106c6578063df27123a146106f2578063e0257d0314610709578063e941fa7814610732578063f2fde38b1461075d57610204565b8063bf02b5ea1461063f578063c09969df1461065b578063c5f956af14610684578063d1058e59146106af57610204565b8063a2dac829116100dc578063a2dac82914610597578063acdf4f18146105c2578063b001f618146105ed578063b6ac642a1461061657610204565b8063889dbba6146104d55780638da5cb5b146104f157806393f1a40b1461051c57806398969e821461055a57610204565b806348cd4cb111610190578063630b5ba11161015f578063630b5ba1146104165780636605bfda1461042d578063715018a6146104565780637b84daec1461046d5780637e5dbd8e146104aa57610204565b806348cd4cb11461036c5780634e3ad80f14610397578063516d1896146103c257806351eb05a6146103ed57610204565b80631ab06ee5116101cc5780631ab06ee5146102c6578063379607f5146102ef578063441a3e701461031857806345b08a961461034157610204565b8063081e3eda146102065780631155f81e146102315780631526fe271461025a57806317caf6f11461029b57610204565b3661020457005b005b34801561021257600080fd5b5061021b610786565b60405161022891906143d7565b60405180910390f35b34801561023d57600080fd5b5061025860048036038101906102539190613d6f565b610793565b005b34801561026657600080fd5b50610281600480360381019061027c9190613d15565b6109e1565b6040516102929594939291906141b3565b60405180910390f35b3480156102a757600080fd5b506102b0610a67565b6040516102bd91906143d7565b60405180910390f35b3480156102d257600080fd5b506102ed60048036038101906102e89190613daf565b610a6d565b005b3480156102fb57600080fd5b5061031660048036038101906103119190613d15565b610b63565b005b34801561032457600080fd5b5061033f600480360381019061033a9190613daf565b610c23565b005b34801561034d57600080fd5b50610356610c87565b6040516103639190614085565b60405180910390f35b34801561037857600080fd5b50610381610c9f565b60405161038e91906143d7565b60405180910390f35b3480156103a357600080fd5b506103ac610ca5565b6040516103b99190614085565b60405180910390f35b3480156103ce57600080fd5b506103d7610ccb565b6040516103e491906143d7565b60405180910390f35b3480156103f957600080fd5b50610414600480360381019061040f9190613d15565b610cd0565b005b34801561042257600080fd5b5061042b610e68565b005b34801561043957600080fd5b50610454600480360381019061044f9190613c54565b610e9b565b005b34801561046257600080fd5b5061046b610fb1565b005b34801561047957600080fd5b50610494600480360381019061048f9190613d6f565b611039565b6040516104a191906143d7565b60405180910390f35b3480156104b657600080fd5b506104bf61125f565b6040516104cc91906143d7565b60405180910390f35b6104ef60048036038101906104ea9190613def565b611264565b005b3480156104fd57600080fd5b506105066114d4565b6040516105139190614085565b60405180910390f35b34801561052857600080fd5b50610543600480360381019061053e9190613d6f565b6114fe565b604051610551929190614429565b60405180910390f35b34801561056657600080fd5b50610581600480360381019061057c9190613d6f565b61152f565b60405161058e91906143d7565b60405180910390f35b3480156105a357600080fd5b506105ac611724565b6040516105b991906143d7565b60405180910390f35b3480156105ce57600080fd5b506105d7611729565b6040516105e49190614085565b60405180910390f35b3480156105f957600080fd5b50610614600480360381019061060f9190613c54565b611741565b005b34801561062257600080fd5b5061063d60048036038101906106389190613d15565b611857565b005b61065960048036038101906106549190613def565b611933565b005b34801561066757600080fd5b50610682600480360381019061067d9190613cae565b611ad3565b005b34801561069057600080fd5b50610699611cbd565b6040516106a69190614085565b60405180910390f35b3480156106bb57600080fd5b506106c4611ce3565b005b3480156106d257600080fd5b506106db611d25565b6040516106e9929190614100565b60405180910390f35b3480156106fe57600080fd5b50610707611d57565b005b34801561071557600080fd5b50610730600480360381019061072b9190613d6f565b611ea8565b005b34801561073e57600080fd5b506107476123ba565b60405161075491906143d7565b60405180910390f35b34801561076957600080fd5b50610784600480360381019061077f9190613c54565b6123c0565b005b6000600780549050905090565b61079b6124b8565b73ffffffffffffffffffffffffffffffffffffffff166107b96114d4565b73ffffffffffffffffffffffffffffffffffffffff161461080f576040517f08c379a000000000000000000000000000000000000000000000000000000000815260040161080690614317565b60405180910390fd5b60006007838154811061082557610824614715565b5b9060005260206000209060050201905060008160000160009054906101000a900473ffffffffffffffffffffffffffffffffffffffff1673ffffffffffffffffffffffffffffffffffffffff166370a082316007868154811061088b5761088a614715565b5b906000526020600020906005020160040160009054906101000a900473ffffffffffffffffffffffffffffffffffffffff166040518263ffffffff1660e01b81526004016108d99190614085565b60206040518083038186803b1580156108f157600080fd5b505afa158015610905573d6000803e3d6000fd5b505050506040513d601f19601f820116820180604052508101906109299190613d42565b1480610939575060008160030154145b610978576040517f08c379a000000000000000000000000000000000000000000000000000000000815260040161096f90614357565b60405180910390fd5b816007848154811061098d5761098c614715565b5b906000526020600020906005020160040160006101000a81548173ffffffffffffffffffffffffffffffffffffffff021916908373ffffffffffffffffffffffffffffffffffffffff160217905550505050565b600781815481106109f157600080fd5b90600052602060002090600502016000915090508060000160009054906101000a900473ffffffffffffffffffffffffffffffffffffffff16908060010154908060020154908060030154908060040160009054906101000a900473ffffffffffffffffffffffffffffffffffffffff16905085565b60025481565b610a756124b8565b73ffffffffffffffffffffffffffffffffffffffff16610a936114d4565b73ffffffffffffffffffffffffffffffffffffffff1614610ae9576040517f08c379a0000000000000000000000000000000000000000000000000000000008152600401610ae090614317565b60405180910390fd5b610af1610e68565b8060078381548110610b0657610b05614715565b5b906000526020600020906005020160010154600254610b259190614565565b610b2f9190614484565b6002819055508060078381548110610b4a57610b49614715565b5b9060005260206000209060050201600101819055505050565b610b6c81610cd0565b610b75816124c0565b600060078281548110610b8b57610b8a614715565b5b9060005260206000209060050201905060006008600084815260200190815260200160002060003373ffffffffffffffffffffffffffffffffffffffff1673ffffffffffffffffffffffffffffffffffffffff1681526020019081526020016000209050670de0b6b3a764000082600301548260000154610c0c919061450b565b610c1691906144da565b8160010181905550505050565b60026000541415610c69576040517f08c379a0000000000000000000000000000000000000000000000000000000008152600401610c60906143b7565b60405180910390fd5b6002600081905550610c7b828261261f565b60016000819055505050565b735772ae803b430cb5d1260cc33aa2c8f89ad1d48881565b60035481565b600560009054906101000a900473ffffffffffffffffffffffffffffffffffffffff1681565b602d81565b600060078281548110610ce657610ce5614715565b5b9060005260206000209060050201905080600201544311610d075750610e65565b60008160040160009054906101000a900473ffffffffffffffffffffffffffffffffffffffff1673ffffffffffffffffffffffffffffffffffffffff166344a3955e6040518163ffffffff1660e01b815260040160206040518083038186803b158015610d7357600080fd5b505afa158015610d87573d6000803e3d6000fd5b505050506040513d601f19601f82011682018060405250810190610dab9190613d42565b90506000811415610dc6574382600201819055505050610e65565b6000826002015443610dd89190614565565b905060008111610dea57505050610e65565b60006009600101549050600060025485600101548385610e0a919061450b565b610e14919061450b565b610e1e91906144da565b905083670de0b6b3a764000082610e35919061450b565b610e3f91906144da565b8560030154610e4e9190614484565b856003018190555043856002018190555050505050505b50565b6000600780549050905060005b81811015610e9757610e8681610cd0565b80610e909061466e565b9050610e75565b5050565b60026000541415610ee1576040517f08c379a0000000000000000000000000000000000000000000000000000000008152600401610ed8906143b7565b60405180910390fd5b6002600081905550610ef16124b8565b73ffffffffffffffffffffffffffffffffffffffff16610f0f6114d4565b73ffffffffffffffffffffffffffffffffffffffff1614610f65576040517f08c379a0000000000000000000000000000000000000000000000000000000008152600401610f5c90614317565b60405180910390fd5b80600660006101000a81548173ffffffffffffffffffffffffffffffffffffffff021916908373ffffffffffffffffffffffffffffffffffffffff160217905550600160008190555050565b610fb96124b8565b73ffffffffffffffffffffffffffffffffffffffff16610fd76114d4565b73ffffffffffffffffffffffffffffffffffffffff161461102d576040517f08c379a000000000000000000000000000000000000000000000000000000000815260040161102490614317565b60405180910390fd5b6110376000612c7f565b565b600080600784815481106110505761104f614715565b5b9060005260206000209060050201905060006008600086815260200190815260200160002060008573ffffffffffffffffffffffffffffffffffffffff1673ffffffffffffffffffffffffffffffffffffffff168152602001908152602001600020905060008260040160009054906101000a900473ffffffffffffffffffffffffffffffffffffffff1673ffffffffffffffffffffffffffffffffffffffff166344a3955e6040518163ffffffff1660e01b815260040160206040518083038186803b15801561112057600080fd5b505afa158015611134573d6000803e3d6000fd5b505050506040513d601f19601f820116820180604052508101906111589190613d42565b90506000600787815481106111705761116f614715565b5b906000526020600020906005020160040160009054906101000a900473ffffffffffffffffffffffffffffffffffffffff1673ffffffffffffffffffffffffffffffffffffffff166342da4eb36040518163ffffffff1660e01b815260040160206040518083038186803b1580156111e757600080fd5b505afa1580156111fb573d6000803e3d6000fd5b505050506040513d601f19601f8201168201806040525081019061121f9190613d42565b90506000821415611237576000945050505050611259565b81818460000154611248919061450b565b61125291906144da565b9450505050505b92915050565b602d81565b60006007868154811061127a57611279614715565b5b9060005260206000209060050201905060006008600088815260200190815260200160002060003373ffffffffffffffffffffffffffffffffffffffff1673ffffffffffffffffffffffffffffffffffffffff16815260200190815260200160002090506112e787610cd0565b60008160010154670de0b6b3a76400008460030154846000015461130b919061450b565b61131591906144da565b61131f9190614565565b9050600081111561149b57600960000160009054906101000a900473ffffffffffffffffffffffffffffffffffffffff1673ffffffffffffffffffffffffffffffffffffffff1663095ea7b3600560009054906101000a900473ffffffffffffffffffffffffffffffffffffffff16836040518363ffffffff1660e01b81526004016113ac929190614100565b602060405180830381600087803b1580156113c657600080fd5b505af11580156113da573d6000803e3d6000fd5b505050506040513d601f19601f820116820180604052508101906113fe9190613c81565b50600560009054906101000a900473ffffffffffffffffffffffffffffffffffffffff1673ffffffffffffffffffffffffffffffffffffffff1663419bb796346000848b8b8b338c6040518963ffffffff1660e01b81526004016114689796959493929190614206565b6000604051808303818588803b15801561148157600080fd5b505af1158015611495573d6000803e3d6000fd5b50505050505b670de0b6b3a7640000836003015483600001546114b8919061450b565b6114c291906144da565b82600101819055505050505050505050565b6000600160009054906101000a900473ffffffffffffffffffffffffffffffffffffffff16905090565b6008602052816000526040600020602052806000526040600020600091509150508060000154908060010154905082565b6000806007848154811061154657611545614715565b5b9060005260206000209060050201905060006008600086815260200190815260200160002060008573ffffffffffffffffffffffffffffffffffffffff1673ffffffffffffffffffffffffffffffffffffffff168152602001908152602001600020905060008260030154905060008360040160009054906101000a900473ffffffffffffffffffffffffffffffffffffffff1673ffffffffffffffffffffffffffffffffffffffff166344a3955e6040518163ffffffff1660e01b815260040160206040518083038186803b15801561161f57600080fd5b505afa158015611633573d6000803e3d6000fd5b505050506040513d601f19601f820116820180604052508101906116579190613d42565b905083600201544311801561166d575060008114155b156116e65760008460020154436116849190614565565b905060006002548660010154600960010154846116a1919061450b565b6116ab919061450b565b6116b591906144da565b905082670de0b6b3a7640000826116cc919061450b565b6116d691906144da565b846116e19190614484565b935050505b8260010154670de0b6b3a7640000838560000154611704919061450b565b61170e91906144da565b6117189190614565565b94505050505092915050565b600a81565b735f950ee30b88ad46de2250c2d367397c4098281c81565b60026000541415611787576040517f08c379a000000000000000000000000000000000000000000000000000000000815260040161177e906143b7565b60405180910390fd5b60026000819055506117976124b8565b73ffffffffffffffffffffffffffffffffffffffff166117b56114d4565b73ffffffffffffffffffffffffffffffffffffffff161461180b576040517f08c379a000000000000000000000000000000000000000000000000000000000815260040161180290614317565b60405180910390fd5b80600560006101000a81548173ffffffffffffffffffffffffffffffffffffffff021916908373ffffffffffffffffffffffffffffffffffffffff160217905550600160008190555050565b6002600054141561189d576040517f08c379a0000000000000000000000000000000000000000000000000000000008152600401611894906143b7565b60405180910390fd5b60026000819055506118ad6124b8565b73ffffffffffffffffffffffffffffffffffffffff166118cb6114d4565b73ffffffffffffffffffffffffffffffffffffffff1614611921576040517f08c379a000000000000000000000000000000000000000000000000000000000815260040161191890614317565b60405180910390fd5b80600481905550600160008190555050565b735772ae803b430cb5d1260cc33aa2c8f89ad1d48873ffffffffffffffffffffffffffffffffffffffff1663ff3f754433856040518363ffffffff1660e01b8152600401611982929190614100565b600060405180830381600087803b15801561199c57600080fd5b505af11580156119b0573d6000803e3d6000fd5b505050506000600786815481106119ca576119c9614715565b5b90600052602060002090600502019050739a676e781a523b5d0c0e43731313a708cb60750873ffffffffffffffffffffffffffffffffffffffff168160000160009054906101000a900473ffffffffffffffffffffffffffffffffffffffff1673ffffffffffffffffffffffffffffffffffffffff161415611abf57739a676e781a523b5d0c0e43731313a708cb60750873ffffffffffffffffffffffffffffffffffffffff1663d0e30db0346040518263ffffffff1660e01b81526004016000604051808303818588803b158015611aa257600080fd5b505af1158015611ab6573d6000803e3d6000fd5b50505050503494505b611acb86868585612d45565b505050505050565b611adb6124b8565b73ffffffffffffffffffffffffffffffffffffffff16611af96114d4565b73ffffffffffffffffffffffffffffffffffffffff1614611b4f576040517f08c379a0000000000000000000000000000000000000000000000000000000008152600401611b4690614317565b60405180910390fd5b8115611b5e57611b5d610e68565b5b60006003544311611b7157600354611b73565b435b905083600254611b839190614484565b60028190555060076040518060a001604052808773ffffffffffffffffffffffffffffffffffffffff168152602001868152602001838152602001600081526020018473ffffffffffffffffffffffffffffffffffffffff16815250908060018154018082558091505060019003906000526020600020906005020160009091909190915060008201518160000160006101000a81548173ffffffffffffffffffffffffffffffffffffffff021916908373ffffffffffffffffffffffffffffffffffffffff16021790555060208201518160010155604082015181600201556060820151816003015560808201518160040160006101000a81548173ffffffffffffffffffffffffffffffffffffffff021916908373ffffffffffffffffffffffffffffffffffffffff16021790555050505050505050565b600660009054906101000a900473ffffffffffffffffffffffffffffffffffffffff1681565b6000611ced610786565b905060005b600182611cff9190614565565b8111611d2157611d0e81610b63565b8080611d199061466e565b915050611cf2565b5050565b60098060000160009054906101000a900473ffffffffffffffffffffffffffffffffffffffff16908060010154905082565b60026000541415611d9d576040517f08c379a0000000000000000000000000000000000000000000000000000000008152600401611d94906143b7565b60405180910390fd5b6002600081905550611dad6124b8565b73ffffffffffffffffffffffffffffffffffffffff16611dcb6114d4565b73ffffffffffffffffffffffffffffffffffffffff1614611e21576040517f08c379a0000000000000000000000000000000000000000000000000000000008152600401611e1890614317565b60405180910390fd5b611e29610e68565b6014600c5443611e399190614565565b118015611e4857506000600d54115b15611e9e5764e8d4a5100064e25cf5cf78600960010154611e69919061450b565b611e7391906144da565b6009600101819055506001600d6000828254611e8f9190614565565b9250508190555043600c819055505b6001600081905550565b611eb06124b8565b73ffffffffffffffffffffffffffffffffffffffff16611ece6114d4565b73ffffffffffffffffffffffffffffffffffffffff1614611f24576040517f08c379a0000000000000000000000000000000000000000000000000000000008152600401611f1b90614317565b60405180910390fd5b60008173ffffffffffffffffffffffffffffffffffffffff166342da4eb36040518163ffffffff1660e01b815260040160206040518083038186803b158015611f6c57600080fd5b505afa158015611f80573d6000803e3d6000fd5b505050506040513d601f19601f82011682018060405250810190611fa49190613d42565b14801561202e575060008173ffffffffffffffffffffffffffffffffffffffff166344a3955e6040518163ffffffff1660e01b815260040160206040518083038186803b158015611ff457600080fd5b505afa158015612008573d6000803e3d6000fd5b505050506040513d601f19601f8201168201806040525081019061202c9190613d42565b145b61206d576040517f08c379a000000000000000000000000000000000000000000000000000000000815260040161206490614337565b60405180910390fd5b60006007838154811061208357612082614715565b5b9060005260206000209060050201905060008160040160009054906101000a900473ffffffffffffffffffffffffffffffffffffffff16905060008173ffffffffffffffffffffffffffffffffffffffff166344a3955e6040518163ffffffff1660e01b815260040160206040518083038186803b15801561210457600080fd5b505afa158015612118573d6000803e3d6000fd5b505050506040513d601f19601f8201168201806040525081019061213c9190613d42565b905060008273ffffffffffffffffffffffffffffffffffffffff166342da4eb36040518163ffffffff1660e01b815260040160206040518083038186803b15801561218657600080fd5b505afa15801561219a573d6000803e3d6000fd5b505050506040513d601f19601f820116820180604052508101906121be9190613d42565b90508273ffffffffffffffffffffffffffffffffffffffff1663f3fef3a330836040518363ffffffff1660e01b81526004016121fb929190614100565b602060405180830381600087803b15801561221557600080fd5b505af1158015612229573d6000803e3d6000fd5b505050506040513d601f19601f8201168201806040525081019061224d9190613d42565b508360000160009054906101000a900473ffffffffffffffffffffffffffffffffffffffff1673ffffffffffffffffffffffffffffffffffffffff1663a9059cbb86836040518363ffffffff1660e01b81526004016122ad929190614100565b602060405180830381600087803b1580156122c757600080fd5b505af11580156122db573d6000803e3d6000fd5b505050506040513d601f19601f820116820180604052508101906122ff9190613c81565b508473ffffffffffffffffffffffffffffffffffffffff166325baef538483856040518463ffffffff1660e01b815260040161233d9392919061417c565b600060405180830381600087803b15801561235757600080fd5b505af115801561236b573d6000803e3d6000fd5b50505050848460040160006101000a81548173ffffffffffffffffffffffffffffffffffffffff021916908373ffffffffffffffffffffffffffffffffffffffff160217905550505050505050565b60045481565b6123c86124b8565b73ffffffffffffffffffffffffffffffffffffffff166123e66114d4565b73ffffffffffffffffffffffffffffffffffffffff161461243c576040517f08c379a000000000000000000000000000000000000000000000000000000000815260040161243390614317565b60405180910390fd5b600073ffffffffffffffffffffffffffffffffffffffff168173ffffffffffffffffffffffffffffffffffffffff1614156124ac576040517f08c379a00000000000000000000000000000000000000000000000000000000081526004016124a3906142b7565b60405180910390fd5b6124b581612c7f565b50565b600033905090565b6000600782815481106124d6576124d5614715565b5b9060005260206000209060050201905060006008600084815260200190815260200160002060003373ffffffffffffffffffffffffffffffffffffffff1673ffffffffffffffffffffffffffffffffffffffff168152602001908152602001600020905060008160010154670de0b6b3a76400008460030154846000015461255e919061450b565b61256891906144da565b6125729190614565565b90506000811115612619576000600960000160009054906101000a900473ffffffffffffffffffffffffffffffffffffffff1690506125b281338461344c565b3373ffffffffffffffffffffffffffffffffffffffff168173ffffffffffffffffffffffffffffffffffffffff167f540798df468d7b23d11f156fdb954cb19ad414d150722a7b6d55ba369dea792e8460405161260f91906143d7565b60405180910390a3505b50505050565b61262882610cd0565b60006007838154811061263e5761263d614715565b5b9060005260206000209060050201905060006008600085815260200190815260200160002060003373ffffffffffffffffffffffffffffffffffffffff1673ffffffffffffffffffffffffffffffffffffffff16815260200190815260200160002090506000600785815481106126b8576126b7614715565b5b906000526020600020906005020160040160009054906101000a900473ffffffffffffffffffffffffffffffffffffffff1673ffffffffffffffffffffffffffffffffffffffff166342da4eb36040518163ffffffff1660e01b815260040160206040518083038186803b15801561272f57600080fd5b505afa158015612743573d6000803e3d6000fd5b505050506040513d601f19601f820116820180604052508101906127679190613d42565b905060006007868154811061277f5761277e614715565b5b906000526020600020906005020160040160009054906101000a900473ffffffffffffffffffffffffffffffffffffffff1673ffffffffffffffffffffffffffffffffffffffff166344a3955e6040518163ffffffff1660e01b815260040160206040518083038186803b1580156127f657600080fd5b505afa15801561280a573d6000803e3d6000fd5b505050506040513d601f19601f8201168201806040525081019061282e9190613d42565b90506000836000015411612877576040517f08c379a000000000000000000000000000000000000000000000000000000000815260040161286e906142f7565b60405180910390fd5b600081116128ba576040517f08c379a00000000000000000000000000000000000000000000000000000000081526004016128b190614297565b60405180910390fd5b6128c3866124c0565b6000818385600001546128d6919061450b565b6128e091906144da565b9050808611156128ee578095505b6000861115612bf85760006007888154811061290d5761290c614715565b5b906000526020600020906005020160040160009054906101000a900473ffffffffffffffffffffffffffffffffffffffff1673ffffffffffffffffffffffffffffffffffffffff1663f3fef3a333896040518363ffffffff1660e01b8152600401612979929190614100565b602060405180830381600087803b15801561299357600080fd5b505af11580156129a7573d6000803e3d6000fd5b505050506040513d601f19601f820116820180604052508101906129cb9190613d42565b9050808560000160008282546129e19190614565565b9250508190555060008660000160009054906101000a900473ffffffffffffffffffffffffffffffffffffffff1673ffffffffffffffffffffffffffffffffffffffff166370a08231306040518263ffffffff1660e01b8152600401612a479190614085565b60206040518083038186803b158015612a5f57600080fd5b505afa158015612a73573d6000803e3d6000fd5b505050506040513d601f19601f82011682018060405250810190612a979190613d42565b905087811015612aa5578097505b6000881115612bf557612b198760000160009054906101000a900473ffffffffffffffffffffffffffffffffffffffff16600660009054906101000a900473ffffffffffffffffffffffffffffffffffffffff166127106004548c612b0a919061450b565b612b1491906144da565b613609565b612bf48760000160009054906101000a900473ffffffffffffffffffffffffffffffffffffffff16338960000160009054906101000a900473ffffffffffffffffffffffffffffffffffffffff1673ffffffffffffffffffffffffffffffffffffffff166370a08231306040518263ffffffff1660e01b8152600401612b9f9190614085565b60206040518083038186803b158015612bb757600080fd5b505afa158015612bcb573d6000803e3d6000fd5b505050506040513d601f19601f82011682018060405250810190612bef9190613d42565b613609565b5b50505b670de0b6b3a764000085600301548560000154612c15919061450b565b612c1f91906144da565b8460010181905550863373ffffffffffffffffffffffffffffffffffffffff167ff279e6a1f5e320cca91135676d9cb6e44ca8a08c0b88342bcdb1144f6511b56888604051612c6e91906143d7565b60405180910390a350505050505050565b6000600160009054906101000a900473ffffffffffffffffffffffffffffffffffffffff16905081600160006101000a81548173ffffffffffffffffffffffffffffffffffffffff021916908373ffffffffffffffffffffffffffffffffffffffff1602179055508173ffffffffffffffffffffffffffffffffffffffff168173ffffffffffffffffffffffffffffffffffffffff167f8be0079c531659141344cd1fd0a4f28419497f9722a3daafe3b4186f6b6457e060405160405180910390a35050565b612d4e84610cd0565b600060078581548110612d6457612d63614715565b5b9060005260206000209060050201905060006008600087815260200190815260200160002060003373ffffffffffffffffffffffffffffffffffffffff1673ffffffffffffffffffffffffffffffffffffffff1681526020019081526020016000209050600081600001541115612ddf57612dde866124c0565b5b60008511156132c957739a676e781a523b5d0c0e43731313a708cb60750873ffffffffffffffffffffffffffffffffffffffff168260000160009054906101000a900473ffffffffffffffffffffffffffffffffffffffff1673ffffffffffffffffffffffffffffffffffffffff1614612ea557612ea43330878560000160009054906101000a900473ffffffffffffffffffffffffffffffffffffffff1673ffffffffffffffffffffffffffffffffffffffff16613739909392919063ffffffff16565b5b612f20735772ae803b430cb5d1260cc33aa2c8f89ad1d4886064602d88612ecc919061450b565b612ed691906144da565b8460000160009054906101000a900473ffffffffffffffffffffffffffffffffffffffff1673ffffffffffffffffffffffffffffffffffffffff166137c29092919063ffffffff16565b735772ae803b430cb5d1260cc33aa2c8f89ad1d48873ffffffffffffffffffffffffffffffffffffffff166372dd73fb868460000160009054906101000a900473ffffffffffffffffffffffffffffffffffffffff16336040518463ffffffff1660e01b8152600401612f95939291906143f2565b600060405180830381600087803b158015612faf57600080fd5b505af1158015612fc3573d6000803e3d6000fd5b50505050613042735f950ee30b88ad46de2250c2d367397c4098281c6064600a88612fee919061450b565b612ff891906144da565b8460000160009054906101000a900473ffffffffffffffffffffffffffffffffffffffff1673ffffffffffffffffffffffffffffffffffffffff166137c29092919063ffffffff16565b735f950ee30b88ad46de2250c2d367397c4098281c73ffffffffffffffffffffffffffffffffffffffff1663637b62378360000160009054906101000a900473ffffffffffffffffffffffffffffffffffffffff166064600a896130a6919061450b565b6130b091906144da565b600960000160009054906101000a900473ffffffffffffffffffffffffffffffffffffffff1688886040518663ffffffff1660e01b81526004016130f8959493929190614129565b602060405180830381600087803b15801561311257600080fd5b505af1158015613126573d6000803e3d6000fd5b505050506040513d601f19601f8201168201806040525081019061314a9190613d42565b506064602d8661315a919061450b565b61316491906144da565b94506131d98260040160009054906101000a900473ffffffffffffffffffffffffffffffffffffffff16868460000160009054906101000a900473ffffffffffffffffffffffffffffffffffffffff1673ffffffffffffffffffffffffffffffffffffffff166138489092919063ffffffff16565b6000600787815481106131ef576131ee614715565b5b906000526020600020906005020160040160009054906101000a900473ffffffffffffffffffffffffffffffffffffffff1673ffffffffffffffffffffffffffffffffffffffff166347e7ef2433886040518363ffffffff1660e01b815260040161325b929190614100565b602060405180830381600087803b15801561327557600080fd5b505af1158015613289573d6000803e3d6000fd5b505050506040513d601f19601f820116820180604052508101906132ad9190613d42565b90508082600001546132bf9190614484565b8260000181905550505b670de0b6b3a7640000826003015482600001546132e6919061450b565b6132f091906144da565b81600101819055506133f58260000160009054906101000a900473ffffffffffffffffffffffffffffffffffffffff16600660009054906101000a900473ffffffffffffffffffffffffffffffffffffffff168460000160009054906101000a900473ffffffffffffffffffffffffffffffffffffffff1673ffffffffffffffffffffffffffffffffffffffff166370a08231306040518263ffffffff1660e01b81526004016133a09190614085565b60206040518083038186803b1580156133b857600080fd5b505afa1580156133cc573d6000803e3d6000fd5b505050506040513d601f19601f820116820180604052508101906133f09190613d42565b613609565b853373ffffffffffffffffffffffffffffffffffffffff167f90890809c654f11d6e72a28fa60149770a0d11ec6c92319d6ceb2bb0a4ea1a158760405161343c91906143d7565b60405180910390a3505050505050565b60008373ffffffffffffffffffffffffffffffffffffffff166370a08231306040518263ffffffff1660e01b81526004016134879190614085565b60206040518083038186803b15801561349f57600080fd5b505afa1580156134b3573d6000803e3d6000fd5b505050506040513d601f19601f820116820180604052508101906134d79190613d42565b905080821115613574578373ffffffffffffffffffffffffffffffffffffffff1663a9059cbb84836040518363ffffffff1660e01b815260040161351c929190614100565b602060405180830381600087803b15801561353657600080fd5b505af115801561354a573d6000803e3d6000fd5b505050506040513d601f19601f8201168201806040525081019061356e9190613c81565b50613603565b8373ffffffffffffffffffffffffffffffffffffffff1663a9059cbb84846040518363ffffffff1660e01b81526004016135af929190614100565b602060405180830381600087803b1580156135c957600080fd5b505af11580156135dd573d6000803e3d6000fd5b505050506040513d601f19601f820116820180604052508101906136019190613c81565b505b50505050565b739a676e781a523b5d0c0e43731313a708cb60750873ffffffffffffffffffffffffffffffffffffffff168373ffffffffffffffffffffffffffffffffffffffff161415613708578273ffffffffffffffffffffffffffffffffffffffff16632e1a7d4d826040518263ffffffff1660e01b815260040161368a91906143d7565b600060405180830381600087803b1580156136a457600080fd5b505af11580156136b8573d6000803e3d6000fd5b505050508173ffffffffffffffffffffffffffffffffffffffff166108fc829081150290604051600060405180830381858888f19350505050158015613702573d6000803e3d6000fd5b50613734565b61373382828573ffffffffffffffffffffffffffffffffffffffff166137c29092919063ffffffff16565b5b505050565b6137bc846323b872dd60e01b85858560405160240161375a939291906140c9565b604051602081830303815290604052907bffffffffffffffffffffffffffffffffffffffffffffffffffffffff19166020820180517bffffffffffffffffffffffffffffffffffffffffffffffffffffffff8381831617835250505050613969565b50505050565b6138438363a9059cbb60e01b84846040516024016137e1929190614100565b604051602081830303815290604052907bffffffffffffffffffffffffffffffffffffffffffffffffffffffff19166020820180517bffffffffffffffffffffffffffffffffffffffffffffffffffffffff8381831617835250505050613969565b505050565b6000818473ffffffffffffffffffffffffffffffffffffffff1663dd62ed3e30866040518363ffffffff1660e01b81526004016138869291906140a0565b60206040518083038186803b15801561389e57600080fd5b505afa1580156138b2573d6000803e3d6000fd5b505050506040513d601f19601f820116820180604052508101906138d69190613d42565b6138e09190614484565b90506139638463095ea7b360e01b8584604051602401613901929190614100565b604051602081830303815290604052907bffffffffffffffffffffffffffffffffffffffffffffffffffffffff19166020820180517bffffffffffffffffffffffffffffffffffffffffffffffffffffffff8381831617835250505050613969565b50505050565b60006139cb826040518060400160405280602081526020017f5361666545524332303a206c6f772d6c6576656c2063616c6c206661696c65648152508573ffffffffffffffffffffffffffffffffffffffff16613a309092919063ffffffff16565b9050600081511115613a2b57808060200190518101906139eb9190613c81565b613a2a576040517f08c379a0000000000000000000000000000000000000000000000000000000008152600401613a2190614397565b60405180910390fd5b5b505050565b6060613a3f8484600085613a48565b90509392505050565b606082471015613a8d576040517f08c379a0000000000000000000000000000000000000000000000000000000008152600401613a84906142d7565b60405180910390fd5b613a9685613b5c565b613ad5576040517f08c379a0000000000000000000000000000000000000000000000000000000008152600401613acc90614377565b60405180910390fd5b6000808673ffffffffffffffffffffffffffffffffffffffff168587604051613afe919061406e565b60006040518083038185875af1925050503d8060008114613b3b576040519150601f19603f3d011682016040523d82523d6000602084013e613b40565b606091505b5091509150613b50828286613b6f565b92505050949350505050565b600080823b905060008111915050919050565b60608315613b7f57829050613bcf565b600083511115613b925782518084602001fd5b816040517f08c379a0000000000000000000000000000000000000000000000000000000008152600401613bc69190614275565b60405180910390fd5b9392505050565b600081359050613be5816149b2565b92915050565b600081359050613bfa816149c9565b92915050565b600081519050613c0f816149c9565b92915050565b600081359050613c24816149e0565b92915050565b600081359050613c39816149f7565b92915050565b600081519050613c4e816149f7565b92915050565b600060208284031215613c6a57613c69614744565b5b6000613c7884828501613bd6565b91505092915050565b600060208284031215613c9757613c96614744565b5b6000613ca584828501613c00565b91505092915050565b60008060008060808587031215613cc857613cc7614744565b5b6000613cd687828801613c15565b9450506020613ce787828801613c2a565b9350506040613cf887828801613beb565b9250506060613d0987828801613bd6565b91505092959194509250565b600060208284031215613d2b57613d2a614744565b5b6000613d3984828501613c2a565b91505092915050565b600060208284031215613d5857613d57614744565b5b6000613d6684828501613c3f565b91505092915050565b60008060408385031215613d8657613d85614744565b5b6000613d9485828601613c2a565b9250506020613da585828601613bd6565b9150509250929050565b60008060408385031215613dc657613dc5614744565b5b6000613dd485828601613c2a565b9250506020613de585828601613c2a565b9150509250929050565b600080600080600060a08688031215613e0b57613e0a614744565b5b6000613e1988828901613c2a565b9550506020613e2a88828901613c2a565b9450506040613e3b88828901613c2a565b9350506060613e4c88828901613c2a565b9250506080613e5d88828901613c2a565b9150509295509295909350565b613e7381614599565b82525050565b6000613e8482614452565b613e8e8185614468565b9350613e9e81856020860161463b565b80840191505092915050565b613eb3816145f3565b82525050565b613ec281614605565b82525050565b6000613ed38261445d565b613edd8185614473565b9350613eed81856020860161463b565b613ef681614749565b840191505092915050565b6000613f0e601f83614473565b9150613f198261475a565b602082019050919050565b6000613f31602683614473565b9150613f3c82614783565b604082019050919050565b6000613f54602683614473565b9150613f5f826147d2565b604082019050919050565b6000613f77601f83614473565b9150613f8282614821565b602082019050919050565b6000613f9a602083614473565b9150613fa58261484a565b602082019050919050565b6000613fbd602583614473565b9150613fc882614873565b604082019050919050565b6000613fe0602183614473565b9150613feb826148c2565b604082019050919050565b6000614003601d83614473565b915061400e82614911565b602082019050919050565b6000614026602a83614473565b91506140318261493a565b604082019050919050565b6000614049601f83614473565b915061405482614989565b602082019050919050565b614068816145e9565b82525050565b600061407a8284613e79565b915081905092915050565b600060208201905061409a6000830184613e6a565b92915050565b60006040820190506140b56000830185613e6a565b6140c26020830184613e6a565b9392505050565b60006060820190506140de6000830186613e6a565b6140eb6020830185613e6a565b6140f8604083018461405f565b949350505050565b60006040820190506141156000830185613e6a565b614122602083018461405f565b9392505050565b600060a08201905061413e6000830188613e6a565b61414b602083018761405f565b6141586040830186613e6a565b614165606083018561405f565b614172608083018461405f565b9695505050505050565b60006060820190506141916000830186613e6a565b61419e602083018561405f565b6141ab604083018461405f565b949350505050565b600060a0820190506141c86000830188613eaa565b6141d5602083018761405f565b6141e2604083018661405f565b6141ef606083018561405f565b6141fc6080830184613e6a565b9695505050505050565b600060e08201905061421b600083018a613eb9565b614228602083018961405f565b614235604083018861405f565b614242606083018761405f565b61424f608083018661405f565b61425c60a0830185613e6a565b61426960c083018461405f565b98975050505050505050565b6000602082019050818103600083015261428f8184613ec8565b905092915050565b600060208201905081810360008301526142b081613f01565b9050919050565b600060208201905081810360008301526142d081613f24565b9050919050565b600060208201905081810360008301526142f081613f47565b9050919050565b6000602082019050818103600083015261431081613f6a565b9050919050565b6000602082019050818103600083015261433081613f8d565b9050919050565b6000602082019050818103600083015261435081613fb0565b9050919050565b6000602082019050818103600083015261437081613fd3565b9050919050565b6000602082019050818103600083015261439081613ff6565b9050919050565b600060208201905081810360008301526143b081614019565b9050919050565b600060208201905081810360008301526143d08161403c565b9050919050565b60006020820190506143ec600083018461405f565b92915050565b6000606082019050614407600083018661405f565b6144146020830185613e6a565b6144216040830184613e6a565b949350505050565b600060408201905061443e600083018561405f565b61444b602083018461405f565b9392505050565b600081519050919050565b600081519050919050565b600081905092915050565b600082825260208201905092915050565b600061448f826145e9565b915061449a836145e9565b9250827fffffffffffffffffffffffffffffffffffffffffffffffffffffffffffffffff038211156144cf576144ce6146b7565b5b828201905092915050565b60006144e5826145e9565b91506144f0836145e9565b925082614500576144ff6146e6565b5b828204905092915050565b6000614516826145e9565b9150614521836145e9565b9250817fffffffffffffffffffffffffffffffffffffffffffffffffffffffffffffffff048311821515161561455a576145596146b7565b5b828202905092915050565b6000614570826145e9565b915061457b836145e9565b92508282101561458e5761458d6146b7565b5b828203905092915050565b60006145a4826145c9565b9050919050565b60008115159050919050565b60006145c282614599565b9050919050565b600073ffffffffffffffffffffffffffffffffffffffff82169050919050565b6000819050919050565b60006145fe82614617565b9050919050565b6000614610826145e9565b9050919050565b600061462282614629565b9050919050565b6000614634826145c9565b9050919050565b60005b8381101561465957808201518184015260208101905061463e565b83811115614668576000848401525b50505050565b6000614679826145e9565b91507fffffffffffffffffffffffffffffffffffffffffffffffffffffffffffffffff8214156146ac576146ab6146b7565b5b600182019050919050565b7f4e487b7100000000000000000000000000000000000000000000000000000000600052601160045260246000fd5b7f4e487b7100000000000000000000000000000000000000000000000000000000600052601260045260246000fd5b7f4e487b7100000000000000000000000000000000000000000000000000000000600052603260045260246000fd5b600080fd5b6000601f19601f8301169050919050565b7f47796d5661756c747342616e6b3a20736861726573546f74616c206973203000600082015250565b7f4f776e61626c653a206e6577206f776e657220697320746865207a65726f206160008201527f6464726573730000000000000000000000000000000000000000000000000000602082015250565b7f416464726573733a20696e73756666696369656e742062616c616e636520666f60008201527f722063616c6c0000000000000000000000000000000000000000000000000000602082015250565b7f47796d5661756c747342616e6b3a20757365722e736861726573206973203000600082015250565b7f4f776e61626c653a2063616c6c6572206973206e6f7420746865206f776e6572600082015250565b7f47796d5661756c747342616e6b3a204e6577207374726174656779206e6f742060008201527f656d707479000000000000000000000000000000000000000000000000000000602082015250565b7f47796d5661756c747342616e6b3a205374726174656779206e6f7420656d707460008201527f7900000000000000000000000000000000000000000000000000000000000000602082015250565b7f416464726573733a2063616c6c20746f206e6f6e2d636f6e7472616374000000600082015250565b7f5361666545524332303a204552433230206f7065726174696f6e20646964206e60008201527f6f74207375636365656400000000000000000000000000000000000000000000602082015250565b7f5265656e7472616e637947756172643a207265656e7472616e742063616c6c00600082015250565b6149bb81614599565b81146149c657600080fd5b50565b6149d2816145ab565b81146149dd57600080fd5b50565b6149e9816145b7565b81146149f457600080fd5b50565b614a00816145e9565b8114614a0b57600080fd5b5056fea264697066735822122038155d349b740f4b9ea75d83e062979c048d8f4964e16d95e491a90ba480800264736f6c63430008070033",
  "devdoc": {
    "kind": "dev",
    "methods": {
      "add(address,uint256,bool,address)": {
        "params": {
          "_allocPoint": ": AllocPoint for new pool",
          "_strategy": ": Address of Strategy contract",
          "_want": ": Address of want token contract",
          "_withUpdate": ": If true will call massUpdatePools function"
        }
      },
      "claim(uint256)": {
        "params": {
          "_pid": "pool Id"
        }
      },
      "claimAndDeposit(uint256,uint256,uint256,uint256,uint256)": {
        "params": {
          "_pid": ": pool Id"
        }
      },
      "deposit(uint256,uint256,uint256,uint256,uint256)": {
        "params": {
          "_pid": ": Pool id",
          "_referrerId": ": Referrer address",
          "_wantAmt": ": Amount of want token that user wants to deposit"
        }
      },
      "migrateStrategy(uint256,address)": {
        "params": {
          "_newStrategy": ": New strategy contract address for pool",
          "_pid": ": Pool id that will be updated"
        }
      },
      "owner()": {
        "details": "Returns the address of the current owner."
      },
      "pendingReward(uint256,address)": {
        "params": {
          "_pid": ": Pool id where user has assets",
          "_user": ": Users address"
        }
      },
      "renounceOwnership()": {
        "details": "Leaves the contract without owner. It will not be possible to call `onlyOwner` functions anymore. Can only be called by the current owner. NOTE: Renouncing ownership will leave the contract without an owner, thereby removing any functionality that is only available to the owner."
      },
      "resetStrategy(uint256,address)": {
        "params": {
          "_pid": ": Pool id that will be updated",
          "_strategy": ": New strategy contract address for pool"
        }
      },
      "set(uint256,uint256)": {
        "params": {
          "_allocPoint": ": New allocPoint for pool",
          "_pid": ": Pool id that will be updated"
        }
      },
      "setFarmingAddress(address)": {
        "params": {
          "_farmingAddress": "Address of treasury address"
        }
      },
      "setTreasuryAddress(address)": {
        "params": {
          "_treasuryAddress": "Address of treasury address"
        }
      },
      "setWithdrawFee(uint256)": {
        "params": {
          "_fee": "100 = 1%"
        }
      },
      "stakedWantTokens(uint256,address)": {
        "params": {
          "_pid": ": Pool id where user has assets",
          "_user": ": Users address"
        }
      },
      "transferOwnership(address)": {
        "details": "Transfers ownership of the contract to a new account (`newOwner`). Can only be called by the current owner."
      },
      "updatePool(uint256)": {
        "params": {
          "_pid": ": Pool id that will be updated"
        }
      },
      "withdraw(uint256,uint256)": {
        "params": {
          "_pid": ": Pool id",
          "_wantAmt": ": Amount of want token that user wants to withdraw"
        }
      }
    },
    "version": 1
  },
  "userdoc": {
    "kind": "user",
    "methods": {
      "BUY_AND_BURN_GYM()": {
        "notice": "Percent of amount that will be sent to buyBack contract"
      },
      "RELATIONSHIP_REWARD()": {
        "notice": "Percent of amount that will be sent to relationship contract"
      },
      "VAULTS_SAVING()": {
        "notice": "Percent of amount that will be sent to vault contract"
      },
      "add(address,uint256,bool,address)": {
        "notice": "Function to Add pool"
      },
      "claim(uint256)": {
        "notice": "Claim users rewards from given pool"
      },
      "claimAll()": {
        "notice": "Claim users rewards from all pools"
      },
      "claimAndDeposit(uint256,uint256,uint256,uint256,uint256)": {
        "notice": "Claim users rewards and add deposit in Farming contract"
      },
      "deposit(uint256,uint256,uint256,uint256,uint256)": {
        "notice": "Deposit in given pool"
      },
      "massUpdatePools()": {
        "notice": "Update reward variables for all pools. Be careful of gas spending!"
      },
      "migrateStrategy(uint256,address)": {
        "notice": "Migrates all assets to new strategy. Can only be called by the owner"
      },
      "pendingReward(uint256,address)": {
        "notice": "View function to see pending reward on frontend."
      },
      "poolInfo(uint256)": {
        "notice": "Info of each pool."
      },
      "resetStrategy(uint256,address)": {
        "notice": "Update the given pool's strategy. Can only be called by the owner"
      },
      "rewardPoolInfo()": {
        "notice": "Info of reward pool"
      },
      "set(uint256,uint256)": {
        "notice": "Update the given pool's reward allocation point. Can only be called by the owner"
      },
      "setFarmingAddress(address)": {
        "notice": "Function to set Farming address"
      },
      "setTreasuryAddress(address)": {
        "notice": "Function to set Treasury address"
      },
      "setWithdrawFee(uint256)": {
        "notice": "Function to set withdraw fee"
      },
      "stakedWantTokens(uint256,address)": {
        "notice": "View function to see staked Want tokens on frontend."
      },
      "startBlock()": {
        "notice": "Startblock number"
      },
      "totalAllocPoint()": {
        "notice": "Total allocation points. Must be the sum of all allocation points in all pools."
      },
      "treasuryAddress()": {
        "notice": "Treasury address where will be sent all unused assets"
      },
      "updatePool(uint256)": {
        "notice": "Update reward variables of the given pool to be up-to-date."
      },
      "updateRewardPerBlock()": {
        "notice": "Updates amount of reward tokens  per block that user will get. Can only be called by the owner"
      },
      "userInfo(uint256,address)": {
        "notice": "Info of each user that stakes want tokens."
      },
      "withdraw(uint256,uint256)": {
        "notice": "Withdraw user`s assets from pool"
      }
    },
    "notice": "GymVaultsBank contract: - Users can:   # Deposit token   # Deposit BNB   # Withdraw assets",
    "version": 1
  },
  "storageLayout": {
    "storage": [
      {
        "astId": 206,
        "contract": "cache/solpp-generated-contracts/GymVaultsBank.sol:GymVaultsBank",
        "label": "_status",
        "offset": 0,
        "slot": "0",
        "type": "t_uint256"
      },
      {
        "astId": 7,
        "contract": "cache/solpp-generated-contracts/GymVaultsBank.sol:GymVaultsBank",
        "label": "_owner",
        "offset": 0,
        "slot": "1",
        "type": "t_address"
      },
      {
        "astId": 3222,
        "contract": "cache/solpp-generated-contracts/GymVaultsBank.sol:GymVaultsBank",
        "label": "totalAllocPoint",
        "offset": 0,
        "slot": "2",
        "type": "t_uint256"
      },
      {
        "astId": 3225,
        "contract": "cache/solpp-generated-contracts/GymVaultsBank.sol:GymVaultsBank",
        "label": "startBlock",
        "offset": 0,
        "slot": "3",
        "type": "t_uint256"
      },
      {
        "astId": 3227,
        "contract": "cache/solpp-generated-contracts/GymVaultsBank.sol:GymVaultsBank",
        "label": "withdrawFee",
        "offset": 0,
        "slot": "4",
        "type": "t_uint256"
      },
      {
        "astId": 3232,
        "contract": "cache/solpp-generated-contracts/GymVaultsBank.sol:GymVaultsBank",
        "label": "farming",
        "offset": 0,
        "slot": "5",
        "type": "t_address"
      },
      {
        "astId": 3238,
        "contract": "cache/solpp-generated-contracts/GymVaultsBank.sol:GymVaultsBank",
        "label": "treasuryAddress",
        "offset": 0,
        "slot": "6",
        "type": "t_address"
      },
      {
        "astId": 3243,
        "contract": "cache/solpp-generated-contracts/GymVaultsBank.sol:GymVaultsBank",
        "label": "poolInfo",
        "offset": 0,
        "slot": "7",
        "type": "t_array(t_struct(PoolInfo)3202_storage)dyn_storage"
      },
      {
        "astId": 3251,
        "contract": "cache/solpp-generated-contracts/GymVaultsBank.sol:GymVaultsBank",
        "label": "userInfo",
        "offset": 0,
        "slot": "8",
        "type": "t_mapping(t_uint256,t_mapping(t_address,t_struct(UserInfo)3190_storage))"
      },
      {
        "astId": 3255,
        "contract": "cache/solpp-generated-contracts/GymVaultsBank.sol:GymVaultsBank",
        "label": "rewardPoolInfo",
        "offset": 0,
        "slot": "9",
        "type": "t_struct(RewardPoolInfo)3207_storage"
      },
      {
        "astId": 3258,
        "contract": "cache/solpp-generated-contracts/GymVaultsBank.sol:GymVaultsBank",
        "label": "alpacaToWBNB",
        "offset": 0,
        "slot": "11",
        "type": "t_array(t_address)dyn_storage"
      },
      {
        "astId": 3260,
        "contract": "cache/solpp-generated-contracts/GymVaultsBank.sol:GymVaultsBank",
        "label": "lastChangeBlock",
        "offset": 0,
        "slot": "12",
        "type": "t_uint256"
      },
      {
        "astId": 3262,
        "contract": "cache/solpp-generated-contracts/GymVaultsBank.sol:GymVaultsBank",
        "label": "rewardPerBlockChangesCount",
        "offset": 0,
        "slot": "13",
        "type": "t_uint256"
      }
    ],
    "types": {
      "t_address": {
        "encoding": "inplace",
        "label": "address",
        "numberOfBytes": "20"
      },
      "t_array(t_address)dyn_storage": {
        "base": "t_address",
        "encoding": "dynamic_array",
        "label": "address[]",
        "numberOfBytes": "32"
      },
      "t_array(t_struct(PoolInfo)3202_storage)dyn_storage": {
        "base": "t_struct(PoolInfo)3202_storage",
        "encoding": "dynamic_array",
        "label": "struct GymVaultsBank.PoolInfo[]",
        "numberOfBytes": "32"
      },
      "t_contract(IERC20)313": {
        "encoding": "inplace",
        "label": "contract IERC20",
        "numberOfBytes": "20"
      },
      "t_mapping(t_address,t_struct(UserInfo)3190_storage)": {
        "encoding": "mapping",
        "key": "t_address",
        "label": "mapping(address => struct GymVaultsBank.UserInfo)",
        "numberOfBytes": "32",
        "value": "t_struct(UserInfo)3190_storage"
      },
      "t_mapping(t_uint256,t_mapping(t_address,t_struct(UserInfo)3190_storage))": {
        "encoding": "mapping",
        "key": "t_uint256",
        "label": "mapping(uint256 => mapping(address => struct GymVaultsBank.UserInfo))",
        "numberOfBytes": "32",
        "value": "t_mapping(t_address,t_struct(UserInfo)3190_storage)"
      },
      "t_struct(PoolInfo)3202_storage": {
        "encoding": "inplace",
        "label": "struct GymVaultsBank.PoolInfo",
        "members": [
          {
            "astId": 3193,
            "contract": "cache/solpp-generated-contracts/GymVaultsBank.sol:GymVaultsBank",
            "label": "want",
            "offset": 0,
            "slot": "0",
            "type": "t_contract(IERC20)313"
          },
          {
            "astId": 3195,
            "contract": "cache/solpp-generated-contracts/GymVaultsBank.sol:GymVaultsBank",
            "label": "allocPoint",
            "offset": 0,
            "slot": "1",
            "type": "t_uint256"
          },
          {
            "astId": 3197,
            "contract": "cache/solpp-generated-contracts/GymVaultsBank.sol:GymVaultsBank",
            "label": "lastRewardBlock",
            "offset": 0,
            "slot": "2",
            "type": "t_uint256"
          },
          {
            "astId": 3199,
            "contract": "cache/solpp-generated-contracts/GymVaultsBank.sol:GymVaultsBank",
            "label": "accRewardPerShare",
            "offset": 0,
            "slot": "3",
            "type": "t_uint256"
          },
          {
            "astId": 3201,
            "contract": "cache/solpp-generated-contracts/GymVaultsBank.sol:GymVaultsBank",
            "label": "strategy",
            "offset": 0,
            "slot": "4",
            "type": "t_address"
          }
        ],
        "numberOfBytes": "160"
      },
      "t_struct(RewardPoolInfo)3207_storage": {
        "encoding": "inplace",
        "label": "struct GymVaultsBank.RewardPoolInfo",
        "members": [
          {
            "astId": 3204,
            "contract": "cache/solpp-generated-contracts/GymVaultsBank.sol:GymVaultsBank",
            "label": "rewardToken",
            "offset": 0,
            "slot": "0",
            "type": "t_address"
          },
          {
            "astId": 3206,
            "contract": "cache/solpp-generated-contracts/GymVaultsBank.sol:GymVaultsBank",
            "label": "rewardPerBlock",
            "offset": 0,
            "slot": "1",
            "type": "t_uint256"
          }
        ],
        "numberOfBytes": "64"
      },
      "t_struct(UserInfo)3190_storage": {
        "encoding": "inplace",
        "label": "struct GymVaultsBank.UserInfo",
        "members": [
          {
            "astId": 3187,
            "contract": "cache/solpp-generated-contracts/GymVaultsBank.sol:GymVaultsBank",
            "label": "shares",
            "offset": 0,
            "slot": "0",
            "type": "t_uint256"
          },
          {
            "astId": 3189,
            "contract": "cache/solpp-generated-contracts/GymVaultsBank.sol:GymVaultsBank",
            "label": "rewardDebt",
            "offset": 0,
            "slot": "1",
            "type": "t_uint256"
          }
        ],
        "numberOfBytes": "64"
      },
      "t_uint256": {
        "encoding": "inplace",
        "label": "uint256",
        "numberOfBytes": "32"
      }
    }
  }
}