{
  "address": "0x998D98e9480A8f52A5252Faf316d129765773294",
  "abi": [
    {
      "inputs": [
        {
          "internalType": "address",
          "name": "_controller",
          "type": "address"
        },
        {
          "internalType": "bool",
          "name": "_isAutoComp",
          "type": "bool"
        },
        {
          "internalType": "address",
          "name": "_vaultContractAddress",
          "type": "address"
        },
        {
          "internalType": "address",
          "name": "_farmContractAddress",
          "type": "address"
        },
        {
          "internalType": "uint256",
          "name": "_pid",
          "type": "uint256"
        },
        {
          "internalType": "address",
          "name": "_wantAddress",
          "type": "address"
        },
        {
          "internalType": "address",
          "name": "_earnedAddress",
          "type": "address"
        },
        {
          "internalType": "address",
          "name": "_uniRouterAddress",
          "type": "address"
        }
      ],
      "stateMutability": "nonpayable",
      "type": "constructor"
    },
    {
      "anonymous": false,
      "inputs": [
        {
          "indexed": false,
          "internalType": "address",
          "name": "earnedAddress",
          "type": "address"
        },
        {
          "indexed": false,
          "internalType": "address",
          "name": "buyBackToken",
          "type": "address"
        },
        {
          "indexed": false,
          "internalType": "uint256",
          "name": "earnedAmt",
          "type": "uint256"
        },
        {
          "indexed": false,
          "internalType": "uint256",
          "name": "buyBackAmt",
          "type": "uint256"
        },
        {
          "indexed": false,
          "internalType": "address",
          "name": "receiver",
          "type": "address"
        }
      ],
      "name": "BuyBack",
      "type": "event"
    },
    {
      "anonymous": false,
      "inputs": [
        {
          "indexed": false,
          "internalType": "address",
          "name": "token0Address",
          "type": "address"
        },
        {
          "indexed": false,
          "internalType": "uint256",
          "name": "token0Amt",
          "type": "uint256"
        },
        {
          "indexed": false,
          "internalType": "address",
          "name": "token1Address",
          "type": "address"
        },
        {
          "indexed": false,
          "internalType": "uint256",
          "name": "token1Amt",
          "type": "uint256"
        }
      ],
      "name": "Compound",
      "type": "event"
    },
    {
      "anonymous": false,
      "inputs": [
        {
          "indexed": false,
          "internalType": "address",
          "name": "tokenAddress",
          "type": "address"
        },
        {
          "indexed": false,
          "internalType": "address",
          "name": "earnedAddress",
          "type": "address"
        },
        {
          "indexed": false,
          "internalType": "uint256",
          "name": "tokenAmt",
          "type": "uint256"
        }
      ],
      "name": "ConvertDustToEarned",
      "type": "event"
    },
    {
      "anonymous": false,
      "inputs": [
        {
          "indexed": false,
          "internalType": "uint256",
          "name": "amount",
          "type": "uint256"
        }
      ],
      "name": "Deposit",
      "type": "event"
    },
    {
      "anonymous": false,
      "inputs": [
        {
          "indexed": false,
          "internalType": "address",
          "name": "earnedAddress",
          "type": "address"
        },
        {
          "indexed": false,
          "internalType": "uint256",
          "name": "fee",
          "type": "uint256"
        },
        {
          "indexed": false,
          "internalType": "address",
          "name": "receiver",
          "type": "address"
        }
      ],
      "name": "DistributeFee",
      "type": "event"
    },
    {
      "anonymous": false,
      "inputs": [
        {
          "indexed": false,
          "internalType": "address",
          "name": "earnedAddress",
          "type": "address"
        },
        {
          "indexed": false,
          "internalType": "uint256",
          "name": "earnedAmt",
          "type": "uint256"
        }
      ],
      "name": "Earned",
      "type": "event"
    },
    {
      "anonymous": false,
      "inputs": [
        {
          "indexed": true,
          "internalType": "address",
          "name": "target",
          "type": "address"
        },
        {
          "indexed": false,
          "internalType": "uint256",
          "name": "value",
          "type": "uint256"
        },
        {
          "indexed": false,
          "internalType": "string",
          "name": "signature",
          "type": "string"
        },
        {
          "indexed": false,
          "internalType": "bytes",
          "name": "data",
          "type": "bytes"
        }
      ],
      "name": "ExecuteTransaction",
      "type": "event"
    },
    {
      "anonymous": false,
      "inputs": [
        {
          "indexed": false,
          "internalType": "uint256",
          "name": "amount",
          "type": "uint256"
        }
      ],
      "name": "Farm",
      "type": "event"
    },
    {
      "anonymous": false,
      "inputs": [
        {
          "indexed": false,
          "internalType": "address",
          "name": "tokenAddress",
          "type": "address"
        },
        {
          "indexed": false,
          "internalType": "uint256",
          "name": "tokenAmt",
          "type": "uint256"
        },
        {
          "indexed": false,
          "internalType": "address",
          "name": "receiver",
          "type": "address"
        }
      ],
      "name": "InCaseTokensGetStuck",
      "type": "event"
    },
    {
      "anonymous": false,
      "inputs": [
        {
          "indexed": true,
          "internalType": "address",
          "name": "previousOwner",
          "type": "address"
        },
        {
          "indexed": true,
          "internalType": "address",
          "name": "newOwner",
          "type": "address"
        }
      ],
      "name": "OwnershipTransferred",
      "type": "event"
    },
    {
      "anonymous": false,
      "inputs": [
        {
          "indexed": false,
          "internalType": "address",
          "name": "account",
          "type": "address"
        }
      ],
      "name": "Paused",
      "type": "event"
    },
    {
      "anonymous": false,
      "inputs": [
        {
          "indexed": false,
          "internalType": "address",
          "name": "account",
          "type": "address"
        }
      ],
      "name": "Unpaused",
      "type": "event"
    },
    {
      "anonymous": false,
      "inputs": [
        {
          "indexed": false,
          "internalType": "uint256",
          "name": "amount",
          "type": "uint256"
        }
      ],
      "name": "Withdraw",
      "type": "event"
    },
    {
      "stateMutability": "payable",
      "type": "fallback"
    },
    {
      "inputs": [],
      "name": "balanceInPool",
      "outputs": [
        {
          "internalType": "uint256",
          "name": "",
          "type": "uint256"
        }
      ],
      "stateMutability": "view",
      "type": "function"
    },
    {
      "inputs": [],
      "name": "busdAddress",
      "outputs": [
        {
          "internalType": "address",
          "name": "",
          "type": "address"
        }
      ],
      "stateMutability": "view",
      "type": "function"
    },
    {
      "inputs": [],
      "name": "checkForUnlockReward",
      "outputs": [
        {
          "internalType": "bool",
          "name": "",
          "type": "bool"
        }
      ],
      "stateMutability": "view",
      "type": "function"
    },
    {
      "inputs": [],
      "name": "controllerFee",
      "outputs": [
        {
          "internalType": "uint256",
          "name": "",
          "type": "uint256"
        }
      ],
      "stateMutability": "view",
      "type": "function"
    },
    {
      "inputs": [],
      "name": "controllerFeeMax",
      "outputs": [
        {
          "internalType": "uint256",
          "name": "",
          "type": "uint256"
        }
      ],
      "stateMutability": "view",
      "type": "function"
    },
    {
      "inputs": [],
      "name": "controllerFeeUL",
      "outputs": [
        {
          "internalType": "uint256",
          "name": "",
          "type": "uint256"
        }
      ],
      "stateMutability": "view",
      "type": "function"
    },
    {
      "inputs": [
        {
          "internalType": "uint256",
          "name": "_amountOutAmt",
          "type": "uint256"
        },
        {
          "internalType": "uint256",
          "name": "_deadline",
          "type": "uint256"
        }
      ],
      "name": "convertDustToEarned",
      "outputs": [],
      "stateMutability": "nonpayable",
      "type": "function"
    },
    {
      "inputs": [
        {
          "internalType": "address",
          "name": "",
          "type": "address"
        },
        {
          "internalType": "uint256",
          "name": "_wantAmt",
          "type": "uint256"
        }
      ],
      "name": "deposit",
      "outputs": [
        {
          "internalType": "uint256",
          "name": "",
          "type": "uint256"
        }
      ],
      "stateMutability": "nonpayable",
      "type": "function"
    },
    {
      "inputs": [
        {
          "internalType": "uint256",
          "name": "_amountOutAmt",
          "type": "uint256"
        },
        {
          "internalType": "uint256",
          "name": "_deadline",
          "type": "uint256"
        }
      ],
      "name": "earn",
      "outputs": [],
      "stateMutability": "nonpayable",
      "type": "function"
    },
    {
      "inputs": [],
      "name": "earnedAddress",
      "outputs": [
        {
          "internalType": "address",
          "name": "",
          "type": "address"
        }
      ],
      "stateMutability": "view",
      "type": "function"
    },
    {
      "inputs": [
        {
          "internalType": "uint256",
          "name": "",
          "type": "uint256"
        }
      ],
      "name": "earnedToBusdPath",
      "outputs": [
        {
          "internalType": "address",
          "name": "",
          "type": "address"
        }
      ],
      "stateMutability": "view",
      "type": "function"
    },
    {
      "inputs": [
        {
          "internalType": "uint256",
          "name": "",
          "type": "uint256"
        }
      ],
      "name": "earnedToWantPath",
      "outputs": [
        {
          "internalType": "address",
          "name": "",
          "type": "address"
        }
      ],
      "stateMutability": "view",
      "type": "function"
    },
    {
      "inputs": [],
      "name": "emergencyWithraw",
      "outputs": [],
      "stateMutability": "nonpayable",
      "type": "function"
    },
    {
      "inputs": [],
      "name": "entranceFeeFactor",
      "outputs": [
        {
          "internalType": "uint256",
          "name": "",
          "type": "uint256"
        }
      ],
      "stateMutability": "view",
      "type": "function"
    },
    {
      "inputs": [],
      "name": "entranceFeeFactorLL",
      "outputs": [
        {
          "internalType": "uint256",
          "name": "",
          "type": "uint256"
        }
      ],
      "stateMutability": "view",
      "type": "function"
    },
    {
      "inputs": [],
      "name": "entranceFeeFactorMax",
      "outputs": [
        {
          "internalType": "uint256",
          "name": "",
          "type": "uint256"
        }
      ],
      "stateMutability": "view",
      "type": "function"
    },
    {
      "inputs": [],
      "name": "farm",
      "outputs": [],
      "stateMutability": "nonpayable",
      "type": "function"
    },
    {
      "inputs": [],
      "name": "farmContractAddress",
      "outputs": [
        {
          "internalType": "address",
          "name": "",
          "type": "address"
        }
      ],
      "stateMutability": "view",
      "type": "function"
    },
    {
      "inputs": [
        {
          "internalType": "address",
          "name": "_token",
          "type": "address"
        },
        {
          "internalType": "uint256",
          "name": "_amount",
          "type": "uint256"
        },
        {
          "internalType": "address",
          "name": "_to",
          "type": "address"
        }
      ],
      "name": "inCaseTokensGetStuck",
      "outputs": [],
      "stateMutability": "nonpayable",
      "type": "function"
    },
    {
      "inputs": [
        {
          "internalType": "address",
          "name": "_account",
          "type": "address"
        }
      ],
      "name": "isAuthorised",
      "outputs": [
        {
          "internalType": "bool",
          "name": "",
          "type": "bool"
        }
      ],
      "stateMutability": "view",
      "type": "function"
    },
    {
      "inputs": [],
      "name": "isAutoComp",
      "outputs": [
        {
          "internalType": "bool",
          "name": "",
          "type": "bool"
        }
      ],
      "stateMutability": "view",
      "type": "function"
    },
    {
      "inputs": [],
      "name": "lastEarnBlock",
      "outputs": [
        {
          "internalType": "uint256",
          "name": "",
          "type": "uint256"
        }
      ],
      "stateMutability": "view",
      "type": "function"
    },
    {
      "inputs": [],
      "name": "notPublic",
      "outputs": [
        {
          "internalType": "bool",
          "name": "",
          "type": "bool"
        }
      ],
      "stateMutability": "view",
      "type": "function"
    },
    {
      "inputs": [],
      "name": "operator",
      "outputs": [
        {
          "internalType": "address",
          "name": "",
          "type": "address"
        }
      ],
      "stateMutability": "view",
      "type": "function"
    },
    {
      "inputs": [],
      "name": "owner",
      "outputs": [
        {
          "internalType": "address",
          "name": "",
          "type": "address"
        }
      ],
      "stateMutability": "view",
      "type": "function"
    },
    {
      "inputs": [],
      "name": "pause",
      "outputs": [],
      "stateMutability": "nonpayable",
      "type": "function"
    },
    {
      "inputs": [],
      "name": "paused",
      "outputs": [
        {
          "internalType": "bool",
          "name": "",
          "type": "bool"
        }
      ],
      "stateMutability": "view",
      "type": "function"
    },
    {
      "inputs": [],
      "name": "pendingHarvest",
      "outputs": [
        {
          "internalType": "uint256",
          "name": "",
          "type": "uint256"
        }
      ],
      "stateMutability": "view",
      "type": "function"
    },
    {
      "inputs": [],
      "name": "pendingHarvestDollarValue",
      "outputs": [
        {
          "internalType": "uint256",
          "name": "",
          "type": "uint256"
        }
      ],
      "stateMutability": "view",
      "type": "function"
    },
    {
      "inputs": [],
      "name": "pid",
      "outputs": [
        {
          "internalType": "uint256",
          "name": "",
          "type": "uint256"
        }
      ],
      "stateMutability": "view",
      "type": "function"
    },
    {
      "inputs": [],
      "name": "renounceOwnership",
      "outputs": [],
      "stateMutability": "nonpayable",
      "type": "function"
    },
    {
      "inputs": [],
      "name": "resumeStrategy",
      "outputs": [],
      "stateMutability": "nonpayable",
      "type": "function"
    },
    {
      "inputs": [
        {
          "internalType": "bool",
          "name": "_checkForUnlockReward",
          "type": "bool"
        }
      ],
      "name": "setCheckForUnlockReward",
      "outputs": [],
      "stateMutability": "nonpayable",
      "type": "function"
    },
    {
      "inputs": [
        {
          "internalType": "uint256",
          "name": "_controllerFee",
          "type": "uint256"
        }
      ],
      "name": "setControllerFee",
      "outputs": [],
      "stateMutability": "nonpayable",
      "type": "function"
    },
    {
      "inputs": [
        {
          "internalType": "uint256",
          "name": "_entranceFeeFactor",
          "type": "uint256"
        }
      ],
      "name": "setEntranceFeeFactor",
      "outputs": [],
      "stateMutability": "nonpayable",
      "type": "function"
    },
    {
      "inputs": [
        {
          "internalType": "bool",
          "name": "_notPublic",
          "type": "bool"
        }
      ],
      "name": "setNotPublic",
      "outputs": [],
      "stateMutability": "nonpayable",
      "type": "function"
    },
    {
      "inputs": [
        {
          "internalType": "address",
          "name": "_operator",
          "type": "address"
        }
      ],
      "name": "setOperator",
      "outputs": [],
      "stateMutability": "nonpayable",
      "type": "function"
    },
    {
      "inputs": [
        {
          "internalType": "address",
          "name": "_strategist",
          "type": "address"
        }
      ],
      "name": "setStrategist",
      "outputs": [],
      "stateMutability": "nonpayable",
      "type": "function"
    },
    {
      "inputs": [],
      "name": "sharesTotal",
      "outputs": [
        {
          "internalType": "uint256",
          "name": "",
          "type": "uint256"
        }
      ],
      "stateMutability": "view",
      "type": "function"
    },
    {
      "inputs": [],
      "name": "strategist",
      "outputs": [
        {
          "internalType": "address",
          "name": "",
          "type": "address"
        }
      ],
      "stateMutability": "view",
      "type": "function"
    },
    {
      "inputs": [],
      "name": "strategyStopped",
      "outputs": [
        {
          "internalType": "bool",
          "name": "",
          "type": "bool"
        }
      ],
      "stateMutability": "view",
      "type": "function"
    },
    {
      "inputs": [
        {
          "internalType": "address",
          "name": "newOwner",
          "type": "address"
        }
      ],
      "name": "transferOwnership",
      "outputs": [],
      "stateMutability": "nonpayable",
      "type": "function"
    },
    {
      "inputs": [
        {
          "internalType": "uint256",
          "name": "_tokenAmount",
          "type": "uint256"
        },
        {
          "internalType": "address[]",
          "name": "_path",
          "type": "address[]"
        }
      ],
      "name": "uniExchangeRate",
      "outputs": [
        {
          "internalType": "uint256",
          "name": "",
          "type": "uint256"
        }
      ],
      "stateMutability": "view",
      "type": "function"
    },
    {
      "inputs": [],
      "name": "uniRouterAddress",
      "outputs": [
        {
          "internalType": "address",
          "name": "",
          "type": "address"
        }
      ],
      "stateMutability": "view",
      "type": "function"
    },
    {
      "inputs": [],
      "name": "unpause",
      "outputs": [],
      "stateMutability": "nonpayable",
      "type": "function"
    },
    {
      "inputs": [],
      "name": "vaultContractAddress",
      "outputs": [
        {
          "internalType": "address",
          "name": "",
          "type": "address"
        }
      ],
      "stateMutability": "view",
      "type": "function"
    },
    {
      "inputs": [],
      "name": "wantAddress",
      "outputs": [
        {
          "internalType": "address",
          "name": "",
          "type": "address"
        }
      ],
      "stateMutability": "view",
      "type": "function"
    },
    {
      "inputs": [],
      "name": "wantLockedTotal",
      "outputs": [
        {
          "internalType": "uint256",
          "name": "",
          "type": "uint256"
        }
      ],
      "stateMutability": "view",
      "type": "function"
    },
    {
      "inputs": [
        {
          "internalType": "uint256",
          "name": "",
          "type": "uint256"
        }
      ],
      "name": "wantToEarnedPath",
      "outputs": [
        {
          "internalType": "address",
          "name": "",
          "type": "address"
        }
      ],
      "stateMutability": "view",
      "type": "function"
    },
    {
      "inputs": [],
      "name": "wbnbAddress",
      "outputs": [
        {
          "internalType": "address",
          "name": "",
          "type": "address"
        }
      ],
      "stateMutability": "view",
      "type": "function"
    },
    {
      "inputs": [
        {
          "internalType": "address",
          "name": "",
          "type": "address"
        },
        {
          "internalType": "uint256",
          "name": "_wantAmt",
          "type": "uint256"
        }
      ],
      "name": "withdraw",
      "outputs": [
        {
          "internalType": "uint256",
          "name": "",
          "type": "uint256"
        }
      ],
      "stateMutability": "nonpayable",
      "type": "function"
    },
    {
      "stateMutability": "payable",
      "type": "receive"
    }
  ],
  "transactionHash": "0xfea79f01a549671c15d047d85963409fa559a851f3da6a72203519188fe1d379",
  "args": [
    "0xa4e2d8701aD26d4613E22cDF2BC709AFaC99A382",
    true,
    "0x7C9e73d4C71dae564d41F78d56439bB4ba87592f",
    "0xA625AB01B08ce023B2a342Dbb12a16f2C8489A8F",
    "3",
    "0xe9e7CEA3DedcA5984780Bafc599bD69ADd087D56",
    "0x8F0528cE5eF7B51152A59745bEfDD91D97091d2F",
    "0x10ED43C718714eb63d5aA57B78B54704E256024E"
  ],
  "solcInputHash": "caebb102e5ab54931b511ccb27e650d0",
  "bytecode": "0x60806040523480156200001157600080fd5b506040516200603038038062006030833981810160405281019062000037919062000887565b620000576200004b6200058960201b60201c565b6200059160201b60201c565b600180819055506000600260006101000a81548160ff02191690831515021790555033600860006101000a81548173ffffffffffffffffffffffffffffffffffffffff021916908373ffffffffffffffffffffffffffffffffffffffff16021790555033600960006101000a81548173ffffffffffffffffffffffffffffffffffffffff021916908373ffffffffffffffffffffffffffffffffffffffff1602179055507310ed43c718714eb63d5aa57b78b54704e256024e600760006101000a81548173ffffffffffffffffffffffffffffffffffffffff021916908373ffffffffffffffffffffffffffffffffffffffff1602179055506000600960146101000a81548160ff0219169083151502179055506000600d8190555086600260016101000a81548160ff02191690831515021790555082600560006101000a81548173ffffffffffffffffffffffffffffffffffffffff021916908373ffffffffffffffffffffffffffffffffffffffff160217905550612710600e81905550600073ffffffffffffffffffffffffffffffffffffffff168173ffffffffffffffffffffffffffffffffffffffff16146200024e5780600760006101000a81548173ffffffffffffffffffffffffffffffffffffffff021916908373ffffffffffffffffffffffffffffffffffffffff1602179055505b600260019054906101000a900460ff16156200056a5785600260046101000a81548173ffffffffffffffffffffffffffffffffffffffff021916908373ffffffffffffffffffffffffffffffffffffffff16021790555084600360006101000a81548173ffffffffffffffffffffffffffffffffffffffff021916908373ffffffffffffffffffffffffffffffffffffffff1602179055508360048190555081600660006101000a81548173ffffffffffffffffffffffffffffffffffffffff021916908373ffffffffffffffffffffffffffffffffffffffff16021790555080600760006101000a81548173ffffffffffffffffffffffffffffffffffffffff021916908373ffffffffffffffffffffffffffffffffffffffff1602179055506040518060400160405280600660009054906101000a900473ffffffffffffffffffffffffffffffffffffffff1673ffffffffffffffffffffffffffffffffffffffff1673ffffffffffffffffffffffffffffffffffffffff16815260200173e9e7cea3dedca5984780bafc599bd69add087d5673ffffffffffffffffffffffffffffffffffffffff1673ffffffffffffffffffffffffffffffffffffffff1681525060109060026200042492919062000794565b506040518060400160405280600660009054906101000a900473ffffffffffffffffffffffffffffffffffffffff1673ffffffffffffffffffffffffffffffffffffffff1673ffffffffffffffffffffffffffffffffffffffff1681526020018473ffffffffffffffffffffffffffffffffffffffff1673ffffffffffffffffffffffffffffffffffffffff16815250600f906002620004c692919062000794565b5060405180604001604052808473ffffffffffffffffffffffffffffffffffffffff1673ffffffffffffffffffffffffffffffffffffffff168152602001600660009054906101000a900473ffffffffffffffffffffffffffffffffffffffff1673ffffffffffffffffffffffffffffffffffffffff1673ffffffffffffffffffffffffffffffffffffffff1681525060119060026200056892919062000794565b505b6200057b886200065560201b60201c565b505050505050505062000b08565b600033905090565b60008060009054906101000a900473ffffffffffffffffffffffffffffffffffffffff169050816000806101000a81548173ffffffffffffffffffffffffffffffffffffffff021916908373ffffffffffffffffffffffffffffffffffffffff1602179055508173ffffffffffffffffffffffffffffffffffffffff168173ffffffffffffffffffffffffffffffffffffffff167f8be0079c531659141344cd1fd0a4f28419497f9722a3daafe3b4186f6b6457e060405160405180910390a35050565b620006656200058960201b60201c565b73ffffffffffffffffffffffffffffffffffffffff166200068b6200076b60201b60201c565b73ffffffffffffffffffffffffffffffffffffffff1614620006e4576040517f08c379a0000000000000000000000000000000000000000000000000000000008152600401620006db90620009c0565b60405180910390fd5b600073ffffffffffffffffffffffffffffffffffffffff168173ffffffffffffffffffffffffffffffffffffffff16141562000757576040517f08c379a00000000000000000000000000000000000000000000000000000000081526004016200074e906200099e565b60405180910390fd5b62000768816200059160201b60201c565b50565b60008060009054906101000a900473ffffffffffffffffffffffffffffffffffffffff16905090565b82805482825590600052602060002090810192821562000810579160200282015b828111156200080f5782518260006101000a81548173ffffffffffffffffffffffffffffffffffffffff021916908373ffffffffffffffffffffffffffffffffffffffff16021790555091602001919060010190620007b5565b5b5090506200081f919062000823565b5090565b5b808211156200083e57600081600090555060010162000824565b5090565b600081519050620008538162000aba565b92915050565b6000815190506200086a8162000ad4565b92915050565b600081519050620008818162000aee565b92915050565b600080600080600080600080610100898b031215620008ab57620008aa62000a3d565b5b6000620008bb8b828c0162000842565b9850506020620008ce8b828c0162000859565b9750506040620008e18b828c0162000842565b9650506060620008f48b828c0162000842565b9550506080620009078b828c0162000870565b94505060a06200091a8b828c0162000842565b93505060c06200092d8b828c0162000842565b92505060e0620009408b828c0162000842565b9150509295985092959890939650565b60006200095f602683620009e2565b91506200096c8262000a42565b604082019050919050565b600062000986602083620009e2565b9150620009938262000a91565b602082019050919050565b60006020820190508181036000830152620009b98162000950565b9050919050565b60006020820190508181036000830152620009db8162000977565b9050919050565b600082825260208201905092915050565b600062000a008262000a13565b9050919050565b60008115159050919050565b600073ffffffffffffffffffffffffffffffffffffffff82169050919050565b6000819050919050565b600080fd5b7f4f776e61626c653a206e6577206f776e657220697320746865207a65726f206160008201527f6464726573730000000000000000000000000000000000000000000000000000602082015250565b7f4f776e61626c653a2063616c6c6572206973206e6f7420746865206f776e6572600082015250565b62000ac581620009f3565b811462000ad157600080fd5b50565b62000adf8162000a07565b811462000aeb57600080fd5b50565b62000af98162000a33565b811462000b0557600080fd5b50565b6155188062000b186000396000f3fe6080604052600436106102e85760003560e01c8063693a090b11610190578063b3ab15fb116100dc578063e719847411610095578063f10684541161006f578063f106845414610aba578063f2fde38b14610ae5578063f3fef3a314610b0e578063f400d31114610b4b576102ef565b8063e719847414610a39578063e7a0367914610a64578063ee50dc3414610a8f576102ef565b8063b3ab15fb1461093b578063c302a4d014610964578063c7b9d5301461098f578063d8be16da146109b8578063db7a3c0f146109e3578063e5dd455a14610a0e576102ef565b806385f02dd6116101495780638da5cb5b116101235780638da5cb5b1461088f5780639b5e8b14146108ba5780639fc33a9f146108e5578063a92ea0e014610910576102ef565b806385f02dd614610810578063889adfa81461083b5780638c541ea714610866576102ef565b8063693a090b14610724578063715018a61461074f57806376398a901461076657806376a90231146107a357806376ba098a146107ce5780638456cb59146107f9576102ef565b806342da4eb31161024f578063570ca73511610208578063643840f2116101e2578063643840f21461066a57806366c31db71461069357806367206d40146106be5780636804d54a146106e7576102ef565b8063570ca735146105e95780635c975abb1461061457806363fe3e3a1461063f576102ef565b806342da4eb3146104d957806344a3955e1461050457806345d6b6671461052f57806347e7ef24146105585780634838c5f11461059557806351b699cd146105ac576102ef565b80631fe4a686116102a15780631fe4a686146103ef5780632717eff31461041a57806336e9332d1461044557806338946a8c1461045c5780633e1a8912146104995780633f4ba83a146104c2576102ef565b8063061c7d48146102f15780630754a71c1461031c5780630fa4e01e1461035957806312951723146103845780631334903f1461039b5780631f81650c146103c6576102ef565b366102ef57005b005b3480156102fd57600080fd5b50610306610b74565b6040516103139190614b51565b60405180910390f35b34801561032857600080fd5b50610343600480360381019061033e9190614246565b610b7a565b604051610350919061479d565b60405180910390f35b34801561036557600080fd5b5061036e610bb9565b60405161037b9190614b51565b60405180910390f35b34801561039057600080fd5b50610399610bbf565b005b3480156103a757600080fd5b506103b0610c73565b6040516103bd9190614b51565b60405180910390f35b3480156103d257600080fd5b506103ed60048036038101906103e891906141ec565b610c79565b005b3480156103fb57600080fd5b50610404610d26565b604051610411919061479d565b60405180910390f35b34801561042657600080fd5b5061042f610d4c565b60405161043c9190614b51565b60405180910390f35b34801561045157600080fd5b5061045a610d52565b005b34801561046857600080fd5b50610483600480360381019061047e9190614246565b610dff565b604051610490919061479d565b60405180910390f35b3480156104a557600080fd5b506104c060048036038101906104bb9190614246565b610e3e565b005b3480156104ce57600080fd5b506104d7610f61565b005b3480156104e557600080fd5b506104ee610ffb565b6040516104fb9190614b51565b60405180910390f35b34801561051057600080fd5b50610519611001565b6040516105269190614b51565b60405180910390f35b34801561053b57600080fd5b50610556600480360381019061055191906141ec565b611007565b005b34801561056457600080fd5b5061057f600480360381019061057a9190614110565b6110b4565b60405161058c9190614b51565b60405180910390f35b3480156105a157600080fd5b506105aa6112eb565b005b3480156105b857600080fd5b506105d360048036038101906105ce91906140b6565b61156e565b6040516105e091906148f4565b60405180910390f35b3480156105f557600080fd5b506105fe611620565b60405161060b919061479d565b60405180910390f35b34801561062057600080fd5b50610629611646565b60405161063691906148f4565b60405180910390f35b34801561064b57600080fd5b5061065461165d565b604051610661919061479d565b60405180910390f35b34801561067657600080fd5b50610691600480360381019061068c91906142fc565b611675565b005b34801561069f57600080fd5b506106a8611d18565b6040516106b59190614b51565b60405180910390f35b3480156106ca57600080fd5b506106e560048036038101906106e09190614150565b611dd6565b005b3480156106f357600080fd5b5061070e600480360381019061070991906142a0565b611ff3565b60405161071b9190614b51565b60405180910390f35b34801561073057600080fd5b506107396120db565b604051610746919061479d565b60405180910390f35b34801561075b57600080fd5b50610764612101565b005b34801561077257600080fd5b5061078d60048036038101906107889190614246565b612189565b60405161079a919061479d565b60405180910390f35b3480156107af57600080fd5b506107b86121c8565b6040516107c5919061479d565b60405180910390f35b3480156107da57600080fd5b506107e36121e0565b6040516107f091906148f4565b60405180910390f35b34801561080557600080fd5b5061080e6121f3565b005b34801561081c57600080fd5b5061082561228d565b6040516108329190614b51565b60405180910390f35b34801561084757600080fd5b50610850612293565b60405161085d9190614b51565b60405180910390f35b34801561087257600080fd5b5061088d600480360381019061088891906142fc565b612346565b005b34801561089b57600080fd5b506108a461269b565b6040516108b1919061479d565b60405180910390f35b3480156108c657600080fd5b506108cf6126c4565b6040516108dc91906148f4565b60405180910390f35b3480156108f157600080fd5b506108fa6126d5565b604051610907919061479d565b60405180910390f35b34801561091c57600080fd5b506109256126fb565b604051610932919061479d565b60405180910390f35b34801561094757600080fd5b50610962600480360381019061095d91906140b6565b612721565b005b34801561097057600080fd5b506109796127f5565b6040516109869190614b51565b60405180910390f35b34801561099b57600080fd5b506109b660048036038101906109b191906140b6565b6127fb565b005b3480156109c457600080fd5b506109cd6128cf565b6040516109da91906148f4565b60405180910390f35b3480156109ef57600080fd5b506109f86128e2565b604051610a059190614b51565b60405180910390f35b348015610a1a57600080fd5b50610a23612a52565b604051610a3091906148f4565b60405180910390f35b348015610a4557600080fd5b50610a4e612a65565b604051610a5b919061479d565b60405180910390f35b348015610a7057600080fd5b50610a79612a8b565b604051610a86919061479d565b60405180910390f35b348015610a9b57600080fd5b50610aa4612ab1565b604051610ab19190614b51565b60405180910390f35b348015610ac657600080fd5b50610acf612ab7565b604051610adc9190614b51565b60405180910390f35b348015610af157600080fd5b50610b0c6004803603810190610b0791906140b6565b612abd565b005b348015610b1a57600080fd5b50610b356004803603810190610b309190614110565b612bb5565b604051610b429190614b51565b60405180910390f35b348015610b5757600080fd5b50610b726004803603810190610b6d9190614246565b61329d565b005b61012c81565b60108181548110610b8a57600080fd5b906000526020600020016000915054906101000a900473ffffffffffffffffffffffffffffffffffffffff1681565b600a5481565b3373ffffffffffffffffffffffffffffffffffffffff16600860009054906101000a900473ffffffffffffffffffffffffffffffffffffffff1673ffffffffffffffffffffffffffffffffffffffff1614610c4f576040517f08c379a0000000000000000000000000000000000000000000000000000000008152600401610c4690614a91565b60405180910390fd5b60006002806101000a81548160ff021916908315150217905550610c71610d52565b565b600e5481565b3373ffffffffffffffffffffffffffffffffffffffff16600860009054906101000a900473ffffffffffffffffffffffffffffffffffffffff1673ffffffffffffffffffffffffffffffffffffffff1614610d09576040517f08c379a0000000000000000000000000000000000000000000000000000000008152600401610d0090614a91565b60405180910390fd5b80600260036101000a81548160ff02191690831515021790555050565b600960009054906101000a900473ffffffffffffffffffffffffffffffffffffffff1681565b61271081565b60026001541415610d98576040517f08c379a0000000000000000000000000000000000000000000000000000000008152600401610d8f90614b31565b60405180910390fd5b600260018190555060028054906101000a900460ff1615610dee576040517f08c379a0000000000000000000000000000000000000000000000000000000008152600401610de590614af1565b60405180910390fd5b610df661337c565b60018081905550565b600f8181548110610e0f57600080fd5b906000526020600020016000915054906101000a900473ffffffffffffffffffffffffffffffffffffffff1681565b3373ffffffffffffffffffffffffffffffffffffffff16600860009054906101000a900473ffffffffffffffffffffffffffffffffffffffff1673ffffffffffffffffffffffffffffffffffffffff1614610ece576040517f08c379a0000000000000000000000000000000000000000000000000000000008152600401610ec590614a91565b60405180910390fd5b6126de8111610f12576040517f08c379a0000000000000000000000000000000000000000000000000000000008152600401610f09906149f1565b60405180910390fd5b612710811115610f57576040517f08c379a0000000000000000000000000000000000000000000000000000000008152600401610f4e90614951565b60405180910390fd5b80600e8190555050565b3373ffffffffffffffffffffffffffffffffffffffff16600860009054906101000a900473ffffffffffffffffffffffffffffffffffffffff1673ffffffffffffffffffffffffffffffffffffffff1614610ff1576040517f08c379a0000000000000000000000000000000000000000000000000000000008152600401610fe890614a91565b60405180910390fd5b610ff9613727565b565b600b5481565b600c5481565b3373ffffffffffffffffffffffffffffffffffffffff16600860009054906101000a900473ffffffffffffffffffffffffffffffffffffffff1673ffffffffffffffffffffffffffffffffffffffff1614611097576040517f08c379a000000000000000000000000000000000000000000000000000000000815260040161108e90614a91565b60405180910390fd5b80600960146101000a81548160ff02191690831515021790555050565b60006110be6137c9565b73ffffffffffffffffffffffffffffffffffffffff166110dc61269b565b73ffffffffffffffffffffffffffffffffffffffff1614611132576040517f08c379a000000000000000000000000000000000000000000000000000000000815260040161112990614a51565b60405180910390fd5b61113a611646565b1561117a576040517f08c379a000000000000000000000000000000000000000000000000000000000815260040161117190614a11565b60405180910390fd5b60028054906101000a900460ff16156111c8576040517f08c379a00000000000000000000000000000000000000000000000000000000081526004016111bf90614af1565b60405180910390fd5b611217333084600560009054906101000a900473ffffffffffffffffffffffffffffffffffffffff1673ffffffffffffffffffffffffffffffffffffffff166137d1909392919063ffffffff16565b60008290506000600b54111561125f57612710600b54600e54600c548661123e9190614dbb565b6112489190614dbb565b6112529190614d8a565b61125c9190614d8a565b90505b80600c5461126d9190614d34565b600c81905550600260019054906101000a900460ff16156112955761129061337c565b6112aa565b82600b546112a39190614d34565b600b819055505b7f4d6ce1e535dbade1c23defba91e23b8f791ce5edc0cc320257a2b364e4e38426836040516112d99190614b51565b60405180910390a18091505092915050565b3373ffffffffffffffffffffffffffffffffffffffff16600860009054906101000a900473ffffffffffffffffffffffffffffffffffffffff1673ffffffffffffffffffffffffffffffffffffffff161461137b576040517f08c379a000000000000000000000000000000000000000000000000000000000815260040161137290614a91565b60405180910390fd5b6000600360009054906101000a900473ffffffffffffffffffffffffffffffffffffffff1673ffffffffffffffffffffffffffffffffffffffff166393f1a40b600454306040518363ffffffff1660e01b81526004016113dc929190614b6c565b60806040518083038186803b1580156113f457600080fd5b505afa158015611408573d6000803e3d6000fd5b505050506040513d601f19601f8201168201806040525081019061142c919061433c565b5050509050600360009054906101000a900473ffffffffffffffffffffffffffffffffffffffff1673ffffffffffffffffffffffffffffffffffffffff1663b5c5f67230600454846040518463ffffffff1660e01b8152600401611492939291906148bd565b600060405180830381600087803b1580156114ac57600080fd5b505af11580156114c0573d6000803e3d6000fd5b50505050600260049054906101000a900473ffffffffffffffffffffffffffffffffffffffff1673ffffffffffffffffffffffffffffffffffffffff16632e1a7d4d826040518263ffffffff1660e01b815260040161151f9190614b51565b600060405180830381600087803b15801561153957600080fd5b505af115801561154d573d6000803e3d6000fd5b5050505060016002806101000a81548160ff02191690831515021790555050565b6000600860009054906101000a900473ffffffffffffffffffffffffffffffffffffffff1673ffffffffffffffffffffffffffffffffffffffff168273ffffffffffffffffffffffffffffffffffffffff1614806116195750600960009054906101000a900473ffffffffffffffffffffffffffffffffffffffff1673ffffffffffffffffffffffffffffffffffffffff163373ffffffffffffffffffffffffffffffffffffffff16145b9050919050565b600860009054906101000a900473ffffffffffffffffffffffffffffffffffffffff1681565b6000600260009054906101000a900460ff16905090565b73bb4cdb9cbd36b01bd1cbaebf2de08d9173bc095c81565b61167d611646565b156116bd576040517f08c379a00000000000000000000000000000000000000000000000000000000081526004016116b490614a11565b60405180910390fd5b600260019054906101000a900460ff1661170c576040517f08c379a000000000000000000000000000000000000000000000000000000000815260040161170390614a31565b60405180910390fd5b600960149054906101000a900460ff16158061172d575061172c3361156e565b5b61176c576040517f08c379a000000000000000000000000000000000000000000000000000000000815260040161176390614a71565b60405180910390fd5b600360009054906101000a900473ffffffffffffffffffffffffffffffffffffffff1673ffffffffffffffffffffffffffffffffffffffff1663ddc632626004546040518263ffffffff1660e01b81526004016117c99190614b51565b600060405180830381600087803b1580156117e357600080fd5b505af11580156117f7573d6000803e3d6000fd5b50505050600260039054906101000a900460ff1615611947576000600660009054906101000a900473ffffffffffffffffffffffffffffffffffffffff1673ffffffffffffffffffffffffffffffffffffffff1663202b1760306040518263ffffffff1660e01b815260040161186d919061479d565b60206040518083038186803b15801561188557600080fd5b505afa158015611899573d6000803e3d6000fd5b505050506040513d601f19601f820116820180604052508101906118bd9190614273565b111561194657600660009054906101000a900473ffffffffffffffffffffffffffffffffffffffff1673ffffffffffffffffffffffffffffffffffffffff1663a69df4b56040518163ffffffff1660e01b8152600401600060405180830381600087803b15801561192d57600080fd5b505af1158015611941573d6000803e3d6000fd5b505050505b5b6000600660009054906101000a900473ffffffffffffffffffffffffffffffffffffffff1673ffffffffffffffffffffffffffffffffffffffff166370a08231306040518263ffffffff1660e01b81526004016119a4919061479d565b60206040518083038186803b1580156119bc57600080fd5b505afa1580156119d0573d6000803e3d6000fd5b505050506040513d601f19601f820116820180604052508101906119f49190614273565b90507f053fa1fc52294a40b4ff1a988765bd298c00caa24d685cc3f767dcfde254ef9a600660009054906101000a900473ffffffffffffffffffffffffffffffffffffffff1682604051611a49929190614818565b60405180910390a16000611a5c8261385a565b90508082611a6a9190614e15565b9150611adb600760009054906101000a900473ffffffffffffffffffffffffffffffffffffffff1683600660009054906101000a900473ffffffffffffffffffffffffffffffffffffffff1673ffffffffffffffffffffffffffffffffffffffff166139819092919063ffffffff16565b600560009054906101000a900473ffffffffffffffffffffffffffffffffffffffff1673ffffffffffffffffffffffffffffffffffffffff16600660009054906101000a900473ffffffffffffffffffffffffffffffffffffffff1673ffffffffffffffffffffffffffffffffffffffff1614611be957600760009054906101000a900473ffffffffffffffffffffffffffffffffffffffff1673ffffffffffffffffffffffffffffffffffffffff16635c11d7958386600f30886040518663ffffffff1660e01b8152600401611bb6959493929190614bc5565b600060405180830381600087803b158015611bd057600080fd5b505af1158015611be4573d6000803e3d6000fd5b505050505b6000600560009054906101000a900473ffffffffffffffffffffffffffffffffffffffff1673ffffffffffffffffffffffffffffffffffffffff166370a08231306040518263ffffffff1660e01b8152600401611c46919061479d565b60206040518083038186803b158015611c5e57600080fd5b505afa158015611c72573d6000803e3d6000fd5b505050506040513d601f19601f82011682018060405250810190611c969190614273565b90506000811115611d02577f44552da03f807ace3e5f27e98e694712dfe668c743514b28d4d9f5ab70574b0f600560009054906101000a900473ffffffffffffffffffffffffffffffffffffffff1682600080604051611cf99493929190614878565b60405180910390a15b43600a81905550611d1161337c565b5050505050565b600080600360009054906101000a900473ffffffffffffffffffffffffffffffffffffffff1673ffffffffffffffffffffffffffffffffffffffff166393f1a40b600454306040518363ffffffff1660e01b8152600401611d7a929190614b6c565b60806040518083038186803b158015611d9257600080fd5b505afa158015611da6573d6000803e3d6000fd5b505050506040513d601f19601f82011682018060405250810190611dca919061433c565b50505090508091505090565b3373ffffffffffffffffffffffffffffffffffffffff16600860009054906101000a900473ffffffffffffffffffffffffffffffffffffffff1673ffffffffffffffffffffffffffffffffffffffff1614611e66576040517f08c379a0000000000000000000000000000000000000000000000000000000008152600401611e5d90614a91565b60405180910390fd5b600660009054906101000a900473ffffffffffffffffffffffffffffffffffffffff1673ffffffffffffffffffffffffffffffffffffffff168373ffffffffffffffffffffffffffffffffffffffff161415611ef7576040517f08c379a0000000000000000000000000000000000000000000000000000000008152600401611eee90614931565b60405180910390fd5b600560009054906101000a900473ffffffffffffffffffffffffffffffffffffffff1673ffffffffffffffffffffffffffffffffffffffff168373ffffffffffffffffffffffffffffffffffffffff161415611f88576040517f08c379a0000000000000000000000000000000000000000000000000000000008152600401611f7f90614931565b60405180910390fd5b611fb381838573ffffffffffffffffffffffffffffffffffffffff16613aa29092919063ffffffff16565b7f22f92dfb4f608ea5db1e9bb08c0b4f5518af93b1259d335fe05900056096ab2c838383604051611fe693929190614841565b60405180910390a1505050565b600080600760009054906101000a900473ffffffffffffffffffffffffffffffffffffffff1673ffffffffffffffffffffffffffffffffffffffff1663d06ca61f85856040518363ffffffff1660e01b8152600401612053929190614b95565b60006040518083038186803b15801561206b57600080fd5b505afa15801561207f573d6000803e3d6000fd5b505050506040513d6000823e3d601f19601f820116820180604052508101906120a891906141a3565b905080600182516120b99190614e15565b815181106120ca576120c9614f9f565b5b602002602001015191505092915050565b600760009054906101000a900473ffffffffffffffffffffffffffffffffffffffff1681565b6121096137c9565b73ffffffffffffffffffffffffffffffffffffffff1661212761269b565b73ffffffffffffffffffffffffffffffffffffffff161461217d576040517f08c379a000000000000000000000000000000000000000000000000000000000815260040161217490614a51565b60405180910390fd5b6121876000613b28565b565b6011818154811061219957600080fd5b906000526020600020016000915054906101000a900473ffffffffffffffffffffffffffffffffffffffff1681565b73e9e7cea3dedca5984780bafc599bd69add087d5681565b600260039054906101000a900460ff1681565b3373ffffffffffffffffffffffffffffffffffffffff16600860009054906101000a900473ffffffffffffffffffffffffffffffffffffffff1673ffffffffffffffffffffffffffffffffffffffff1614612283576040517f08c379a000000000000000000000000000000000000000000000000000000000815260040161227a90614a91565b60405180910390fd5b61228b613bec565b565b600d5481565b60008061229e6128e2565b90506000811461233d5761233881601080548060200260200160405190810160405280929190818152602001828054801561232e57602002820191906000526020600020905b8160009054906101000a900473ffffffffffffffffffffffffffffffffffffffff1673ffffffffffffffffffffffffffffffffffffffff16815260200190600101908083116122e4575b5050505050611ff3565b612340565b60005b91505090565b61234e611646565b1561238e576040517f08c379a000000000000000000000000000000000000000000000000000000000815260040161238590614a11565b60405180910390fd5b600260019054906101000a900460ff166123dd576040517f08c379a00000000000000000000000000000000000000000000000000000000081526004016123d490614a31565b60405180910390fd5b6000600560009054906101000a900473ffffffffffffffffffffffffffffffffffffffff1673ffffffffffffffffffffffffffffffffffffffff166370a08231306040518263ffffffff1660e01b815260040161243a919061479d565b60206040518083038186803b15801561245257600080fd5b505afa158015612466573d6000803e3d6000fd5b505050506040513d601f19601f8201168201806040525081019061248a9190614273565b9050600660009054906101000a900473ffffffffffffffffffffffffffffffffffffffff1673ffffffffffffffffffffffffffffffffffffffff16600560009054906101000a900473ffffffffffffffffffffffffffffffffffffffff1673ffffffffffffffffffffffffffffffffffffffff161415801561250c5750600081115b1561269657612580600760009054906101000a900473ffffffffffffffffffffffffffffffffffffffff1682600560009054906101000a900473ffffffffffffffffffffffffffffffffffffffff1673ffffffffffffffffffffffffffffffffffffffff166139819092919063ffffffff16565b600760009054906101000a900473ffffffffffffffffffffffffffffffffffffffff1673ffffffffffffffffffffffffffffffffffffffff16635c11d7958285601130876040518663ffffffff1660e01b81526004016125e4959493929190614bc5565b600060405180830381600087803b1580156125fe57600080fd5b505af1158015612612573d6000803e3d6000fd5b505050507f65dcf313a2a7fa900bdbeb87203f9ac8009224d4656965a6b8498b8b245e0e1c600560009054906101000a900473ffffffffffffffffffffffffffffffffffffffff16600660009054906101000a900473ffffffffffffffffffffffffffffffffffffffff168360405161268d939291906147e1565b60405180910390a15b505050565b60008060009054906101000a900473ffffffffffffffffffffffffffffffffffffffff16905090565b60028054906101000a900460ff1681565b600360009054906101000a900473ffffffffffffffffffffffffffffffffffffffff1681565b600260049054906101000a900473ffffffffffffffffffffffffffffffffffffffff1681565b3373ffffffffffffffffffffffffffffffffffffffff16600860009054906101000a900473ffffffffffffffffffffffffffffffffffffffff1673ffffffffffffffffffffffffffffffffffffffff16146127b1576040517f08c379a00000000000000000000000000000000000000000000000000000000081526004016127a890614a91565b60405180910390fd5b80600860006101000a81548173ffffffffffffffffffffffffffffffffffffffff021916908373ffffffffffffffffffffffffffffffffffffffff16021790555050565b6126de81565b3373ffffffffffffffffffffffffffffffffffffffff16600860009054906101000a900473ffffffffffffffffffffffffffffffffffffffff1673ffffffffffffffffffffffffffffffffffffffff161461288b576040517f08c379a000000000000000000000000000000000000000000000000000000000815260040161288290614a91565b60405180910390fd5b80600960006101000a81548173ffffffffffffffffffffffffffffffffffffffff021916908373ffffffffffffffffffffffffffffffffffffffff16021790555050565b600960149054906101000a900460ff1681565b600080600660009054906101000a900473ffffffffffffffffffffffffffffffffffffffff1673ffffffffffffffffffffffffffffffffffffffff166370a08231306040518263ffffffff1660e01b8152600401612940919061479d565b60206040518083038186803b15801561295857600080fd5b505afa15801561296c573d6000803e3d6000fd5b505050506040513d601f19601f820116820180604052508101906129909190614273565b905080600360009054906101000a900473ffffffffffffffffffffffffffffffffffffffff1673ffffffffffffffffffffffffffffffffffffffff166394443b73600454306040518363ffffffff1660e01b81526004016129f2929190614b6c565b60206040518083038186803b158015612a0a57600080fd5b505afa158015612a1e573d6000803e3d6000fd5b505050506040513d601f19601f82011682018060405250810190612a429190614273565b612a4c9190614d34565b91505090565b600260019054906101000a900460ff1681565b600660009054906101000a900473ffffffffffffffffffffffffffffffffffffffff1681565b600560009054906101000a900473ffffffffffffffffffffffffffffffffffffffff1681565b61271081565b60045481565b612ac56137c9565b73ffffffffffffffffffffffffffffffffffffffff16612ae361269b565b73ffffffffffffffffffffffffffffffffffffffff1614612b39576040517f08c379a0000000000000000000000000000000000000000000000000000000008152600401612b3090614a51565b60405180910390fd5b600073ffffffffffffffffffffffffffffffffffffffff168173ffffffffffffffffffffffffffffffffffffffff161415612ba9576040517f08c379a0000000000000000000000000000000000000000000000000000000008152600401612ba090614991565b60405180910390fd5b612bb281613b28565b50565b6000612bbf6137c9565b73ffffffffffffffffffffffffffffffffffffffff16612bdd61269b565b73ffffffffffffffffffffffffffffffffffffffff1614612c33576040517f08c379a0000000000000000000000000000000000000000000000000000000008152600401612c2a90614a51565b60405180910390fd5b60026001541415612c79576040517f08c379a0000000000000000000000000000000000000000000000000000000008152600401612c7090614b31565b60405180910390fd5b600260018190555060008211612cc4576040517f08c379a0000000000000000000000000000000000000000000000000000000008152600401612cbb90614ad1565b60405180910390fd5b6000600260049054906101000a900473ffffffffffffffffffffffffffffffffffffffff169050600260019054906101000a900460ff168015612d12575060028054906101000a900460ff16155b156130e45760008173ffffffffffffffffffffffffffffffffffffffff1663626be5676040518163ffffffff1660e01b815260040160206040518083038186803b158015612d5f57600080fd5b505afa158015612d73573d6000803e3d6000fd5b505050506040513d601f19601f82011682018060405250810190612d979190614273565b8273ffffffffffffffffffffffffffffffffffffffff166318160ddd6040518163ffffffff1660e01b815260040160206040518083038186803b158015612ddd57600080fd5b505afa158015612df1573d6000803e3d6000fd5b505050506040513d601f19601f82011682018060405250810190612e159190614273565b85612e209190614dbb565b612e2a9190614d8a565b9050600360009054906101000a900473ffffffffffffffffffffffffffffffffffffffff1673ffffffffffffffffffffffffffffffffffffffff1663b5c5f67230600454846040518463ffffffff1660e01b8152600401612e8d939291906148bd565b600060405180830381600087803b158015612ea757600080fd5b505af1158015612ebb573d6000803e3d6000fd5b505050508173ffffffffffffffffffffffffffffffffffffffff16632e1a7d4d826040518263ffffffff1660e01b8152600401612ef89190614b51565b600060405180830381600087803b158015612f1257600080fd5b505af1158015612f26573d6000803e3d6000fd5b505050507353dbb71303ad0f9afa184b8f7147f9f12bb5dc0173ffffffffffffffffffffffffffffffffffffffff1663ef3bac5e6040518163ffffffff1660e01b815260040160206040518083038186803b158015612f8457600080fd5b505afa158015612f98573d6000803e3d6000fd5b505050506040513d601f19601f82011682018060405250810190612fbc91906140e3565b73ffffffffffffffffffffffffffffffffffffffff168273ffffffffffffffffffffffffffffffffffffffff1663fc0c546a6040518163ffffffff1660e01b815260040160206040518083038186803b15801561301857600080fd5b505afa15801561302c573d6000803e3d6000fd5b505050506040513d601f19601f8201168201806040525081019061305091906140e3565b73ffffffffffffffffffffffffffffffffffffffff1614156130e25773bb4cdb9cbd36b01bd1cbaebf2de08d9173bc095c73ffffffffffffffffffffffffffffffffffffffff1663d0e30db0856040518263ffffffff1660e01b81526004016000604051808303818588803b1580156130c857600080fd5b505af11580156130dc573d6000803e3d6000fd5b50505050505b505b6000600560009054906101000a900473ffffffffffffffffffffffffffffffffffffffff1673ffffffffffffffffffffffffffffffffffffffff166370a08231306040518263ffffffff1660e01b8152600401613141919061479d565b60206040518083038186803b15801561315957600080fd5b505afa15801561316d573d6000803e3d6000fd5b505050506040513d601f19601f820116820180604052508101906131919190614273565b90508084111561319f578093505b83600b5410156131af57600b5493505b6000600b54600c54866131c29190614dbb565b6131cc9190614d8a565b9050600c548111156131de57600c5490505b80600c546131ec9190614e15565b600c8190555084600b546132009190614e15565b600b819055506132533386600560009054906101000a900473ffffffffffffffffffffffffffffffffffffffff1673ffffffffffffffffffffffffffffffffffffffff16613aa29092919063ffffffff16565b7f5b6b431d4476a211bb7d41c20d1aab9ae2321deee0d20be3d9fc9b1093fa6e3d856040516132829190614b51565b60405180910390a18093505050506001808190555092915050565b3373ffffffffffffffffffffffffffffffffffffffff16600860009054906101000a900473ffffffffffffffffffffffffffffffffffffffff1673ffffffffffffffffffffffffffffffffffffffff161461332d576040517f08c379a000000000000000000000000000000000000000000000000000000000815260040161332490614a91565b60405180910390fd5b61012c811115613372576040517f08c379a0000000000000000000000000000000000000000000000000000000008152600401613369906149b1565b60405180910390fd5b80600d8190555050565b6000600560009054906101000a900473ffffffffffffffffffffffffffffffffffffffff1673ffffffffffffffffffffffffffffffffffffffff166370a08231306040518263ffffffff1660e01b81526004016133d9919061479d565b60206040518083038186803b1580156133f157600080fd5b505afa158015613405573d6000803e3d6000fd5b505050506040513d601f19601f820116820180604052508101906134299190614273565b905080600b546134399190614d34565b600b819055506134ae600260049054906101000a900473ffffffffffffffffffffffffffffffffffffffff1682600560009054906101000a900473ffffffffffffffffffffffffffffffffffffffff1673ffffffffffffffffffffffffffffffffffffffff166139819092919063ffffffff16565b600260049054906101000a900473ffffffffffffffffffffffffffffffffffffffff1673ffffffffffffffffffffffffffffffffffffffff1663b6b55f25826040518263ffffffff1660e01b81526004016135099190614b51565b600060405180830381600087803b15801561352357600080fd5b505af1158015613537573d6000803e3d6000fd5b505050506000600260049054906101000a900473ffffffffffffffffffffffffffffffffffffffff1673ffffffffffffffffffffffffffffffffffffffff166370a08231306040518263ffffffff1660e01b8152600401613598919061479d565b60206040518083038186803b1580156135b057600080fd5b505afa1580156135c4573d6000803e3d6000fd5b505050506040513d601f19601f820116820180604052508101906135e89190614273565b9050613659600360009054906101000a900473ffffffffffffffffffffffffffffffffffffffff1682600260049054906101000a900473ffffffffffffffffffffffffffffffffffffffff1673ffffffffffffffffffffffffffffffffffffffff166139819092919063ffffffff16565b600360009054906101000a900473ffffffffffffffffffffffffffffffffffffffff1673ffffffffffffffffffffffffffffffffffffffff16630efe6a8b30600454846040518463ffffffff1660e01b81526004016136ba939291906148bd565b600060405180830381600087803b1580156136d457600080fd5b505af11580156136e8573d6000803e3d6000fd5b505050507fc217459869eed80bfbe5c11e78ab58912eedfd106342671821b6e96d1615dc7f8260405161371b9190614b51565b60405180910390a15050565b61372f611646565b61376e576040517f08c379a000000000000000000000000000000000000000000000000000000000815260040161376590614971565b60405180910390fd5b6000600260006101000a81548160ff0219169083151502179055507f5db9ee0a495bf2e6ff9c91a7834c1ba4fdd244a5e8aa4e537bd38aeae4b073aa6137b26137c9565b6040516137bf919061479d565b60405180910390a1565b600033905090565b613854846323b872dd60e01b8585856040516024016137f2939291906147e1565b604051602081830303815290604052907bffffffffffffffffffffffffffffffffffffffffffffffffffffffff19166020820180517bffffffffffffffffffffffffffffffffffffffffffffffffffffffff8381831617835250505050613c8f565b50505050565b60008082111561397c576000600d54111561397b57612710600d54836138809190614dbb565b61388a9190614d8a565b90506138fb600860009054906101000a900473ffffffffffffffffffffffffffffffffffffffff1682600660009054906101000a900473ffffffffffffffffffffffffffffffffffffffff1673ffffffffffffffffffffffffffffffffffffffff16613aa29092919063ffffffff16565b7f056e5430e11cfdfb90a183ec3bf63ed22abe70cdf4e7bd3018d8b459bbd7f619600660009054906101000a900473ffffffffffffffffffffffffffffffffffffffff1682600860009054906101000a900473ffffffffffffffffffffffffffffffffffffffff1660405161397293929190614841565b60405180910390a15b5b919050565b6000818473ffffffffffffffffffffffffffffffffffffffff1663dd62ed3e30866040518363ffffffff1660e01b81526004016139bf9291906147b8565b60206040518083038186803b1580156139d757600080fd5b505afa1580156139eb573d6000803e3d6000fd5b505050506040513d601f19601f82011682018060405250810190613a0f9190614273565b613a199190614d34565b9050613a9c8463095ea7b360e01b8584604051602401613a3a929190614818565b604051602081830303815290604052907bffffffffffffffffffffffffffffffffffffffffffffffffffffffff19166020820180517bffffffffffffffffffffffffffffffffffffffffffffffffffffffff8381831617835250505050613c8f565b50505050565b613b238363a9059cbb60e01b8484604051602401613ac1929190614818565b604051602081830303815290604052907bffffffffffffffffffffffffffffffffffffffffffffffffffffffff19166020820180517bffffffffffffffffffffffffffffffffffffffffffffffffffffffff8381831617835250505050613c8f565b505050565b60008060009054906101000a900473ffffffffffffffffffffffffffffffffffffffff169050816000806101000a81548173ffffffffffffffffffffffffffffffffffffffff021916908373ffffffffffffffffffffffffffffffffffffffff1602179055508173ffffffffffffffffffffffffffffffffffffffff168173ffffffffffffffffffffffffffffffffffffffff167f8be0079c531659141344cd1fd0a4f28419497f9722a3daafe3b4186f6b6457e060405160405180910390a35050565b613bf4611646565b15613c34576040517f08c379a0000000000000000000000000000000000000000000000000000000008152600401613c2b90614a11565b60405180910390fd5b6001600260006101000a81548160ff0219169083151502179055507f62e78cea01bee320cd4e420270b5ea74000d11b0c9f74754ebdbfc544b05a258613c786137c9565b604051613c85919061479d565b60405180910390a1565b6000613cf1826040518060400160405280602081526020017f5361666545524332303a206c6f772d6c6576656c2063616c6c206661696c65648152508573ffffffffffffffffffffffffffffffffffffffff16613d569092919063ffffffff16565b9050600081511115613d515780806020019051810190613d119190614219565b613d50576040517f08c379a0000000000000000000000000000000000000000000000000000000008152600401613d4790614b11565b60405180910390fd5b5b505050565b6060613d658484600085613d6e565b90509392505050565b606082471015613db3576040517f08c379a0000000000000000000000000000000000000000000000000000000008152600401613daa906149d1565b60405180910390fd5b613dbc85613e82565b613dfb576040517f08c379a0000000000000000000000000000000000000000000000000000000008152600401613df290614ab1565b60405180910390fd5b6000808673ffffffffffffffffffffffffffffffffffffffff168587604051613e249190614786565b60006040518083038185875af1925050503d8060008114613e61576040519150601f19603f3d011682016040523d82523d6000602084013e613e66565b606091505b5091509150613e76828286613e95565b92505050949350505050565b600080823b905060008111915050919050565b60608315613ea557829050613ef5565b600083511115613eb85782518084602001fd5b816040517f08c379a0000000000000000000000000000000000000000000000000000000008152600401613eec919061490f565b60405180910390fd5b9392505050565b6000613f0f613f0a84614c44565b614c1f565b90508083825260208201905082856020860282011115613f3257613f31615015565b5b60005b85811015613f625781613f488882613fdc565b845260208401935060208301925050600181019050613f35565b5050509392505050565b6000613f7f613f7a84614c70565b614c1f565b90508083825260208201905082856020860282011115613fa257613fa1615015565b5b60005b85811015613fd25781613fb888826140a1565b845260208401935060208301925050600181019050613fa5565b5050509392505050565b600081359050613feb8161549d565b92915050565b6000815190506140008161549d565b92915050565b600082601f83011261401b5761401a615010565b5b813561402b848260208601613efc565b91505092915050565b600082601f83011261404957614048615010565b5b8151614059848260208601613f6c565b91505092915050565b600081359050614071816154b4565b92915050565b600081519050614086816154b4565b92915050565b60008135905061409b816154cb565b92915050565b6000815190506140b0816154cb565b92915050565b6000602082840312156140cc576140cb61501f565b5b60006140da84828501613fdc565b91505092915050565b6000602082840312156140f9576140f861501f565b5b600061410784828501613ff1565b91505092915050565b600080604083850312156141275761412661501f565b5b600061413585828601613fdc565b92505060206141468582860161408c565b9150509250929050565b6000806000606084860312156141695761416861501f565b5b600061417786828701613fdc565b93505060206141888682870161408c565b925050604061419986828701613fdc565b9150509250925092565b6000602082840312156141b9576141b861501f565b5b600082015167ffffffffffffffff8111156141d7576141d661501a565b5b6141e384828501614034565b91505092915050565b6000602082840312156142025761420161501f565b5b600061421084828501614062565b91505092915050565b60006020828403121561422f5761422e61501f565b5b600061423d84828501614077565b91505092915050565b60006020828403121561425c5761425b61501f565b5b600061426a8482850161408c565b91505092915050565b6000602082840312156142895761428861501f565b5b6000614297848285016140a1565b91505092915050565b600080604083850312156142b7576142b661501f565b5b60006142c58582860161408c565b925050602083013567ffffffffffffffff8111156142e6576142e561501a565b5b6142f285828601614006565b9150509250929050565b600080604083850312156143135761431261501f565b5b60006143218582860161408c565b92505060206143328582860161408c565b9150509250929050565b600080600080608085870312156143565761435561501f565b5b6000614364878288016140a1565b9450506020614375878288016140a1565b9350506040614386878288016140a1565b9250506060614397878288016140a1565b91505092959194509250565b60006143af83836143bb565b60208301905092915050565b6143c481614e69565b82525050565b6143d381614e69565b82525050565b60006143e482614cc1565b6143ee8185614d07565b93506143f983614c9c565b8060005b8381101561442a57815161441188826143a3565b975061441c83614ced565b9250506001810190506143fd565b5085935050505092915050565b600061444282614ccc565b61444c8185614d07565b935061445783614cac565b8060005b8381101561448f5761446c82614ffd565b61447688826143a3565b975061448183614cfa565b92505060018101905061445b565b5085935050505092915050565b6144a581614e7b565b82525050565b60006144b682614cd7565b6144c08185614d18565b93506144d0818560208601614ec3565b80840191505092915050565b6144e581614eb1565b82525050565b60006144f682614ce2565b6145008185614d23565b9350614510818560208601614ec3565b61451981615024565b840191505092915050565b6000614531600583614d23565b915061453c82615042565b602082019050919050565b6000614554602983614d23565b915061455f8261506b565b604082019050919050565b6000614577601483614d23565b9150614582826150ba565b602082019050919050565b600061459a602683614d23565b91506145a5826150e3565b604082019050919050565b60006145bd602183614d23565b91506145c882615132565b604082019050919050565b60006145e0602683614d23565b91506145eb82615181565b604082019050919050565b6000614603602883614d23565b915061460e826151d0565b604082019050919050565b6000614626601083614d23565b91506146318261521f565b602082019050919050565b6000614649602483614d23565b915061465482615248565b604082019050919050565b600061466c602083614d23565b915061467782615297565b602082019050919050565b600061468f602483614d23565b915061469a826152c0565b604082019050919050565b60006146b2603383614d23565b91506146bd8261530f565b604082019050919050565b60006146d5601d83614d23565b91506146e08261535e565b602082019050919050565b60006146f8602283614d23565b915061470382615387565b604082019050919050565b600061471b603083614d23565b9150614726826153d6565b604082019050919050565b600061473e602a83614d23565b915061474982615425565b604082019050919050565b6000614761601f83614d23565b915061476c82615474565b602082019050919050565b61478081614ea7565b82525050565b600061479282846144ab565b915081905092915050565b60006020820190506147b260008301846143ca565b92915050565b60006040820190506147cd60008301856143ca565b6147da60208301846143ca565b9392505050565b60006060820190506147f660008301866143ca565b61480360208301856143ca565b6148106040830184614777565b949350505050565b600060408201905061482d60008301856143ca565b61483a6020830184614777565b9392505050565b600060608201905061485660008301866143ca565b6148636020830185614777565b61487060408301846143ca565b949350505050565b600060808201905061488d60008301876143ca565b61489a6020830186614777565b6148a760408301856143ca565b6148b460608301846144dc565b95945050505050565b60006060820190506148d260008301866143ca565b6148df6020830185614777565b6148ec6040830184614777565b949350505050565b6000602082019050614909600083018461449c565b92915050565b6000602082019050818103600083015261492981846144eb565b905092915050565b6000602082019050818103600083015261494a81614524565b9050919050565b6000602082019050818103600083015261496a81614547565b9050919050565b6000602082019050818103600083015261498a8161456a565b9050919050565b600060208201905081810360008301526149aa8161458d565b9050919050565b600060208201905081810360008301526149ca816145b0565b9050919050565b600060208201905081810360008301526149ea816145d3565b9050919050565b60006020820190508181036000830152614a0a816145f6565b9050919050565b60006020820190508181036000830152614a2a81614619565b9050919050565b60006020820190508181036000830152614a4a8161463c565b9050919050565b60006020820190508181036000830152614a6a8161465f565b9050919050565b60006020820190508181036000830152614a8a81614682565b9050919050565b60006020820190508181036000830152614aaa816146a5565b9050919050565b60006020820190508181036000830152614aca816146c8565b9050919050565b60006020820190508181036000830152614aea816146eb565b9050919050565b60006020820190508181036000830152614b0a8161470e565b9050919050565b60006020820190508181036000830152614b2a81614731565b9050919050565b60006020820190508181036000830152614b4a81614754565b9050919050565b6000602082019050614b666000830184614777565b92915050565b6000604082019050614b816000830185614777565b614b8e60208301846143ca565b9392505050565b6000604082019050614baa6000830185614777565b8181036020830152614bbc81846143d9565b90509392505050565b600060a082019050614bda6000830188614777565b614be76020830187614777565b8181036040830152614bf98186614437565b9050614c0860608301856143ca565b614c156080830184614777565b9695505050505050565b6000614c29614c3a565b9050614c358282614f10565b919050565b6000604051905090565b600067ffffffffffffffff821115614c5f57614c5e614fce565b5b602082029050602081019050919050565b600067ffffffffffffffff821115614c8b57614c8a614fce565b5b602082029050602081019050919050565b6000819050602082019050919050565b60008190508160005260206000209050919050565b600081519050919050565b600081549050919050565b600081519050919050565b600081519050919050565b6000602082019050919050565b6000600182019050919050565b600082825260208201905092915050565b600081905092915050565b600082825260208201905092915050565b6000614d3f82614ea7565b9150614d4a83614ea7565b9250827fffffffffffffffffffffffffffffffffffffffffffffffffffffffffffffffff03821115614d7f57614d7e614f41565b5b828201905092915050565b6000614d9582614ea7565b9150614da083614ea7565b925082614db057614daf614f70565b5b828204905092915050565b6000614dc682614ea7565b9150614dd183614ea7565b9250817fffffffffffffffffffffffffffffffffffffffffffffffffffffffffffffffff0483118215151615614e0a57614e09614f41565b5b828202905092915050565b6000614e2082614ea7565b9150614e2b83614ea7565b925082821015614e3e57614e3d614f41565b5b828203905092915050565b600073ffffffffffffffffffffffffffffffffffffffff82169050919050565b6000614e7482614e87565b9050919050565b60008115159050919050565b600073ffffffffffffffffffffffffffffffffffffffff82169050919050565b6000819050919050565b6000614ebc82614ea7565b9050919050565b60005b83811015614ee1578082015181840152602081019050614ec6565b83811115614ef0576000848401525b50505050565b6000614f09614f0483615035565b614e49565b9050919050565b614f1982615024565b810181811067ffffffffffffffff82111715614f3857614f37614fce565b5b80604052505050565b7f4e487b7100000000000000000000000000000000000000000000000000000000600052601160045260246000fd5b7f4e487b7100000000000000000000000000000000000000000000000000000000600052601260045260246000fd5b7f4e487b7100000000000000000000000000000000000000000000000000000000600052603260045260246000fd5b7f4e487b7100000000000000000000000000000000000000000000000000000000600052604160045260246000fd5b60006150098254614ef6565b9050919050565b600080fd5b600080fd5b600080fd5b600080fd5b6000601f19601f8301169050919050565b60008160001c9050919050565b7f2173616665000000000000000000000000000000000000000000000000000000600082015250565b7f47796d5661756c74735374726174656779416c706163613a202173616665202d60008201527f20746f6f20686967680000000000000000000000000000000000000000000000602082015250565b7f5061757361626c653a206e6f7420706175736564000000000000000000000000600082015250565b7f4f776e61626c653a206e6577206f776e657220697320746865207a65726f206160008201527f6464726573730000000000000000000000000000000000000000000000000000602082015250565b7f47796d5661756c74735374726174656779416c706163613a20746f6f2068696760008201527f6800000000000000000000000000000000000000000000000000000000000000602082015250565b7f416464726573733a20696e73756666696369656e742062616c616e636520666f60008201527f722063616c6c0000000000000000000000000000000000000000000000000000602082015250565b7f47796d5661756c74735374726174656779416c706163613a202173616665202d60008201527f20746f6f206c6f77000000000000000000000000000000000000000000000000602082015250565b7f5061757361626c653a2070617573656400000000000000000000000000000000600082015250565b7f47796d5661756c74735374726174656779416c706163613a202169734175746f60008201527f436f6d7000000000000000000000000000000000000000000000000000000000602082015250565b7f4f776e61626c653a2063616c6c6572206973206e6f7420746865206f776e6572600082015250565b7f47796d5661756c74735374726174656779416c706163613a2021617574686f7260008201527f6973656400000000000000000000000000000000000000000000000000000000602082015250565b7f47796d5661756c74735374726174656779416c706163613a2063616c6c65722060008201527f6973206e6f7420746865206f70657261746f7200000000000000000000000000602082015250565b7f416464726573733a2063616c6c20746f206e6f6e2d636f6e7472616374000000600082015250565b7f47796d5661756c74735374726174656779416c706163613a20215f77616e744160008201527f6d74000000000000000000000000000000000000000000000000000000000000602082015250565b7f47796d5661756c74735374726174656779416c706163613a207374726174656760008201527f79206973206e6f742072756e6e696e6700000000000000000000000000000000602082015250565b7f5361666545524332303a204552433230206f7065726174696f6e20646964206e60008201527f6f74207375636365656400000000000000000000000000000000000000000000602082015250565b7f5265656e7472616e637947756172643a207265656e7472616e742063616c6c00600082015250565b6154a681614e69565b81146154b157600080fd5b50565b6154bd81614e7b565b81146154c857600080fd5b50565b6154d481614ea7565b81146154df57600080fd5b5056fea26469706673582212200411295f1197b4cb1c62b540fe813fe0e47c6ed3b83399b634b90d4ea1d8aef264736f6c63430008070033",
  "devdoc": {
    "kind": "dev",
    "methods": {
      "deposit(address,uint256)": {
        "params": {
          "_wantAmt": "Amount of want tokens that will be added to pool"
        }
      },
      "isAuthorised(address)": {
        "params": {
          "_account": "Users address"
        }
      },
      "owner()": {
        "details": "Returns the address of the current owner."
      },
      "paused()": {
        "details": "Returns true if the contract is paused, and false otherwise."
      },
      "renounceOwnership()": {
        "details": "Leaves the contract without owner. It will not be possible to call `onlyOwner` functions anymore. Can only be called by the current owner. NOTE: Renouncing ownership will leave the contract without an owner, thereby removing any functionality that is only available to the owner."
      },
      "setControllerFee(uint256)": {
        "params": {
          "_controllerFee": "100 = 1%"
        }
      },
      "setEntranceFeeFactor(uint256)": {
        "params": {
          "_entranceFeeFactor": "100 = 1%"
        }
      },
      "transferOwnership(address)": {
        "details": "Transfers ownership of the contract to a new account (`newOwner`). Can only be called by the current owner."
      },
      "withdraw(address,uint256)": {
        "params": {
          "_wantAmt": "Amount of want tokens that will be withdrawn"
        }
      }
    },
    "version": 1
  },
  "userdoc": {
    "kind": "user",
    "methods": {
      "busdAddress()": {
        "notice": "BUSD address"
      },
      "controllerFeeMax()": {
        "notice": "100 = 1%"
      },
      "convertDustToEarned(uint256,uint256)": {
        "notice": "Converts dust tokens into earned tokens, which will be reinvested on the next earn()."
      },
      "deposit(address,uint256)": {
        "notice": "Adds deposit"
      },
      "earn(uint256,uint256)": {
        "notice": "1. Harvest farm tokens  2. Converts farm tokens into want tokens  3. Deposits want tokens"
      },
      "earnedAddress()": {
        "notice": "address of earn token contract"
      },
      "entranceFeeFactor()": {
        "notice": "0% entrance fee (goes to pool + prevents front-running)"
      },
      "entranceFeeFactorLL()": {
        "notice": "0.5% is the max entrance fee settable. LL = lowerlimit"
      },
      "entranceFeeFactorMax()": {
        "notice": "100 = 1%"
      },
      "farmContractAddress()": {
        "notice": "address of farm"
      },
      "isAuthorised(address)": {
        "notice": "Function checks if user Autorised or not"
      },
      "isAutoComp()": {
        "notice": "This vault is purely for staking"
      },
      "notPublic()": {
        "notice": "allow public to call earn() function"
      },
      "pid()": {
        "notice": "pid of pool in farmContractAddress"
      },
      "setControllerFee(uint256)": {
        "notice": "Function to set controller fee"
      },
      "setEntranceFeeFactor(uint256)": {
        "notice": "Function to set entrance fee"
      },
      "uniRouterAddress()": {
        "notice": "PancakeSwap: Router address"
      },
      "vaultContractAddress()": {
        "notice": "address of vault."
      },
      "wantAddress()": {
        "notice": "address of want token contract"
      },
      "wbnbAddress()": {
        "notice": "WBNB address"
      },
      "withdraw(address,uint256)": {
        "notice": "Function to withdraw assets"
      }
    },
    "version": 1
  },
  "storageLayout": {
    "storage": [
      {
        "astId": 7,
        "contract": "cache/solpp-generated-contracts/GymVaultsStrategyAlpaca.sol:GymVaultsStrategyAlpaca",
        "label": "_owner",
        "offset": 0,
        "slot": "0",
        "type": "t_address"
      },
      {
        "astId": 206,
        "contract": "cache/solpp-generated-contracts/GymVaultsStrategyAlpaca.sol:GymVaultsStrategyAlpaca",
        "label": "_status",
        "offset": 0,
        "slot": "1",
        "type": "t_uint256"
      },
      {
        "astId": 121,
        "contract": "cache/solpp-generated-contracts/GymVaultsStrategyAlpaca.sol:GymVaultsStrategyAlpaca",
        "label": "_paused",
        "offset": 0,
        "slot": "2",
        "type": "t_bool"
      },
      {
        "astId": 4881,
        "contract": "cache/solpp-generated-contracts/GymVaultsStrategyAlpaca.sol:GymVaultsStrategyAlpaca",
        "label": "isAutoComp",
        "offset": 1,
        "slot": "2",
        "type": "t_bool"
      },
      {
        "astId": 4883,
        "contract": "cache/solpp-generated-contracts/GymVaultsStrategyAlpaca.sol:GymVaultsStrategyAlpaca",
        "label": "strategyStopped",
        "offset": 2,
        "slot": "2",
        "type": "t_bool"
      },
      {
        "astId": 4885,
        "contract": "cache/solpp-generated-contracts/GymVaultsStrategyAlpaca.sol:GymVaultsStrategyAlpaca",
        "label": "checkForUnlockReward",
        "offset": 3,
        "slot": "2",
        "type": "t_bool"
      },
      {
        "astId": 4888,
        "contract": "cache/solpp-generated-contracts/GymVaultsStrategyAlpaca.sol:GymVaultsStrategyAlpaca",
        "label": "vaultContractAddress",
        "offset": 4,
        "slot": "2",
        "type": "t_address"
      },
      {
        "astId": 4891,
        "contract": "cache/solpp-generated-contracts/GymVaultsStrategyAlpaca.sol:GymVaultsStrategyAlpaca",
        "label": "farmContractAddress",
        "offset": 0,
        "slot": "3",
        "type": "t_address"
      },
      {
        "astId": 4894,
        "contract": "cache/solpp-generated-contracts/GymVaultsStrategyAlpaca.sol:GymVaultsStrategyAlpaca",
        "label": "pid",
        "offset": 0,
        "slot": "4",
        "type": "t_uint256"
      },
      {
        "astId": 4897,
        "contract": "cache/solpp-generated-contracts/GymVaultsStrategyAlpaca.sol:GymVaultsStrategyAlpaca",
        "label": "wantAddress",
        "offset": 0,
        "slot": "5",
        "type": "t_address"
      },
      {
        "astId": 4900,
        "contract": "cache/solpp-generated-contracts/GymVaultsStrategyAlpaca.sol:GymVaultsStrategyAlpaca",
        "label": "earnedAddress",
        "offset": 0,
        "slot": "6",
        "type": "t_address"
      },
      {
        "astId": 4903,
        "contract": "cache/solpp-generated-contracts/GymVaultsStrategyAlpaca.sol:GymVaultsStrategyAlpaca",
        "label": "uniRouterAddress",
        "offset": 0,
        "slot": "7",
        "type": "t_address"
      },
      {
        "astId": 4919,
        "contract": "cache/solpp-generated-contracts/GymVaultsStrategyAlpaca.sol:GymVaultsStrategyAlpaca",
        "label": "operator",
        "offset": 0,
        "slot": "8",
        "type": "t_address"
      },
      {
        "astId": 4921,
        "contract": "cache/solpp-generated-contracts/GymVaultsStrategyAlpaca.sol:GymVaultsStrategyAlpaca",
        "label": "strategist",
        "offset": 0,
        "slot": "9",
        "type": "t_address"
      },
      {
        "astId": 4924,
        "contract": "cache/solpp-generated-contracts/GymVaultsStrategyAlpaca.sol:GymVaultsStrategyAlpaca",
        "label": "notPublic",
        "offset": 20,
        "slot": "9",
        "type": "t_bool"
      },
      {
        "astId": 4926,
        "contract": "cache/solpp-generated-contracts/GymVaultsStrategyAlpaca.sol:GymVaultsStrategyAlpaca",
        "label": "lastEarnBlock",
        "offset": 0,
        "slot": "10",
        "type": "t_uint256"
      },
      {
        "astId": 4928,
        "contract": "cache/solpp-generated-contracts/GymVaultsStrategyAlpaca.sol:GymVaultsStrategyAlpaca",
        "label": "wantLockedTotal",
        "offset": 0,
        "slot": "11",
        "type": "t_uint256"
      },
      {
        "astId": 4930,
        "contract": "cache/solpp-generated-contracts/GymVaultsStrategyAlpaca.sol:GymVaultsStrategyAlpaca",
        "label": "sharesTotal",
        "offset": 0,
        "slot": "12",
        "type": "t_uint256"
      },
      {
        "astId": 4932,
        "contract": "cache/solpp-generated-contracts/GymVaultsStrategyAlpaca.sol:GymVaultsStrategyAlpaca",
        "label": "controllerFee",
        "offset": 0,
        "slot": "13",
        "type": "t_uint256"
      },
      {
        "astId": 4942,
        "contract": "cache/solpp-generated-contracts/GymVaultsStrategyAlpaca.sol:GymVaultsStrategyAlpaca",
        "label": "entranceFeeFactor",
        "offset": 0,
        "slot": "14",
        "type": "t_uint256"
      },
      {
        "astId": 4953,
        "contract": "cache/solpp-generated-contracts/GymVaultsStrategyAlpaca.sol:GymVaultsStrategyAlpaca",
        "label": "earnedToWantPath",
        "offset": 0,
        "slot": "15",
        "type": "t_array(t_address)dyn_storage"
      },
      {
        "astId": 4956,
        "contract": "cache/solpp-generated-contracts/GymVaultsStrategyAlpaca.sol:GymVaultsStrategyAlpaca",
        "label": "earnedToBusdPath",
        "offset": 0,
        "slot": "16",
        "type": "t_array(t_address)dyn_storage"
      },
      {
        "astId": 4959,
        "contract": "cache/solpp-generated-contracts/GymVaultsStrategyAlpaca.sol:GymVaultsStrategyAlpaca",
        "label": "wantToEarnedPath",
        "offset": 0,
        "slot": "17",
        "type": "t_array(t_address)dyn_storage"
      }
    ],
    "types": {
      "t_address": {
        "encoding": "inplace",
        "label": "address",
        "numberOfBytes": "20"
      },
      "t_array(t_address)dyn_storage": {
        "base": "t_address",
        "encoding": "dynamic_array",
        "label": "address[]",
        "numberOfBytes": "32"
      },
      "t_bool": {
        "encoding": "inplace",
        "label": "bool",
        "numberOfBytes": "1"
      },
      "t_uint256": {
        "encoding": "inplace",
        "label": "uint256",
        "numberOfBytes": "32"
      }
    }
  }
}