{
  "address": "0x9A9f2CCfdE556A7E9Ff0848998Aa4a0CFD8863AE",
  "abi": [
    {
      "inputs": [
        {
          "internalType": "address",
          "name": "_lpToken",
          "type": "address"
        }
      ],
      "stateMutability": "nonpayable",
      "type": "constructor"
    },
    {
      "stateMutability": "payable",
      "type": "fallback"
    },
    {
      "inputs": [
        {
          "internalType": "address",
          "name": "tokenA",
          "type": "address"
        },
        {
          "internalType": "address",
          "name": "tokenB",
          "type": "address"
        },
        {
          "internalType": "uint256",
          "name": "amountADesired",
          "type": "uint256"
        },
        {
          "internalType": "uint256",
          "name": "amountBDesired",
          "type": "uint256"
        },
        {
          "internalType": "uint256",
          "name": "",
          "type": "uint256"
        },
        {
          "internalType": "uint256",
          "name": "",
          "type": "uint256"
        },
        {
          "internalType": "address",
          "name": "to",
          "type": "address"
        },
        {
          "internalType": "uint256",
          "name": "",
          "type": "uint256"
        }
      ],
      "name": "addLiquidity",
      "outputs": [
        {
          "internalType": "uint256",
          "name": "amountA",
          "type": "uint256"
        },
        {
          "internalType": "uint256",
          "name": "amountB",
          "type": "uint256"
        },
        {
          "internalType": "uint256",
          "name": "liquidity",
          "type": "uint256"
        }
      ],
      "stateMutability": "nonpayable",
      "type": "function"
    },
    {
      "inputs": [
        {
          "internalType": "address",
          "name": "token",
          "type": "address"
        },
        {
          "internalType": "uint256",
          "name": "",
          "type": "uint256"
        },
        {
          "internalType": "uint256",
          "name": "",
          "type": "uint256"
        },
        {
          "internalType": "uint256",
          "name": "",
          "type": "uint256"
        },
        {
          "internalType": "address",
          "name": "to",
          "type": "address"
        },
        {
          "internalType": "uint256",
          "name": "",
          "type": "uint256"
        }
      ],
      "name": "addLiquidityETH",
      "outputs": [
        {
          "internalType": "uint256",
          "name": "amountToken",
          "type": "uint256"
        },
        {
          "internalType": "uint256",
          "name": "amountETH",
          "type": "uint256"
        },
        {
          "internalType": "uint256",
          "name": "liquidity",
          "type": "uint256"
        }
      ],
      "stateMutability": "payable",
      "type": "function"
    },
    {
      "inputs": [
        {
          "internalType": "uint256",
          "name": "amountIn",
          "type": "uint256"
        },
        {
          "internalType": "address[]",
          "name": "path",
          "type": "address[]"
        }
      ],
      "name": "getAmountsOut",
      "outputs": [
        {
          "internalType": "uint256[]",
          "name": "amounts",
          "type": "uint256[]"
        }
      ],
      "stateMutability": "view",
      "type": "function"
    },
    {
      "inputs": [
        {
          "internalType": "uint256",
          "name": "amountIn",
          "type": "uint256"
        },
        {
          "internalType": "uint256",
          "name": "",
          "type": "uint256"
        },
        {
          "internalType": "address[]",
          "name": "path",
          "type": "address[]"
        },
        {
          "internalType": "address",
          "name": "to",
          "type": "address"
        },
        {
          "internalType": "uint256",
          "name": "",
          "type": "uint256"
        }
      ],
      "name": "swapExactTokensForETHSupportingFeeOnTransferTokens",
      "outputs": [],
      "stateMutability": "nonpayable",
      "type": "function"
    },
    {
      "inputs": [
        {
          "internalType": "uint256",
          "name": "amountIn",
          "type": "uint256"
        },
        {
          "internalType": "uint256",
          "name": "",
          "type": "uint256"
        },
        {
          "internalType": "address[]",
          "name": "path",
          "type": "address[]"
        },
        {
          "internalType": "address",
          "name": "to",
          "type": "address"
        },
        {
          "internalType": "uint256",
          "name": "",
          "type": "uint256"
        }
      ],
      "name": "swapExactTokensForTokensSupportingFeeOnTransferTokens",
      "outputs": [],
      "stateMutability": "nonpayable",
      "type": "function"
    },
    {
      "stateMutability": "payable",
      "type": "receive"
    }
  ],
  "transactionHash": "0x98221ad039b0c37b41d4f804dc2e4d5b78549accbf2696f1487a74d36ac96a74",
  "args": [
    "0x0165878A594ca255338adfa4d48449f69242Eb8F"
  ],
  "solcInputHash": "d066cb7732b46a855abe1bca7c0304a6",
  "bytecode": "0x608060405234801561001057600080fd5b50604051610e17380380610e178339818101604052810190610032919061008d565b806000806101000a81548173ffffffffffffffffffffffffffffffffffffffff021916908373ffffffffffffffffffffffffffffffffffffffff16021790555050610108565b600081519050610087816100f1565b92915050565b6000602082840312156100a3576100a26100ec565b5b60006100b184828501610078565b91505092915050565b60006100c5826100cc565b9050919050565b600073ffffffffffffffffffffffffffffffffffffffff82169050919050565b600080fd5b6100fa816100ba565b811461010557600080fd5b50565b610d00806101176000396000f3fe60806040526004361061004e5760003560e01c80635c11d79514610057578063791ac94714610080578063d06ca61f146100a9578063e8e33700146100e6578063f305d7191461012557610055565b3661005557005b005b34801561006357600080fd5b5061007e60048036038101906100799190610919565b610157565b005b34801561008c57600080fd5b506100a760048036038101906100a29190610919565b6102db565b005b3480156100b557600080fd5b506100d060048036038101906100cb91906108b9565b6103e2565b6040516100dd9190610aee565b60405180910390f35b3480156100f257600080fd5b5061010d60048036038101906101089190610749565b6103eb565b60405161011c93929190610b10565b60405180910390f35b61013f600480360381019061013a91906107ff565b6105d9565b60405161014e93929190610b10565b60405180910390f35b8383600081811061016b5761016a610c3d565b5b9050602002016020810190610180919061071c565b73ffffffffffffffffffffffffffffffffffffffff166323b872dd3330896040518463ffffffff1660e01b81526004016101bc93929190610a65565b602060405180830381600087803b1580156101d657600080fd5b505af11580156101ea573d6000803e3d6000fd5b505050506040513d601f19601f8201168201806040525081019061020e919061088c565b5083836001868690506102219190610b80565b81811061023157610230610c3d565b5b9050602002016020810190610246919061071c565b73ffffffffffffffffffffffffffffffffffffffff1663a9059cbb83886040518363ffffffff1660e01b8152600401610280929190610ac5565b602060405180830381600087803b15801561029a57600080fd5b505af11580156102ae573d6000803e3d6000fd5b505050506040513d601f19601f820116820180604052508101906102d2919061088c565b50505050505050565b838360008181106102ef576102ee610c3d565b5b9050602002016020810190610304919061071c565b73ffffffffffffffffffffffffffffffffffffffff166323b872dd3330896040518463ffffffff1660e01b815260040161034093929190610a65565b602060405180830381600087803b15801561035a57600080fd5b505af115801561036e573d6000803e3d6000fd5b505050506040513d601f19601f82011682018060405250810190610392919061088c565b508173ffffffffffffffffffffffffffffffffffffffff166108fc879081150290604051600060405180830381858888f193505050501580156103d9573d6000803e3d6000fd5b50505050505050565b60609392505050565b60008060008a73ffffffffffffffffffffffffffffffffffffffff166323b872dd33308c6040518463ffffffff1660e01b815260040161042d93929190610a65565b602060405180830381600087803b15801561044757600080fd5b505af115801561045b573d6000803e3d6000fd5b505050506040513d601f19601f8201168201806040525081019061047f919061088c565b508973ffffffffffffffffffffffffffffffffffffffff166323b872dd33308b6040518463ffffffff1660e01b81526004016104bd93929190610a65565b602060405180830381600087803b1580156104d757600080fd5b505af11580156104eb573d6000803e3d6000fd5b505050506040513d601f19601f8201168201806040525081019061050f919061088c565b5060008054906101000a900473ffffffffffffffffffffffffffffffffffffffff1673ffffffffffffffffffffffffffffffffffffffff1663a9059cbb866127106040518363ffffffff1660e01b815260040161056d929190610a9c565b602060405180830381600087803b15801561058757600080fd5b505af115801561059b573d6000803e3d6000fd5b505050506040513d601f19601f820116820180604052508101906105bf919061088c565b508892508791506127109050985098509895505050505050565b60008060008873ffffffffffffffffffffffffffffffffffffffff1663a9059cbb866127106040518363ffffffff1660e01b815260040161061b929190610a9c565b602060405180830381600087803b15801561063557600080fd5b505af1158015610649573d6000803e3d6000fd5b505050506040513d601f19601f8201168201806040525081019061066d919061088c565b506000925060009150612710905096509650969350505050565b60008135905061069681610c85565b92915050565b60008083601f8401126106b2576106b1610c71565b5b8235905067ffffffffffffffff8111156106cf576106ce610c6c565b5b6020830191508360208202830111156106eb576106ea610c76565b5b9250929050565b60008151905061070181610c9c565b92915050565b60008135905061071681610cb3565b92915050565b60006020828403121561073257610731610c80565b5b600061074084828501610687565b91505092915050565b600080600080600080600080610100898b03121561076a57610769610c80565b5b60006107788b828c01610687565b98505060206107898b828c01610687565b975050604061079a8b828c01610707565b96505060606107ab8b828c01610707565b95505060806107bc8b828c01610707565b94505060a06107cd8b828c01610707565b93505060c06107de8b828c01610687565b92505060e06107ef8b828c01610707565b9150509295985092959890939650565b60008060008060008060c0878903121561081c5761081b610c80565b5b600061082a89828a01610687565b965050602061083b89828a01610707565b955050604061084c89828a01610707565b945050606061085d89828a01610707565b935050608061086e89828a01610687565b92505060a061087f89828a01610707565b9150509295509295509295565b6000602082840312156108a2576108a1610c80565b5b60006108b0848285016106f2565b91505092915050565b6000806000604084860312156108d2576108d1610c80565b5b60006108e086828701610707565b935050602084013567ffffffffffffffff81111561090157610900610c7b565b5b61090d8682870161069c565b92509250509250925092565b60008060008060008060a0878903121561093657610935610c80565b5b600061094489828a01610707565b965050602061095589828a01610707565b955050604087013567ffffffffffffffff81111561097657610975610c7b565b5b61098289828a0161069c565b9450945050606061099589828a01610687565b92505060806109a689828a01610707565b9150509295509295509295565b60006109bf8383610a47565b60208301905092915050565b6109d481610bb4565b82525050565b60006109e582610b57565b6109ef8185610b6f565b93506109fa83610b47565b8060005b83811015610a2b578151610a1288826109b3565b9750610a1d83610b62565b9250506001810190506109fe565b5085935050505092915050565b610a4181610bfc565b82525050565b610a5081610bf2565b82525050565b610a5f81610bf2565b82525050565b6000606082019050610a7a60008301866109cb565b610a8760208301856109cb565b610a946040830184610a56565b949350505050565b6000604082019050610ab160008301856109cb565b610abe6020830184610a38565b9392505050565b6000604082019050610ada60008301856109cb565b610ae76020830184610a56565b9392505050565b60006020820190508181036000830152610b0881846109da565b905092915050565b6000606082019050610b256000830186610a56565b610b326020830185610a56565b610b3f6040830184610a56565b949350505050565b6000819050602082019050919050565b600081519050919050565b6000602082019050919050565b600082825260208201905092915050565b6000610b8b82610bf2565b9150610b9683610bf2565b925082821015610ba957610ba8610c0e565b5b828203905092915050565b6000610bbf82610bd2565b9050919050565b60008115159050919050565b600073ffffffffffffffffffffffffffffffffffffffff82169050919050565b6000819050919050565b6000610c0782610bf2565b9050919050565b7f4e487b7100000000000000000000000000000000000000000000000000000000600052601160045260246000fd5b7f4e487b7100000000000000000000000000000000000000000000000000000000600052603260045260246000fd5b600080fd5b600080fd5b600080fd5b600080fd5b600080fd5b610c8e81610bb4565b8114610c9957600080fd5b50565b610ca581610bc6565b8114610cb057600080fd5b50565b610cbc81610bf2565b8114610cc757600080fd5b5056fea2646970667358221220181e446f7063b719752e26ce8244e5e4976f010e18dc13ab4173a7ae54a396e264736f6c63430008070033",
  "devdoc": {
    "kind": "dev",
    "methods": {},
    "version": 1
  },
  "userdoc": {
    "kind": "user",
    "methods": {},
    "version": 1
  },
  "storageLayout": {
    "storage": [
      {
        "astId": 9477,
        "contract": "cache/solpp-generated-contracts/mocks/RouterMock.sol:RouterMock",
        "label": "lpToken",
        "offset": 0,
        "slot": "0",
        "type": "t_address"
      }
    ],
    "types": {
      "t_address": {
        "encoding": "inplace",
        "label": "address",
        "numberOfBytes": "20"
      }
    }
  }
}