{
  "address": "0x3Aa5ebB10DC797CAC828524e59A333d0A371443c",
  "abi": [
    {
      "inputs": [
        {
          "internalType": "address",
          "name": "_want",
          "type": "address"
        }
      ],
      "stateMutability": "nonpayable",
      "type": "constructor"
    },
    {
      "stateMutability": "payable",
      "type": "fallback"
    },
    {
      "inputs": [
        {
          "internalType": "address",
          "name": "",
          "type": "address"
        },
        {
          "internalType": "uint256",
          "name": "_wantAmt",
          "type": "uint256"
        }
      ],
      "name": "deposit",
      "outputs": [
        {
          "internalType": "uint256",
          "name": "_sharedAdded",
          "type": "uint256"
        }
      ],
      "stateMutability": "nonpayable",
      "type": "function"
    },
    {
      "inputs": [
        {
          "internalType": "uint256",
          "name": "",
          "type": "uint256"
        },
        {
          "internalType": "uint256",
          "name": "",
          "type": "uint256"
        }
      ],
      "name": "earn",
      "outputs": [],
      "stateMutability": "nonpayable",
      "type": "function"
    },
    {
      "inputs": [],
      "name": "earnedAddress",
      "outputs": [
        {
          "internalType": "address",
          "name": "",
          "type": "address"
        }
      ],
      "stateMutability": "pure",
      "type": "function"
    },
    {
      "inputs": [],
      "name": "getPricePerFullShare",
      "outputs": [
        {
          "internalType": "uint256",
          "name": "",
          "type": "uint256"
        }
      ],
      "stateMutability": "view",
      "type": "function"
    },
    {
      "inputs": [
        {
          "internalType": "address",
          "name": "",
          "type": "address"
        },
        {
          "internalType": "uint256",
          "name": "",
          "type": "uint256"
        },
        {
          "internalType": "address",
          "name": "",
          "type": "address"
        }
      ],
      "name": "inCaseTokensGetStuck",
      "outputs": [],
      "stateMutability": "pure",
      "type": "function"
    },
    {
      "inputs": [
        {
          "internalType": "address",
          "name": "_oldStrategy",
          "type": "address"
        },
        {
          "internalType": "uint256",
          "name": "_oldWantLockedTotal",
          "type": "uint256"
        },
        {
          "internalType": "uint256",
          "name": "_oldSharesTotal",
          "type": "uint256"
        }
      ],
      "name": "migrateFrom",
      "outputs": [],
      "stateMutability": "nonpayable",
      "type": "function"
    },
    {
      "inputs": [],
      "name": "ratio0",
      "outputs": [
        {
          "internalType": "uint256",
          "name": "",
          "type": "uint256"
        }
      ],
      "stateMutability": "pure",
      "type": "function"
    },
    {
      "inputs": [],
      "name": "ratio1",
      "outputs": [
        {
          "internalType": "uint256",
          "name": "",
          "type": "uint256"
        }
      ],
      "stateMutability": "pure",
      "type": "function"
    },
    {
      "inputs": [],
      "name": "sharesTotal",
      "outputs": [
        {
          "internalType": "uint256",
          "name": "",
          "type": "uint256"
        }
      ],
      "stateMutability": "view",
      "type": "function"
    },
    {
      "inputs": [],
      "name": "token0Address",
      "outputs": [
        {
          "internalType": "address",
          "name": "",
          "type": "address"
        }
      ],
      "stateMutability": "pure",
      "type": "function"
    },
    {
      "inputs": [],
      "name": "token1Address",
      "outputs": [
        {
          "internalType": "address",
          "name": "",
          "type": "address"
        }
      ],
      "stateMutability": "pure",
      "type": "function"
    },
    {
      "inputs": [],
      "name": "want",
      "outputs": [
        {
          "internalType": "address",
          "name": "",
          "type": "address"
        }
      ],
      "stateMutability": "view",
      "type": "function"
    },
    {
      "inputs": [],
      "name": "wantAddress",
      "outputs": [
        {
          "internalType": "address",
          "name": "",
          "type": "address"
        }
      ],
      "stateMutability": "view",
      "type": "function"
    },
    {
      "inputs": [],
      "name": "wantLockedTotal",
      "outputs": [
        {
          "internalType": "uint256",
          "name": "",
          "type": "uint256"
        }
      ],
      "stateMutability": "view",
      "type": "function"
    },
    {
      "inputs": [
        {
          "internalType": "address",
          "name": "",
          "type": "address"
        },
        {
          "internalType": "uint256",
          "name": "_wantAmt",
          "type": "uint256"
        }
      ],
      "name": "withdraw",
      "outputs": [
        {
          "internalType": "uint256",
          "name": "_sharesRemoved",
          "type": "uint256"
        }
      ],
      "stateMutability": "nonpayable",
      "type": "function"
    },
    {
      "stateMutability": "payable",
      "type": "receive"
    }
  ],
  "transactionHash": "0x7c1625b78f1e2359499b6e0f9abd3849be399b86ede7161e640ec694b187533a",
  "args": [
    "0xa513E6E4b8f2a923D98304ec87F64353C4D5C853"
  ],
  "solcInputHash": "0ba4c4105039ab960ca4f8b82189a6c3",
  "bytecode": "0x60806040523480156200001157600080fd5b50604051620017dc380380620017dc833981810160405281019062000037919062000095565b806000806101000a81548173ffffffffffffffffffffffffffffffffffffffff021916908373ffffffffffffffffffffffffffffffffffffffff160217905550506200011a565b6000815190506200008f8162000100565b92915050565b600060208284031215620000ae57620000ad620000fb565b5b6000620000be848285016200007e565b91505092915050565b6000620000d482620000db565b9050919050565b600073ffffffffffffffffffffffffffffffffffffffff82169050919050565b600080fd5b6200010b81620000c7565b81146200011757600080fd5b50565b6116b2806200012a6000396000f3fe6080604052600436106100ec5760003560e01c806377c7b8fc1161008a578063d7cb416f11610059578063d7cb416f146102da578063e719847414610305578063e7a0367914610330578063f3fef3a31461035b576100f3565b806377c7b8fc1461022e5780637ff36fbe146102595780639665e82a146102845780639748911a146102af576100f3565b806344a3955e116100c657806344a3955e1461017457806347e7ef241461019f578063643840f2146101dc57806367206d4014610205576100f3565b80631f1fcd51146100f557806325baef531461012057806342da4eb314610149576100f3565b366100f357005b005b34801561010157600080fd5b5061010a610398565b60405161011791906110fe565b60405180910390f35b34801561012c57600080fd5b5061014760048036038101906101429190610e7d565b6103bc565b005b34801561015557600080fd5b5061015e61062c565b60405161016b919061127b565b60405180910390f35b34801561018057600080fd5b50610189610636565b604051610196919061127b565b60405180910390f35b3480156101ab57600080fd5b506101c660048036038101906101c19190610dea565b610640565b6040516101d3919061127b565b60405180910390f35b3480156101e857600080fd5b5061020360048036038101906101fe9190610f2a565b6106e5565b005b34801561021157600080fd5b5061022c60048036038101906102279190610e2a565b61075e565b005b34801561023a57600080fd5b50610243610799565b604051610250919061127b565b60405180910390f35b34801561026557600080fd5b5061026e6107db565b60405161027b91906110fe565b60405180910390f35b34801561029057600080fd5b50610299610818565b6040516102a6919061127b565b60405180910390f35b3480156102bb57600080fd5b506102c4610855565b6040516102d1919061127b565b60405180910390f35b3480156102e657600080fd5b506102ef610892565b6040516102fc91906110fe565b60405180910390f35b34801561031157600080fd5b5061031a6108cf565b60405161032791906110fe565b60405180910390f35b34801561033c57600080fd5b5061034561090c565b60405161035291906110fe565b60405180910390f35b34801561036757600080fd5b50610382600480360381019061037d9190610dea565b610935565b60405161038f919061127b565b60405180910390f35b60008054906101000a900473ffffffffffffffffffffffffffffffffffffffff1681565b60006001541480156103d057506000600254145b61040f576040517f08c379a00000000000000000000000000000000000000000000000000000000081526004016104069061121b565b60405180910390fd5b8273ffffffffffffffffffffffffffffffffffffffff1663e7a036796040518163ffffffff1660e01b815260040160206040518083038186803b15801561045557600080fd5b505afa158015610469573d6000803e3d6000fd5b505050506040513d601f19601f8201168201806040525081019061048d9190610dbd565b73ffffffffffffffffffffffffffffffffffffffff1660008054906101000a900473ffffffffffffffffffffffffffffffffffffffff1673ffffffffffffffffffffffffffffffffffffffff161461051a576040517f08c379a0000000000000000000000000000000000000000000000000000000008152600401610511906111fb565b60405180910390fd5b60008060009054906101000a900473ffffffffffffffffffffffffffffffffffffffff1673ffffffffffffffffffffffffffffffffffffffff166370a08231306040518263ffffffff1660e01b815260040161057691906110fe565b60206040518083038186803b15801561058e57600080fd5b505afa1580156105a2573d6000803e3d6000fd5b505050506040513d601f19601f820116820180604052508101906105c69190610efd565b90508281101561060b576040517f08c379a0000000000000000000000000000000000000000000000000000000008152600401610602906111bb565b60405180910390fd5b816002819055508060015461062091906112c8565b60018190555050505050565b6000600154905090565b6000600254905090565b600061068f33308460008054906101000a900473ffffffffffffffffffffffffffffffffffffffff1673ffffffffffffffffffffffffffffffffffffffff166109d8909392919063ffffffff16565b610697610799565b670de0b6b3a7640000836106ab919061134f565b6106b5919061131e565b9050806002546106c591906112c8565b600281905550816001546106d991906112c8565b60018190555092915050565b600060646001546106f6919061131e565b905061074533308360008054906101000a900473ffffffffffffffffffffffffffffffffffffffff1673ffffffffffffffffffffffffffffffffffffffff166109d8909392919063ffffffff16565b8060015461075391906112c8565b600181905550505050565b6040517f08c379a00000000000000000000000000000000000000000000000000000000081526004016107909061119b565b60405180910390fd5b600080600254146107cc57600254670de0b6b3a76400006001546107bd919061134f565b6107c7919061131e565b6107d6565b670de0b6b3a76400005b905090565b60006040517f08c379a000000000000000000000000000000000000000000000000000000000815260040161080f9061119b565b60405180910390fd5b60006040517f08c379a000000000000000000000000000000000000000000000000000000000815260040161084c9061119b565b60405180910390fd5b60006040517f08c379a00000000000000000000000000000000000000000000000000000000081526004016108899061119b565b60405180910390fd5b60006040517f08c379a00000000000000000000000000000000000000000000000000000000081526004016108c69061119b565b60405180910390fd5b60006040517f08c379a00000000000000000000000000000000000000000000000000000000081526004016109039061119b565b60405180910390fd5b60008060009054906101000a900473ffffffffffffffffffffffffffffffffffffffff16905090565b6000610982338360008054906101000a900473ffffffffffffffffffffffffffffffffffffffff1673ffffffffffffffffffffffffffffffffffffffff16610a619092919063ffffffff16565b61098a610799565b670de0b6b3a76400008361099e919061134f565b6109a8919061131e565b9050806002546109b891906113a9565b600281905550816001546109cc91906113a9565b60018190555092915050565b610a5b846323b872dd60e01b8585856040516024016109f993929190611119565b604051602081830303815290604052907bffffffffffffffffffffffffffffffffffffffffffffffffffffffff19166020820180517bffffffffffffffffffffffffffffffffffffffffffffffffffffffff8381831617835250505050610ae7565b50505050565b610ae28363a9059cbb60e01b8484604051602401610a80929190611150565b604051602081830303815290604052907bffffffffffffffffffffffffffffffffffffffffffffffffffffffff19166020820180517bffffffffffffffffffffffffffffffffffffffffffffffffffffffff8381831617835250505050610ae7565b505050565b6000610b49826040518060400160405280602081526020017f5361666545524332303a206c6f772d6c6576656c2063616c6c206661696c65648152508573ffffffffffffffffffffffffffffffffffffffff16610bae9092919063ffffffff16565b9050600081511115610ba95780806020019051810190610b699190610ed0565b610ba8576040517f08c379a0000000000000000000000000000000000000000000000000000000008152600401610b9f9061125b565b60405180910390fd5b5b505050565b6060610bbd8484600085610bc6565b90509392505050565b606082471015610c0b576040517f08c379a0000000000000000000000000000000000000000000000000000000008152600401610c02906111db565b60405180910390fd5b610c1485610cda565b610c53576040517f08c379a0000000000000000000000000000000000000000000000000000000008152600401610c4a9061123b565b60405180910390fd5b6000808673ffffffffffffffffffffffffffffffffffffffff168587604051610c7c91906110e7565b60006040518083038185875af1925050503d8060008114610cb9576040519150601f19603f3d011682016040523d82523d6000602084013e610cbe565b606091505b5091509150610cce828286610ced565b92505050949350505050565b600080823b905060008111915050919050565b60608315610cfd57829050610d4d565b600083511115610d105782518084602001fd5b816040517f08c379a0000000000000000000000000000000000000000000000000000000008152600401610d449190611179565b60405180910390fd5b9392505050565b600081359050610d6381611637565b92915050565b600081519050610d7881611637565b92915050565b600081519050610d8d8161164e565b92915050565b600081359050610da281611665565b92915050565b600081519050610db781611665565b92915050565b600060208284031215610dd357610dd26114b6565b5b6000610de184828501610d69565b91505092915050565b60008060408385031215610e0157610e006114b6565b5b6000610e0f85828601610d54565b9250506020610e2085828601610d93565b9150509250929050565b600080600060608486031215610e4357610e426114b6565b5b6000610e5186828701610d54565b9350506020610e6286828701610d93565b9250506040610e7386828701610d54565b9150509250925092565b600080600060608486031215610e9657610e956114b6565b5b6000610ea486828701610d54565b9350506020610eb586828701610d93565b9250506040610ec686828701610d93565b9150509250925092565b600060208284031215610ee657610ee56114b6565b5b6000610ef484828501610d7e565b91505092915050565b600060208284031215610f1357610f126114b6565b5b6000610f2184828501610da8565b91505092915050565b60008060408385031215610f4157610f406114b6565b5b6000610f4f85828601610d93565b9250506020610f6085828601610d93565b9150509250929050565b610f73816113dd565b82525050565b6000610f8482611296565b610f8e81856112ac565b9350610f9e818560208601611425565b80840191505092915050565b6000610fb5826112a1565b610fbf81856112b7565b9350610fcf818560208601611425565b610fd8816114bb565b840191505092915050565b6000610ff06011836112b7565b9150610ffb826114cc565b602082019050919050565b60006110136018836112b7565b915061101e826114f5565b602082019050919050565b60006110366026836112b7565b91506110418261151e565b604082019050919050565b6000611059600c836112b7565b91506110648261156d565b602082019050919050565b600061107c6015836112b7565b915061108782611596565b602082019050919050565b600061109f601d836112b7565b91506110aa826115bf565b602082019050919050565b60006110c2602a836112b7565b91506110cd826115e8565b604082019050919050565b6110e18161141b565b82525050565b60006110f38284610f79565b915081905092915050565b60006020820190506111136000830184610f6a565b92915050565b600060608201905061112e6000830186610f6a565b61113b6020830185610f6a565b61114860408301846110d8565b949350505050565b60006040820190506111656000830185610f6a565b61117260208301846110d8565b9392505050565b600060208201905081810360008301526111938184610faa565b905092915050565b600060208201905081810360008301526111b481610fe3565b9050919050565b600060208201905081810360008301526111d481611006565b9050919050565b600060208201905081810360008301526111f481611029565b9050919050565b600060208201905081810360008301526112148161104c565b9050919050565b600060208201905081810360008301526112348161106f565b9050919050565b6000602082019050818103600083015261125481611092565b9050919050565b60006020820190508181036000830152611274816110b5565b9050919050565b600060208201905061129060008301846110d8565b92915050565b600081519050919050565b600081519050919050565b600081905092915050565b600082825260208201905092915050565b60006112d38261141b565b91506112de8361141b565b9250827fffffffffffffffffffffffffffffffffffffffffffffffffffffffffffffffff0382111561131357611312611458565b5b828201905092915050565b60006113298261141b565b91506113348361141b565b92508261134457611343611487565b5b828204905092915050565b600061135a8261141b565b91506113658361141b565b9250817fffffffffffffffffffffffffffffffffffffffffffffffffffffffffffffffff048311821515161561139e5761139d611458565b5b828202905092915050565b60006113b48261141b565b91506113bf8361141b565b9250828210156113d2576113d1611458565b5b828203905092915050565b60006113e8826113fb565b9050919050565b60008115159050919050565b600073ffffffffffffffffffffffffffffffffffffffff82169050919050565b6000819050919050565b60005b83811015611443578082015181840152602081019050611428565b83811115611452576000848401525b50505050565b7f4e487b7100000000000000000000000000000000000000000000000000000000600052601160045260246000fd5b7f4e487b7100000000000000000000000000000000000000000000000000000000600052601260045260246000fd5b600080fd5b6000601f19601f8301169050919050565b7f4e6f20696d706c656d656e746174696f6e000000000000000000000000000000600082015250565b7f73686f7274206f662077616e744c6f636b6564546f74616c0000000000000000600082015250565b7f416464726573733a20696e73756666696369656e742062616c616e636520666f60008201527f722063616c6c0000000000000000000000000000000000000000000000000000602082015250565b7f2177616e74416464726573730000000000000000000000000000000000000000600082015250565b7f7374726174656779206973206e6f7420656d7074790000000000000000000000600082015250565b7f416464726573733a2063616c6c20746f206e6f6e2d636f6e7472616374000000600082015250565b7f5361666545524332303a204552433230206f7065726174696f6e20646964206e60008201527f6f74207375636365656400000000000000000000000000000000000000000000602082015250565b611640816113dd565b811461164b57600080fd5b50565b611657816113ef565b811461166257600080fd5b50565b61166e8161141b565b811461167957600080fd5b5056fea2646970667358221220c0abc9b3bfe6736f34a0800db783a38fcbfb40ce5c33e2e7928bb35b27cea30764736f6c63430008070033",
  "devdoc": {
    "kind": "dev",
    "methods": {},
    "version": 1
  },
  "userdoc": {
    "kind": "user",
    "methods": {},
    "version": 1
  },
  "storageLayout": {
    "storage": [
      {
        "astId": 9717,
        "contract": "cache/solpp-generated-contracts/mocks/StrategyMock.sol:StrategyMock",
        "label": "want",
        "offset": 0,
        "slot": "0",
        "type": "t_address"
      },
      {
        "astId": 9719,
        "contract": "cache/solpp-generated-contracts/mocks/StrategyMock.sol:StrategyMock",
        "label": "_wantLockedTotal",
        "offset": 0,
        "slot": "1",
        "type": "t_uint256"
      },
      {
        "astId": 9721,
        "contract": "cache/solpp-generated-contracts/mocks/StrategyMock.sol:StrategyMock",
        "label": "_sharesTotal",
        "offset": 0,
        "slot": "2",
        "type": "t_uint256"
      }
    ],
    "types": {
      "t_address": {
        "encoding": "inplace",
        "label": "address",
        "numberOfBytes": "20"
      },
      "t_uint256": {
        "encoding": "inplace",
        "label": "uint256",
        "numberOfBytes": "32"
      }
    }
  }
}