{
  "address": "0x322813Fd9A801c5507c9de605d63CEA4f2CE6c44",
  "abi": [
    {
      "inputs": [
        {
          "internalType": "address",
          "name": "_wantToken",
          "type": "address"
        }
      ],
      "stateMutability": "nonpayable",
      "type": "constructor"
    },
    {
      "anonymous": false,
      "inputs": [
        {
          "indexed": true,
          "internalType": "address",
          "name": "owner",
          "type": "address"
        },
        {
          "indexed": true,
          "internalType": "address",
          "name": "spender",
          "type": "address"
        },
        {
          "indexed": false,
          "internalType": "uint256",
          "name": "value",
          "type": "uint256"
        }
      ],
      "name": "Approval",
      "type": "event"
    },
    {
      "anonymous": false,
      "inputs": [
        {
          "indexed": true,
          "internalType": "address",
          "name": "from",
          "type": "address"
        },
        {
          "indexed": true,
          "internalType": "address",
          "name": "to",
          "type": "address"
        },
        {
          "indexed": false,
          "internalType": "uint256",
          "name": "value",
          "type": "uint256"
        }
      ],
      "name": "Transfer",
      "type": "event"
    },
    {
      "stateMutability": "payable",
      "type": "fallback"
    },
    {
      "inputs": [
        {
          "internalType": "address",
          "name": "owner",
          "type": "address"
        },
        {
          "internalType": "address",
          "name": "spender",
          "type": "address"
        }
      ],
      "name": "allowance",
      "outputs": [
        {
          "internalType": "uint256",
          "name": "",
          "type": "uint256"
        }
      ],
      "stateMutability": "view",
      "type": "function"
    },
    {
      "inputs": [
        {
          "internalType": "address",
          "name": "spender",
          "type": "address"
        },
        {
          "internalType": "uint256",
          "name": "amount",
          "type": "uint256"
        }
      ],
      "name": "approve",
      "outputs": [
        {
          "internalType": "bool",
          "name": "",
          "type": "bool"
        }
      ],
      "stateMutability": "nonpayable",
      "type": "function"
    },
    {
      "inputs": [
        {
          "internalType": "address",
          "name": "account",
          "type": "address"
        }
      ],
      "name": "balanceOf",
      "outputs": [
        {
          "internalType": "uint256",
          "name": "",
          "type": "uint256"
        }
      ],
      "stateMutability": "view",
      "type": "function"
    },
    {
      "inputs": [],
      "name": "decimals",
      "outputs": [
        {
          "internalType": "uint8",
          "name": "",
          "type": "uint8"
        }
      ],
      "stateMutability": "view",
      "type": "function"
    },
    {
      "inputs": [
        {
          "internalType": "address",
          "name": "spender",
          "type": "address"
        },
        {
          "internalType": "uint256",
          "name": "subtractedValue",
          "type": "uint256"
        }
      ],
      "name": "decreaseAllowance",
      "outputs": [
        {
          "internalType": "bool",
          "name": "",
          "type": "bool"
        }
      ],
      "stateMutability": "nonpayable",
      "type": "function"
    },
    {
      "inputs": [
        {
          "internalType": "uint256",
          "name": "amountToken",
          "type": "uint256"
        }
      ],
      "name": "deposit",
      "outputs": [],
      "stateMutability": "nonpayable",
      "type": "function"
    },
    {
      "inputs": [
        {
          "internalType": "address",
          "name": "spender",
          "type": "address"
        },
        {
          "internalType": "uint256",
          "name": "addedValue",
          "type": "uint256"
        }
      ],
      "name": "increaseAllowance",
      "outputs": [
        {
          "internalType": "bool",
          "name": "",
          "type": "bool"
        }
      ],
      "stateMutability": "nonpayable",
      "type": "function"
    },
    {
      "inputs": [],
      "name": "name",
      "outputs": [
        {
          "internalType": "string",
          "name": "",
          "type": "string"
        }
      ],
      "stateMutability": "view",
      "type": "function"
    },
    {
      "inputs": [],
      "name": "symbol",
      "outputs": [
        {
          "internalType": "string",
          "name": "",
          "type": "string"
        }
      ],
      "stateMutability": "view",
      "type": "function"
    },
    {
      "inputs": [],
      "name": "token",
      "outputs": [
        {
          "internalType": "address",
          "name": "",
          "type": "address"
        }
      ],
      "stateMutability": "pure",
      "type": "function"
    },
    {
      "inputs": [],
      "name": "totalSupply",
      "outputs": [
        {
          "internalType": "uint256",
          "name": "",
          "type": "uint256"
        }
      ],
      "stateMutability": "view",
      "type": "function"
    },
    {
      "inputs": [],
      "name": "totalToken",
      "outputs": [
        {
          "internalType": "uint256",
          "name": "",
          "type": "uint256"
        }
      ],
      "stateMutability": "pure",
      "type": "function"
    },
    {
      "inputs": [
        {
          "internalType": "address",
          "name": "recipient",
          "type": "address"
        },
        {
          "internalType": "uint256",
          "name": "amount",
          "type": "uint256"
        }
      ],
      "name": "transfer",
      "outputs": [
        {
          "internalType": "bool",
          "name": "",
          "type": "bool"
        }
      ],
      "stateMutability": "nonpayable",
      "type": "function"
    },
    {
      "inputs": [
        {
          "internalType": "address",
          "name": "sender",
          "type": "address"
        },
        {
          "internalType": "address",
          "name": "recipient",
          "type": "address"
        },
        {
          "internalType": "uint256",
          "name": "amount",
          "type": "uint256"
        }
      ],
      "name": "transferFrom",
      "outputs": [
        {
          "internalType": "bool",
          "name": "",
          "type": "bool"
        }
      ],
      "stateMutability": "nonpayable",
      "type": "function"
    },
    {
      "inputs": [
        {
          "internalType": "uint256",
          "name": "share",
          "type": "uint256"
        }
      ],
      "name": "withdraw",
      "outputs": [],
      "stateMutability": "nonpayable",
      "type": "function"
    },
    {
      "stateMutability": "payable",
      "type": "receive"
    }
  ],
  "transactionHash": "0x40356f0ba997a669b522d0ffe6b7096dec4e57301cac2713659821958b3373a2",
  "args": [
    "0xa513E6E4b8f2a923D98304ec87F64353C4D5C853"
  ],
  "solcInputHash": "84ef5644c902bb1e12b4215444b580ea",
  "bytecode": "0x60806040523480156200001157600080fd5b5060405162001c6538038062001c658339818101604052810190620000379190620001e6565b6040518060400160405280600781526020017f6962546f6b656e000000000000000000000000000000000000000000000000008152506040518060400160405280600281526020017f49540000000000000000000000000000000000000000000000000000000000008152508160039080519060200190620000bb9291906200011f565b508060049080519060200190620000d49291906200011f565b50505080600560006101000a81548173ffffffffffffffffffffffffffffffffffffffff021916908373ffffffffffffffffffffffffffffffffffffffff16021790555050620002d0565b8280546200012d906200024c565b90600052602060002090601f0160209004810192826200015157600085556200019d565b82601f106200016c57805160ff19168380011785556200019d565b828001600101855582156200019d579182015b828111156200019c5782518255916020019190600101906200017f565b5b509050620001ac9190620001b0565b5090565b5b80821115620001cb576000816000905550600101620001b1565b5090565b600081519050620001e081620002b6565b92915050565b600060208284031215620001ff57620001fe620002b1565b5b60006200020f84828501620001cf565b91505092915050565b600062000225826200022c565b9050919050565b600073ffffffffffffffffffffffffffffffffffffffff82169050919050565b600060028204905060018216806200026557607f821691505b602082108114156200027c576200027b62000282565b5b50919050565b7f4e487b7100000000000000000000000000000000000000000000000000000000600052602260045260246000fd5b600080fd5b620002c18162000218565b8114620002cd57600080fd5b50565b61198580620002e06000396000f3fe6080604052600436106100ec5760003560e01c8063626be5671161008a578063a9059cbb11610059578063a9059cbb14610326578063b6b55f2514610363578063dd62ed3e1461038c578063fc0c546a146103c9576100f3565b8063626be5671461025657806370a082311461028157806395d89b41146102be578063a457c2d7146102e9576100f3565b806323b872dd116100c657806323b872dd146101885780632e1a7d4d146101c5578063313ce567146101ee5780633950935114610219576100f3565b806306fdde03146100f5578063095ea7b31461012057806318160ddd1461015d576100f3565b366100f357005b005b34801561010157600080fd5b5061010a6103f4565b60405161011791906113c0565b60405180910390f35b34801561012c57600080fd5b5061014760048036038101906101429190611103565b610486565b60405161015491906113a5565b60405180910390f35b34801561016957600080fd5b506101726104a4565b60405161017f91906114e2565b60405180910390f35b34801561019457600080fd5b506101af60048036038101906101aa91906110b0565b6104ae565b6040516101bc91906113a5565b60405180910390f35b3480156101d157600080fd5b506101ec60048036038101906101e79190611170565b6105a6565b005b3480156101fa57600080fd5b50610203610659565b60405161021091906114fd565b60405180910390f35b34801561022557600080fd5b50610240600480360381019061023b9190611103565b610662565b60405161024d91906113a5565b60405180910390f35b34801561026257600080fd5b5061026b61070e565b60405161027891906114e2565b60405180910390f35b34801561028d57600080fd5b506102a860048036038101906102a39190611043565b610718565b6040516102b591906114e2565b60405180910390f35b3480156102ca57600080fd5b506102d3610760565b6040516102e091906113c0565b60405180910390f35b3480156102f557600080fd5b50610310600480360381019061030b9190611103565b6107f2565b60405161031d91906113a5565b60405180910390f35b34801561033257600080fd5b5061034d60048036038101906103489190611103565b6108dd565b60405161035a91906113a5565b60405180910390f35b34801561036f57600080fd5b5061038a60048036038101906103859190611170565b6108fb565b005b34801561039857600080fd5b506103b360048036038101906103ae9190611070565b6109ba565b6040516103c091906114e2565b60405180910390f35b3480156103d557600080fd5b506103de610a41565b6040516103eb919061132a565b60405180910390f35b60606003805461040390611612565b80601f016020809104026020016040519081016040528092919081815260200182805461042f90611612565b801561047c5780601f106104515761010080835404028352916020019161047c565b820191906000526020600020905b81548152906001019060200180831161045f57829003601f168201915b5050505050905090565b600061049a610493610a46565b8484610a4e565b6001905092915050565b6000600254905090565b60006104bb848484610c19565b6000600160008673ffffffffffffffffffffffffffffffffffffffff1673ffffffffffffffffffffffffffffffffffffffff1681526020019081526020016000206000610506610a46565b73ffffffffffffffffffffffffffffffffffffffff1673ffffffffffffffffffffffffffffffffffffffff16815260200190815260200160002054905082811015610586576040517f08c379a000000000000000000000000000000000000000000000000000000000815260040161057d90611442565b60405180910390fd5b61059a85610592610a46565b858403610a4e565b60019150509392505050565b600560009054906101000a900473ffffffffffffffffffffffffffffffffffffffff1673ffffffffffffffffffffffffffffffffffffffff1663a9059cbb33836040518363ffffffff1660e01b815260040161060392919061137c565b602060405180830381600087803b15801561061d57600080fd5b505af1158015610631573d6000803e3d6000fd5b505050506040513d601f19601f820116820180604052508101906106559190611143565b5050565b60006012905090565b600061070461066f610a46565b84846001600061067d610a46565b73ffffffffffffffffffffffffffffffffffffffff1673ffffffffffffffffffffffffffffffffffffffff16815260200190815260200160002060008873ffffffffffffffffffffffffffffffffffffffff1673ffffffffffffffffffffffffffffffffffffffff168152602001908152602001600020546106ff9190611534565b610a4e565b6001905092915050565b6000612710905090565b60008060008373ffffffffffffffffffffffffffffffffffffffff1673ffffffffffffffffffffffffffffffffffffffff168152602001908152602001600020549050919050565b60606004805461076f90611612565b80601f016020809104026020016040519081016040528092919081815260200182805461079b90611612565b80156107e85780601f106107bd576101008083540402835291602001916107e8565b820191906000526020600020905b8154815290600101906020018083116107cb57829003601f168201915b5050505050905090565b60008060016000610801610a46565b73ffffffffffffffffffffffffffffffffffffffff1673ffffffffffffffffffffffffffffffffffffffff16815260200190815260200160002060008573ffffffffffffffffffffffffffffffffffffffff1673ffffffffffffffffffffffffffffffffffffffff168152602001908152602001600020549050828110156108be576040517f08c379a00000000000000000000000000000000000000000000000000000000081526004016108b5906114a2565b60405180910390fd5b6108d26108c9610a46565b85858403610a4e565b600191505092915050565b60006108f16108ea610a46565b8484610c19565b6001905092915050565b600560009054906101000a900473ffffffffffffffffffffffffffffffffffffffff1673ffffffffffffffffffffffffffffffffffffffff166323b872dd3330846040518463ffffffff1660e01b815260040161095a93929190611345565b602060405180830381600087803b15801561097457600080fd5b505af1158015610988573d6000803e3d6000fd5b505050506040513d601f19601f820116820180604052508101906109ac9190611143565b506109b73382610e9a565b50565b6000600160008473ffffffffffffffffffffffffffffffffffffffff1673ffffffffffffffffffffffffffffffffffffffff16815260200190815260200160002060008373ffffffffffffffffffffffffffffffffffffffff1673ffffffffffffffffffffffffffffffffffffffff16815260200190815260200160002054905092915050565b600090565b600033905090565b600073ffffffffffffffffffffffffffffffffffffffff168373ffffffffffffffffffffffffffffffffffffffff161415610abe576040517f08c379a0000000000000000000000000000000000000000000000000000000008152600401610ab590611482565b60405180910390fd5b600073ffffffffffffffffffffffffffffffffffffffff168273ffffffffffffffffffffffffffffffffffffffff161415610b2e576040517f08c379a0000000000000000000000000000000000000000000000000000000008152600401610b2590611402565b60405180910390fd5b80600160008573ffffffffffffffffffffffffffffffffffffffff1673ffffffffffffffffffffffffffffffffffffffff16815260200190815260200160002060008473ffffffffffffffffffffffffffffffffffffffff1673ffffffffffffffffffffffffffffffffffffffff168152602001908152602001600020819055508173ffffffffffffffffffffffffffffffffffffffff168373ffffffffffffffffffffffffffffffffffffffff167f8c5be1e5ebec7d5bd14f71427d1e84f3dd0314c0f7b2291e5b200ac8c7c3b92583604051610c0c91906114e2565b60405180910390a3505050565b600073ffffffffffffffffffffffffffffffffffffffff168373ffffffffffffffffffffffffffffffffffffffff161415610c89576040517f08c379a0000000000000000000000000000000000000000000000000000000008152600401610c8090611462565b60405180910390fd5b600073ffffffffffffffffffffffffffffffffffffffff168273ffffffffffffffffffffffffffffffffffffffff161415610cf9576040517f08c379a0000000000000000000000000000000000000000000000000000000008152600401610cf0906113e2565b60405180910390fd5b610d04838383610ffa565b60008060008573ffffffffffffffffffffffffffffffffffffffff1673ffffffffffffffffffffffffffffffffffffffff16815260200190815260200160002054905081811015610d8a576040517f08c379a0000000000000000000000000000000000000000000000000000000008152600401610d8190611422565b60405180910390fd5b8181036000808673ffffffffffffffffffffffffffffffffffffffff1673ffffffffffffffffffffffffffffffffffffffff16815260200190815260200160002081905550816000808573ffffffffffffffffffffffffffffffffffffffff1673ffffffffffffffffffffffffffffffffffffffff1681526020019081526020016000206000828254610e1d9190611534565b925050819055508273ffffffffffffffffffffffffffffffffffffffff168473ffffffffffffffffffffffffffffffffffffffff167fddf252ad1be2c89b69c2b068fc378daa952ba7f163c4a11628f55a4df523b3ef84604051610e8191906114e2565b60405180910390a3610e94848484610fff565b50505050565b600073ffffffffffffffffffffffffffffffffffffffff168273ffffffffffffffffffffffffffffffffffffffff161415610f0a576040517f08c379a0000000000000000000000000000000000000000000000000000000008152600401610f01906114c2565b60405180910390fd5b610f1660008383610ffa565b8060026000828254610f289190611534565b92505081905550806000808473ffffffffffffffffffffffffffffffffffffffff1673ffffffffffffffffffffffffffffffffffffffff1681526020019081526020016000206000828254610f7d9190611534565b925050819055508173ffffffffffffffffffffffffffffffffffffffff16600073ffffffffffffffffffffffffffffffffffffffff167fddf252ad1be2c89b69c2b068fc378daa952ba7f163c4a11628f55a4df523b3ef83604051610fe291906114e2565b60405180910390a3610ff660008383610fff565b5050565b505050565b505050565b6000813590506110138161190a565b92915050565b60008151905061102881611921565b92915050565b60008135905061103d81611938565b92915050565b600060208284031215611059576110586116a2565b5b600061106784828501611004565b91505092915050565b60008060408385031215611087576110866116a2565b5b600061109585828601611004565b92505060206110a685828601611004565b9150509250929050565b6000806000606084860312156110c9576110c86116a2565b5b60006110d786828701611004565b93505060206110e886828701611004565b92505060406110f98682870161102e565b9150509250925092565b6000806040838503121561111a576111196116a2565b5b600061112885828601611004565b92505060206111398582860161102e565b9150509250929050565b600060208284031215611159576111586116a2565b5b600061116784828501611019565b91505092915050565b600060208284031215611186576111856116a2565b5b60006111948482850161102e565b91505092915050565b6111a68161158a565b82525050565b6111b58161159c565b82525050565b60006111c682611518565b6111d08185611523565b93506111e08185602086016115df565b6111e9816116a7565b840191505092915050565b6000611201602383611523565b915061120c826116b8565b604082019050919050565b6000611224602283611523565b915061122f82611707565b604082019050919050565b6000611247602683611523565b915061125282611756565b604082019050919050565b600061126a602883611523565b9150611275826117a5565b604082019050919050565b600061128d602583611523565b9150611298826117f4565b604082019050919050565b60006112b0602483611523565b91506112bb82611843565b604082019050919050565b60006112d3602583611523565b91506112de82611892565b604082019050919050565b60006112f6601f83611523565b9150611301826118e1565b602082019050919050565b611315816115c8565b82525050565b611324816115d2565b82525050565b600060208201905061133f600083018461119d565b92915050565b600060608201905061135a600083018661119d565b611367602083018561119d565b611374604083018461130c565b949350505050565b6000604082019050611391600083018561119d565b61139e602083018461130c565b9392505050565b60006020820190506113ba60008301846111ac565b92915050565b600060208201905081810360008301526113da81846111bb565b905092915050565b600060208201905081810360008301526113fb816111f4565b9050919050565b6000602082019050818103600083015261141b81611217565b9050919050565b6000602082019050818103600083015261143b8161123a565b9050919050565b6000602082019050818103600083015261145b8161125d565b9050919050565b6000602082019050818103600083015261147b81611280565b9050919050565b6000602082019050818103600083015261149b816112a3565b9050919050565b600060208201905081810360008301526114bb816112c6565b9050919050565b600060208201905081810360008301526114db816112e9565b9050919050565b60006020820190506114f7600083018461130c565b92915050565b6000602082019050611512600083018461131b565b92915050565b600081519050919050565b600082825260208201905092915050565b600061153f826115c8565b915061154a836115c8565b9250827fffffffffffffffffffffffffffffffffffffffffffffffffffffffffffffffff0382111561157f5761157e611644565b5b828201905092915050565b6000611595826115a8565b9050919050565b60008115159050919050565b600073ffffffffffffffffffffffffffffffffffffffff82169050919050565b6000819050919050565b600060ff82169050919050565b60005b838110156115fd5780820151818401526020810190506115e2565b8381111561160c576000848401525b50505050565b6000600282049050600182168061162a57607f821691505b6020821081141561163e5761163d611673565b5b50919050565b7f4e487b7100000000000000000000000000000000000000000000000000000000600052601160045260246000fd5b7f4e487b7100000000000000000000000000000000000000000000000000000000600052602260045260246000fd5b600080fd5b6000601f19601f8301169050919050565b7f45524332303a207472616e7366657220746f20746865207a65726f206164647260008201527f6573730000000000000000000000000000000000000000000000000000000000602082015250565b7f45524332303a20617070726f766520746f20746865207a65726f20616464726560008201527f7373000000000000000000000000000000000000000000000000000000000000602082015250565b7f45524332303a207472616e7366657220616d6f756e742065786365656473206260008201527f616c616e63650000000000000000000000000000000000000000000000000000602082015250565b7f45524332303a207472616e7366657220616d6f756e742065786365656473206160008201527f6c6c6f77616e6365000000000000000000000000000000000000000000000000602082015250565b7f45524332303a207472616e736665722066726f6d20746865207a65726f20616460008201527f6472657373000000000000000000000000000000000000000000000000000000602082015250565b7f45524332303a20617070726f76652066726f6d20746865207a65726f2061646460008201527f7265737300000000000000000000000000000000000000000000000000000000602082015250565b7f45524332303a2064656372656173656420616c6c6f77616e63652062656c6f7760008201527f207a65726f000000000000000000000000000000000000000000000000000000602082015250565b7f45524332303a206d696e7420746f20746865207a65726f206164647265737300600082015250565b6119138161158a565b811461191e57600080fd5b50565b61192a8161159c565b811461193557600080fd5b50565b611941816115c8565b811461194c57600080fd5b5056fea2646970667358221220982f6ddc0f8ece2488d4c10396234dc4e22ab2ba46844eeadb64be849ca8a25064736f6c63430008070033",
  "devdoc": {
    "kind": "dev",
    "methods": {
      "allowance(address,address)": {
        "details": "See {IERC20-allowance}."
      },
      "approve(address,uint256)": {
        "details": "See {IERC20-approve}. Requirements: - `spender` cannot be the zero address."
      },
      "balanceOf(address)": {
        "details": "See {IERC20-balanceOf}."
      },
      "decimals()": {
        "details": "Returns the number of decimals used to get its user representation. For example, if `decimals` equals `2`, a balance of `505` tokens should be displayed to a user as `5.05` (`505 / 10 ** 2`). Tokens usually opt for a value of 18, imitating the relationship between Ether and Wei. This is the value {ERC20} uses, unless this function is overridden; NOTE: This information is only used for _display_ purposes: it in no way affects any of the arithmetic of the contract, including {IERC20-balanceOf} and {IERC20-transfer}."
      },
      "decreaseAllowance(address,uint256)": {
        "details": "Atomically decreases the allowance granted to `spender` by the caller. This is an alternative to {approve} that can be used as a mitigation for problems described in {IERC20-approve}. Emits an {Approval} event indicating the updated allowance. Requirements: - `spender` cannot be the zero address. - `spender` must have allowance for the caller of at least `subtractedValue`."
      },
      "deposit(uint256)": {
        "details": "Add more token to the lending pool. Hope to get some good returns."
      },
      "increaseAllowance(address,uint256)": {
        "details": "Atomically increases the allowance granted to `spender` by the caller. This is an alternative to {approve} that can be used as a mitigation for problems described in {IERC20-approve}. Emits an {Approval} event indicating the updated allowance. Requirements: - `spender` cannot be the zero address."
      },
      "name()": {
        "details": "Returns the name of the token."
      },
      "symbol()": {
        "details": "Returns the symbol of the token, usually a shorter version of the name."
      },
      "totalSupply()": {
        "details": "See {IERC20-totalSupply}."
      },
      "transfer(address,uint256)": {
        "details": "See {IERC20-transfer}. Requirements: - `recipient` cannot be the zero address. - the caller must have a balance of at least `amount`."
      },
      "transferFrom(address,address,uint256)": {
        "details": "See {IERC20-transferFrom}. Emits an {Approval} event indicating the updated allowance. This is not required by the EIP. See the note at the beginning of {ERC20}. Requirements: - `sender` and `recipient` cannot be the zero address. - `sender` must have a balance of at least `amount`. - the caller must have allowance for ``sender``'s tokens of at least `amount`."
      }
    },
    "version": 1
  },
  "userdoc": {
    "kind": "user",
    "methods": {},
    "version": 1
  },
  "storageLayout": {
    "storage": [
      {
        "astId": 251,
        "contract": "cache/solpp-generated-contracts/mocks/VaultMock.sol:VaultMock",
        "label": "_balances",
        "offset": 0,
        "slot": "0",
        "type": "t_mapping(t_address,t_uint256)"
      },
      {
        "astId": 257,
        "contract": "cache/solpp-generated-contracts/mocks/VaultMock.sol:VaultMock",
        "label": "_allowances",
        "offset": 0,
        "slot": "1",
        "type": "t_mapping(t_address,t_mapping(t_address,t_uint256))"
      },
      {
        "astId": 259,
        "contract": "cache/solpp-generated-contracts/mocks/VaultMock.sol:VaultMock",
        "label": "_totalSupply",
        "offset": 0,
        "slot": "2",
        "type": "t_uint256"
      },
      {
        "astId": 261,
        "contract": "cache/solpp-generated-contracts/mocks/VaultMock.sol:VaultMock",
        "label": "_name",
        "offset": 0,
        "slot": "3",
        "type": "t_string_storage"
      },
      {
        "astId": 263,
        "contract": "cache/solpp-generated-contracts/mocks/VaultMock.sol:VaultMock",
        "label": "_symbol",
        "offset": 0,
        "slot": "4",
        "type": "t_string_storage"
      },
      {
        "astId": 10060,
        "contract": "cache/solpp-generated-contracts/mocks/VaultMock.sol:VaultMock",
        "label": "wantToken",
        "offset": 0,
        "slot": "5",
        "type": "t_address"
      },
      {
        "astId": 10062,
        "contract": "cache/solpp-generated-contracts/mocks/VaultMock.sol:VaultMock",
        "label": "WBNB",
        "offset": 0,
        "slot": "6",
        "type": "t_address"
      }
    ],
    "types": {
      "t_address": {
        "encoding": "inplace",
        "label": "address",
        "numberOfBytes": "20"
      },
      "t_mapping(t_address,t_mapping(t_address,t_uint256))": {
        "encoding": "mapping",
        "key": "t_address",
        "label": "mapping(address => mapping(address => uint256))",
        "numberOfBytes": "32",
        "value": "t_mapping(t_address,t_uint256)"
      },
      "t_mapping(t_address,t_uint256)": {
        "encoding": "mapping",
        "key": "t_address",
        "label": "mapping(address => uint256)",
        "numberOfBytes": "32",
        "value": "t_uint256"
      },
      "t_string_storage": {
        "encoding": "bytes",
        "label": "string",
        "numberOfBytes": "32"
      },
      "t_uint256": {
        "encoding": "inplace",
        "label": "uint256",
        "numberOfBytes": "32"
      }
    }
  }
}